:020000040800F2
:10780000303D0020D9780008BDC1000885BA0008C5
:107810000000000000000000000000000000000068
:1078200000000000000000000000000035C2000859
:107830000000000000000000BFC1000837C20008BF
:10784000EB780008EB78000821C20008EB7800080C
:10785000EB780008EB780008EB780008258F00082B
:1078600000000000EB780008D18E0008E18E0008CF
:10787000EB780008EB780008EB780008EB7800085C
:10788000EB780008EB780008EB78000800000000B7
:10789000EB780008EB780008EB780008EB7800083C
:1078A000EB780008EB780008EB780008B5C8000812
:1078B000C9C8000801BD0008000000000000000069
:1078C0000448854600F008FF004800471D350108C0
:1078D000C046C046303D0020044880470448004769
:1078E000FEE7FEE7FEE7FEE7FEE7FEE7D1C200089F
:1078F000C178000830B50B46014600202022012443
:1079000009E00D46D5409D4205D31D469540491BD3
:107910002546954040191546521E002DF1DC30BD1C
:1079200070B500242546002801DA012440420029D0
:1079300001DA01254942FFF7DDFFAC4200D04042A9
:10794000002C00D0494270BDF0B51FB4064600209F
:1079500082B005464024019100901BE00199224627
:107960000F46304600F05CFC049A059B801A994152
:1079700010D310461946224600F042FC361A8F41B9
:107980000197224601200021009F00F039FC3818A1
:107990004D4100902046641E0028DFDC019B0098CA
:1079A0002946324607B0F0BD38B50446C0681821F4
:1079B000401E4843A16840183C2148436168401874
:1079C0003C2148432168451860690C2148432169DE
:1079D00040186921C900401A3021FFF7A1FF114A60
:1079E00050434219084600921A2902DB0E495118E9
:1079F00000910C21FFF794FF0C4A5043009A801825
:107A000000900B4806E0491E425C074B5A43009B1E
:107A1000D21800920029F6DC2146684600F032FCBC
:107A2000009838BD801F8607805101008033E10136
:107A300078A2010803460B439B0703D009E008C95D
:107A4000121F08C0042AFAD203E00B780370401C0E
:107A5000491C521EF9D27047D2B201E00270401C9C
:107A6000491EFBD270470022F6E710B513460A46BE
:107A700004461946FFF7F0FF204610BD30B5054615
:107A80002A460B4610781C78521C5B1C002801D03B
:107A9000A042F7D0002C03D0002802D06D1CEFE7E5
:107AA000284630BD10B5044605E00B780370401C35
:107AB000002B00D0491C521EF7D2204610BD421C9C
:107AC0000178401C0029FBD1801A704703460A78D0
:107AD0000270401C491C002AF9D118467047F7B5BE
:107AE00082B00F460026029C04F0FEFF0090006862
:107AF00001902578641C002D05D000F0B5FB0068CE
:107B0000405DC007F5D12B2D02D02D2D1CD0641E59
:107B100000980021016039462046049A00F0ECFBF1
:107B20000146002F04D03868A04201D10298386085
:107B30000098006802280BD00098019A0260700536
:107B400006D5484205B0F0BD012080020643DFE7BC
:107B50000846F7E770B5064604F0C6FF0468054618
:107B60000A220021304600F06DFC2C6070BD70B51B
:107B7000064604F0B9FF046805460A220021304693
:107B800000F060FC2C6070BDF8B502464A40D40F8E
:107B900042004B0052085B089A4202D20246084655
:107BA00011464A0023D0C30D4A00DDB2120EAD1AB1
:107BB000202D35DA49020126490AF6058A19002CDA
:107BC00000D0524220214F1B1146B9402A411018C3
:107BD000C20D9A4221D0002C17D0012D08DCDA0505
:107BE000801AD20F8019D207DBB200F06BFCF8BD0F
:107BF000DA05801A012340001B06C01880185A427B
:107C00008018CA0F1043490007E04908C207114312
:107C1000DA05801A80194008801800F04BFCF8BD86
:107C200061000122511A001BF7E70122D2075140DF
:107C3000AAE70122D2075040A6E7024670B54A40A3
:107C4000D30FDB0740002DD04A002AD0010E140EBE
:107C5000000212020919400A520A8418E50104467A
:107C60005443000A120A2E045043A4194219200C4E
:107C7000C543AA18120C0125AD03521C5219120457
:107C80007F39240400D0521C104301D44000491E07
:107C9000C2B20C06C0092018401C4008802A02D03D
:107CA00003E0002070BD40084000002900DA0020F9
:107CB000184370BD70B502464A40D50F40004A00D7
:107CC000ED0740085208002814D0002A12D0C40D35
:107CD000D30D41020120C0055202490A520AE41A9A
:107CE000091812187D34914201D3641C00E0490048
:107CF000002C01DA002070BD0023914201D3891AC3
:107D00000343400849000028F7D100290AD09142D6
:107D100002D10121C90705E0914201D2012101E010
:107D20000121C943E005C018401900F0C3FB70BD34
:107D3000F0B507460846584087B0C00F0490480089
:107D40000E46590040084908BC1A884105D23846F9
:107D500031461E4617460B4602465800400810435F
:107D60004DD0300D039040055900400D490D059050
:107D7000401A0290402873DA18030121000B09050C
:107D80000843019004980092002806D01146019AF9
:107D900049420020904100910190029840210A1A26
:107DA0000199009800F02CFA05460C466B4607CB6B
:107DB00000F047FAC0197141039A0E0D0023D7173E
:107DC00056401A467A40164344D0049A002A2DD0D1
:107DD000029A012A039A15DC1205C01A9141012664
:107DE0003605001C7141D20F059ED2070093019207
:107DF00002962A46234600F0ABFB07B0F0BD38469A
:107E00003146FAE71605234A0F46B218C01AB741A1
:107E100001210905001C4F4100187F411146181827
:107E20007941E20F10436D19644113E0E2076D08D8
:107E300015436408C2071443039A01261205C01AA9
:107E400091413605001C7141CE0740083043490876
:107E5000C01851412A46234600F06DFBCDE7FFE7ED
:107E6000049801224000C117121A00238B41049884
:107E70003146C417381AA141EEE730B40124E407B3
:107E8000634030BC54E730B40124E407614030BCA7
:107E90004EE700000000E0FFF0B51FB488B00B997A
:107EA0000998002448400999C00F490049080991E0
:107EB000C0070B990090490049080B91099908984F
:107EC000A64608431CD00B990A98084318D0099875
:107ED00001244000420D4800410D0998240500038B
:107EE000000B204309900B980003000B20430B90DC
:107EF00050181C494018002201901446104605E015
:107F0000002001460DB0F0BD032801DA034600E071
:107F100003239C46C11A0AAE0AE05F0008ADED5B80
:107F20004F00F75B7D430027AA187C41491C5B1E6C
:107F30006145F2DD410004AB5A522104120C0A43A0
:107F4000240C401C0828DFDB019802900099704641
:107F500001910090059B049A0799069800F0F8FAA1
:107F6000D0E700000DFCFFFFF0B50C465C4085B08B
:107F7000E40FE40703944C0000266408590094467B
:107F8000490802460296224321D062460A431ED087
:107F90006200570D4A000E032303550D01240246CB
:107FA0002C492405781B1B0B360B40182343264312
:107FB000614600901C46501AB44103D30098401CFF
:107FC000009002E0921800985B41002803DA00203C
:107FD000014605B0F0BD002001210905074686468F
:107FE00011E064461D46141BB54106D36546521B7D
:107FF000B341744607430C43A646CD0740084908E1
:10800000284392185B4105460D43EAD110461843B8
:1080100013D06046194650407140084306D0604670
:10802000101AB34106D20122002306E000220123E8
:10803000DB0702E00122D243531000987446010589
:10804000381C6141029C039D0019694100F073FADC
:10805000BFE70000FD03000070B54B005B08034361
:108060000BD04B005C0D002633466542B341D4175C
:10807000AD1AA34102DB0020014670BD1205301885
:10808000514170BD10B500229623114600F01AFA36
:1080900010BD00000EB5C217C10F5040CA074018EE
:1080A0000021054B0293019200910A460B4600F015
:1080B0004FFA03B000BD0000330400000EB50549BF
:1080C0000291002100910A460B46019100F040FA0E
:1080D00003B000BD33040000410040020122400A09
:1080E000D205090E80187F2901DA002070479629F1
:1080F00003DC9622511AC840704796398840704771
:108100004A0009030123090B1B051943094B10B54C
:10811000520D9A4201DA002010BD064B34339A42C8
:1081200003DC9A1A00F07CF810BD0349511888400E
:1081300010BD0000FF030000CDFBFFFFC20FD20700
:10814000400040080BD0C10D0723DB01C9184002D5
:108150000905400A1143C208400711437047002037
:108160000146704710B5002904DB0124E4074042B2
:108170008C412146002B04DB1C460123DB075242C5
:10818000A3418B4200D1824210BD000010B50029EE
:1081900004DB0124E40740428C412146002B04DB30
:1081A0001C460123DB075242A341994200D1904271
:1081B00010BD0000CB0FDB07490010B5490802468F
:1081C0000A4307D00A0D07240903E401090B121B17
:1081D000002A01DC002010BDC900440F0C43C1007F
:1081E000E018D205801800F065F910BD0122D20711
:1081F000002800DB101A002900DB511A8142704769
:1082000010B5202A04DB0146203A9140002010BD21
:10821000914020239C1A0346E3401943904010BD2F
:1082200010B5202A04DB0846203AD040002110BDBA
:108230000B46D340D0402024A21A9140084319464F
:1082400010BD10B5202A06DBCB170846203A104196
:10825000C1170B4306E00B461341D0402024A21A5D
:1082600091400843194610BD0048704734A40108E6
:1082700010B50446FFF7F8FF0068005DC007C00FA7
:1082800010BD000070B50C4600683C21FFF732FBC2
:1082900021603C21FFF72EFB61601821FFF72AFBCC
:1082A0000546A1600721001DFFF724FBA1610F48CF
:1082B000A90008180E49FFF71DFB02464432880842
:1082C0006261E0613B2802D3910700D0401C00218D
:1082D000084B0A462161995C814203D8401A521C1E
:1082E0002261F8E7401CE060204670BD6C0B000086
:1082F000B505000038A40108F7B582B0029C00273C
:108300002078641C15460197302802D0002D15D026
:1083100015E020780127641C782804D0582802D062
:10832000002D09D00BE0002D01D0102D07D1002722
:1083300010252078641C02E0082500E00A250026AC
:10834000009610E00099012769430818020C29469D
:1083500080B2714300908E183804864201D3012008
:1083600001902078641C294600F0C8F90028E9DA59
:108370000398002805D0002F01D0641E00E0029C65
:1083800004600198002806D004F0AEFB02210160D1
:10839000C81E05B0F0BD009930040843F9E700009D
:1083A0000FB400B589B00CA900910B990023CB60E4
:1083B000204B214A06930792042201921F4A0292FF
:1083C0001F4A089202466B46002000F036FA09B0B8
:1083D00008BC04B0184770B586B006460020C043FC
:1083E0000190002015460C460091029104903246FF
:1083F000694604A8FFF7D4FF024604982118002D0F
:1084000005D0002801D0084600E0204628600498E6
:1084100000280DD0002A02DD0098884208D0081BF1
:108420000190009432466946029404A8FFF7B8FF11
:1084300006B070BD918A0008B18A0008FFFFFF7F77
:1084400071820008F7B5009C0F4600262578641C51
:10845000002D05D0FFF708FF0068405DC007F5D18B
:108460002B2D02D02D2D18D0641E39462046029A9D
:10847000FFF742FF002F04D03968A14201D10099D3
:1084800039607105022400290BDA4042002803DD1F
:1084900004F02AFB0460A007FEBD01208002064311
:1084A000E3E70028F8DA04F01FFB04600048FEBD93
:1084B000FFFFFF7F002904DA401C490001D140087A
:1084C0004000704770B40024050C05D1102400044E
:1084D00002D1002921D01124050E01D10002083457
:1084E000050F01D10001241D850F01D18000A41CBE
:1084F000002801DB4000641C002908D020252E1B29
:108500000D46F540A14000D0012129430843010652
:108510001B1B000ADB1D02D5002070BC7047DB0569
:10852000181880180029F8DA401C4900F5D170BCF1
:1085300040084000704710B5002B08DA0024401CAA
:10854000614192185B411A4301D14008400010BDBF
:10855000F0B51FB482B005460C0003D0084604F005
:108560004FFA02E004F04CFA203002460090214617
:108570002846FFF745FE049B059A04460F4618431C
:108580001143084314D0184610431BD000984021D3
:108590000A1A18460599FFF743FE05460E46009A4B
:1085A00005990498FFF72CFE084305D0012004E04C
:1085B0002046394607B0F0BD0020C11705430E43E1
:1085C0002C43374300990E986305401A7905E40A55
:1085D00000220C43FD0A0A3002D500200146E9E7DB
:1085E0000105101969410C9C0D9D00196941FFF7A7
:1085F000A2FFDFE7FEB500231A461B1A8A4103DB00
:108600000020014603B0F0BD4A000D0301212D0BEF
:108610000905520D0D43D10702D100186D41521EBC
:108620005110FF31FF310131002704463E463846E4
:10863000009701910246012100200905FFF7F0FD96
:10864000C3197141F818324684468E464A41614644
:108650002846611A904104D36046241A9541764613
:108660001F46241900986D41401C00903428E1DD1C
:10867000F91930467041091BA84103D20022D243A8
:10868000134601E00022134601980105381C714190
:10869000FFF751FFB6E700004A0009030123090B69
:1086A0001B0519430A4B10B5520D9A4202DA0020FD
:1086B000014610BD064B34339A4203DC9A1AFFF789
:1086C000AFFD10BD034BD218FFF79AFD10BD00009F
:1086D000FF030000CDFBFFFF064C0125064E05E021
:1086E000E36807CC2B430C3C98471034B442F7D3D3
:1086F000FFF7EAF854A6010874A601083A2800D248
:108700003038202302469A43412A01D31046373895
:10871000884201D30020C04370470000FFB50878AD
:1087200089B01546FF2805D0491C2D2804D0002209
:10873000002407E000240BE00122F9E70A235C4350
:108740000419491C0878FF28F8D1002A00D0644297
:10875000002004902A7801462D2A01D02B2A0FD11F
:108760006D1C2D2A02D00022049209E00122FBE7B1
:1087700000260A2233466D1C00F0D0F938187141EA
:108780002F78FF2FF4D10C9AA218069202460A43C2
:1087900004D0FF23069A9133DA4205DA00210998C2
:1087A0000A4606C00DB0F0BD0024B74AB54D2646B6
:1087B000079200F0F1F9029006980391002801DA7F
:1087C000474200E0074639050020AF4A001C5141EE
:1087D0000191009012E0F80707D022462B46304660
:1087E0000799FFF759FB0646079122462B4610468C
:1087F0001946FFF751FB04460D467F10002FEAD1C2
:108800000698019B0028009A0399029806DAFFF760
:10881000ABFB3246079BFFF7A7FB05E0FFF73CFBEE
:108820003246079BFFF738FB049A002A02D0012248
:10883000D2075140099A03C2B4E7FFB591B00020B6
:1088400009900025ED432E209E685C681F4601902C
:10885000B9696D1C129888470090396A88470028CA
:10886000F6D10098401C0AD00D20C0018443002E90
:1088700012DD00982B2809D02D280DD103E000200F
:10888000C04315B0F0BD012080020443B9696D1CDE
:1088900012988847761E009003A9600501D52D2007
:1088A00000E02B206A461073491C0CA80F9102901F
:1088B0000AE0B9696D1C12988847009001204002B7
:1088C00004431398761E0560002E02DD00983028C0
:1088D000EFD001990098884246D18020044308E0F7
:1088E0000998401E09900120400204431399681C16
:1088F0000860B9696D1C761E129888470090302870
:10890000EED031E00199884205D1200603D48020C1
:108910000443761E1EE0009804F004FD002826D0D3
:1089200001204002044307A90F980331761E8842B4
:108930000BD200980F99303808700F98401C0F9098
:10894000200607D50998401E03E0200602D40998A6
:10895000401C0990A00502D51399681C0860B969EC
:108960006D1C129888470090002ECBDC59E0002E39
:1089700057DD0098652801D0452852D1A00550D573
:10898000032000028443B9696D1C761E1298884743
:108990000090002E0CDD2B2804D02D2808D1FF20BC
:1089A00001300443B9696D1C12988847761E009007
:1089B000E00501D52D2100E02B21029801700298DD
:1089C000401C0290019025E00120400204430EA9C2
:1089D00002980131761E88420ED2009802993038F2
:1089E0000006000E087003D10299019881420AD94D
:1089F0000298401C029006E0E00501D5234801E002
:108A0000224840420990B9696D1C1298884700902D
:108A100013980560002E04DD009804F083FC002804
:108A2000D2D1F969129888470F99FF2008700299EE
:108A300003AA087000200A900B900CA90AA8099BB1
:108A4000FFF76CFEA00502D40120C04319E72420E3
:108A5000044209D0E00713D138680B9A0A99031D24
:108A60003B60006806C00BE00B990A98FFF7A2FB79
:108A70000146E00704D13868021D3A6000680160D1
:108A80002846FEE6000014400000F03FF1D8FFFF4A
:108A90004268002A08D001680B78491C002B03D0DB
:108AA000521E06C0184670470121C160881E7047DB
:108AB0004268002A0BD0C3680168002B07D1836885
:108AC0008B4204D0491E521C06C000207047002073
:108AD000C043704770B5CD0F4A0009030123090B4D
:108AE0001B0519430B4BED070024520D9A4201DA86
:108AF000002070BD074B34339A4203DC9A1AFFF70B
:108B00008FFB02E00449511888402C43F1D04042C9
:108B100070BD0000FF030000CDFBFFFFF0B51FB4E8
:108B200086B000200090019002900698069980B2CD
:108B300004900798090C02040014114307900027C1
:108B4000089D099806913E463C4603900398A9B2B9
:108B50000204000C039004982D0C15434843002197
:108B60002246FFF74DFBC719714110340E46402CC9
:108B7000ECDB3846029AFFF743FB009A019B801812
:108B80000090594102980191103002904028CCDBAE
:108B900000980BB0F0BD00000EB5054A029200220D
:108BA000009213460192FFF7D3FC03B000BD000012
:108BB0003304000070B5044600688168490720D579
:108BC000816810264907002905DA8168890702D4DF
:108BD00081683143816000F0BBFF05460DE000F085
:108BE000B7FF401B0A2808D9606D30436065A06D4F
:108BF00001210843A065084670BD206880684007D1
:108C0000EDD4002070BD000038B504460648054983
:108C10000068FEF76FFE604300E0401E00900028F1
:108C2000FBD138BD40420F0078000020F8B5044663
:108C3000006881688907890F012925D10168C90762
:108C400022D08168052211401025012601290FD16B
:108C5000816802221143816021680320086000F0CE
:108C600077FF07460CE000F073FFC01B0A2807D906
:108C7000606D28436065A06D3043A0650120F8BD9C
:108C800020688068C007EED10020F8BDF8B5044622
:108C9000006881688907890F012902D10168C90725
:108CA00022D18168114A10261140012500290ED1D8
:108CB0008168294381600120FFF7A6FF00F048FF8B
:108CC00007460CE000F044FFC01B0A2807D9606D7E
:108CD00030436065A06D2843A0650120F8BD206881
:108CE0000068C043C007EDD10020F8BD1700008028
:108CF000F7B5012211462A4800F023FF294E00272C
:108D00007468294D002C1DD10C200AF01DFC7060E8
:108D1000002838D002998171076001980AF014FC8C
:108D200071680028086008D0019A0099FEF782FE59
:108D3000706801998180876020E0084609F086FB11
:108D4000776020E0A068002816D10C200AF0FCFB18
:108D5000060018D00298B071376001980AF0F4FB51
:108D6000306000280CD0019A0099FEF763FE01984C
:108D7000B080B760A660B0680400E3D10120FEBDFA
:108D8000304609F063FB09A1092002F0C3FF01F09E
:108D9000E1F9A878401CA8700DF00CF90020FEBD88
:108DA000000400500C000020D00E002043726561CA
:108DB00074654E6F6465436D643D3D3E4D616C6C02
:108DC0006F63206D656D6F7279206572726F720AC4
:108DD00000000000FFB5254C054620688BB01F46FB
:108DE0000E46002822D0044640690028FBD11820F6
:108DF0000AF0AAFB6061002831D00D9901610021C1
:108E00000446416100F0A4FE4119E160A060677072
:108E100065602670324616A1684603F0CBFD6946B0
:108E2000092002F077FF01200FB0F0BD18200AF0F2
:108E30008BFB2060002810D0067000F089FE0146F0
:108E40002068324681604919C160477045600D99BC
:108E50000161002141610BA1DEE70FA100E014A137
:108E6000092002F057FF0020DEE70000000000208C
:108E7000437265617465204E6F64655461736B2540
:108E8000640A00004372656174652048656164543A
:108E900061736B2025640A00437265617465204824
:108EA0006561645461736B204572726F720A0000D1
:108EB0006E6F20737061636520666F72206E6578D7
:108EC00074206379636C657461736B0A0000000041
:108ED00010B5024800F0A8FB10BD0000641C002083
:108EE00010B5034800F0A0FB024800F09DFB10BD48
:108EF000AC1C00201C1C002030B5446C1C252C40F0
:108F00000125A540046C6560046863608368102BCC
:108F1000036803D099600068C26030BD9A60006841
:108F2000C16030BD10B5102000F038FD802000F089
:108F300035FDFF20013000F031FD10BD704700000D
:108F400010B5214A00219069C305204804D5416924
:108F5000022319434161911593699B0505D5436926
:108F60000124234343616302194393695B0505D5DB
:108F70004369082423434361E301194393691B05B3
:108F800005D543690424234343616302194393696C
:108F90009B0405D5436910242343436163021943AD
:108FA00093699B0304D5446920231C4344611943FE
:108FB0009369DB0305D54369402423434361A00241
:108FC0000143916110BD000000200240181D0020E7
:108FD00070B5054600F0BCFD0646184C0AE0681C5A
:108FE00008D0002D04D000F0B3FD801BA84201D9A9
:108FF000032070BDA069C007F1D1A069800701D529
:109000000220A061A069C00511D4A06980050ED41A
:10901000A06940050BD4A069000508D4A0698004AC
:1090200005D4A069800302D4A069C00303D5FFF76B
:1090300087FF012070BD002070BD000000200240AD
:1090400030B5084A084B08E00578140A55402A064E
:10905000D20D9A5A401C6240491E0029F4DCD043CC
:1090600080B230BDFFFF0000EE930108F8B5054661
:1090700004464035287C0026012808D001202874A9
:10908000206881688907890F01290ED101E002203B
:10909000F8BD0168C90708D0606D202108436065EC
:1090A0000126002028743046F8BD616DFF22013290
:1090B0009143022211436165C1688907890F0091BC
:1090C000C16889088900C1602068816892071143DE
:1090D000816000F03DFD07460EE000F039FDC01B49
:1090E0000A2809D9606D0221884310210843606570
:1090F000002028740120F8BD206880680028ECDB7F
:109100002068C168009A1143C160606D80088000CA
:10911000401C6065C5E70000F8B506460D464036C0
:10912000317C01290DD00121317401688A68520710
:1091300009D5416D20221143416500203074012082
:10914000F8BD0220F8BD174B6A68D80547109A424F
:10915000154C8A6A2B6812D05B035B0B1A438A6238
:109160002968490305D5A1680143A1600A20FFF7DA
:109170004BFD2868800312D5A06838430EE05B03DE
:109180005B0B9A438A622968490302D5A16881432F
:10919000A1602868800302D5A068B843A0600020C1
:1091A0003074F8BD0110000000270140406D704789
:1091B0000068006C7047000070B5040006D0606D58
:1091C000264600254036002802D006E0012070BD6A
:1091D000A5653574204600F0D3F8606DC00603D451
:1091E00021688868400705D5606D102108436065D7
:1091F0003574EBE7606DFF22013290430222104389
:10920000606588688207920F5B48012A02D10A686C
:10921000D2072BD1032362689B079A4205D05B4299
:109220009A4202D05B009A4209D10A6992009208E0
:109230000A6121680A6963681A430A610CE00A69D5
:10924000920092080A6181680F2292049143816022
:1092500081686268114381602168CA6818239A4353
:10926000CA602168CA68A3681A43CA60816801227B
:109270005206914381608168A28E5206114381603B
:1092800020688168C90004D4816801221207114353
:1092900081602068C168394A1140C1602069E16875
:1092A000022825D000200143204620300278037B8D
:1092B00052035B001A431143226B1143A2699203CC
:1092C0001143E269D20311432268D3681943D16084
:1092D000616A0A46FF3AC23A05D0A26A114322687F
:1092E000D3681943D16042780121012A02D00BE0F2
:1092F0000420D8E70078002823D0606D2022104396
:109300006065A06D0843A065E06B012820681FD050
:109310000169C90703D00169490849000161206852
:109320004169C908C900416120684169A26B1143C4
:109330004161A565606D80088000401C606500206B
:1093400070BD2068C26801231B041A43C260DBE7BA
:109350000269FF239B009A43026120680269236C23
:10936000A66C1A43636C33431A4302612068026996
:109370000A430261D3E70000002701401902FEFF03
:1093800010B586B0044614216846FEF76CFB0E4902
:109390002068884216D10D48416B42151143416344
:1093A000C16A01221143C162C06A6946104005903A
:1093B000202000900320019000200290052000074B
:1093C00000F0F8FA06B010BD002401400010024081
:1093D000F8B504464069254640350E4608280BD0AE
:1093E0002068C068C00709D0606D2021084360650F
:1093F000002028740120F8BD082700E00C2700F0A9
:10940000A7FB009011E0701C0FD0002E05D000F0DB
:109410009FFB0099401AB04207D9606D04210843B0
:109420006065002028740320F8BD20680068384279
:10943000E9D0606D01214902084360652068C16878
:1094400009058A0F0C21002A1BD12022125D002A57
:1094500017D10268120714D5826853070122002B26
:1094600008DB43688B434360606D130298431043ED
:10947000606506E0606D202318436065A06D1043B1
:10948000A065A069002801D1206801600020F8BD16
:1094900070B50446216800208968490721D4254613
:1094A0004035297C01291CD001212974E169012959
:1094B00004D02046FFF7EAFB002811D1616D0A4A6B
:1094C0001140FF220132114361650021A165297419
:1094D00022681C21116021688A6804231A438A606B
:1094E00070BD022070BD0000FEF1FFFF70B50546A3
:1094F00004464035287C012807D001262E742046DA
:10950000FFF758FB002802D00CE0022070BD204677
:10951000FFF78CFB002805D1616DFF2201329143DA
:10952000314361650021297470BD30B50146203199
:109530004A790023022A04D00422C2630B7101205D
:1095400030BD026814680E25AC43146002681468CC
:10955000640864001460446C1C2214400122154607
:10956000006CA54045604A7118460B7130BD70B55E
:109570000024014620314A79022A03D00421C16324
:10958000012418E0026813680E25AB4313600268DB
:1095900013685B085B001360436C1C2213400122BC
:1095A00015469D40036C5D604A7100220A71816B13
:1095B000002900D08847204670BD000070B5040027
:1095C00029D02068016849084900016013482568CE
:1095D00014212818FEF78EF980006064104820647A
:1095E00000202860626C1C210A4001239340226CF9
:1095F00053600B4A8032936A656C0D400F21A9407D
:109600008B439362E06220636063A063E063203475
:109610006071207170BD012070BD0000F8FFFDBFBA
:1096200000000240C06B7047F0B4016C0D68016827
:109630000C68466C1C2304221E401746B7402F427C
:109640000ED067070CD50C68A40602D40C689443AE
:109650000C60416C19408A40016C4A60016B1AE051
:109660000227B74002462F402032002F17D0A7070D
:1096700015D50C68A40605D40C680A25AC430C600B
:1096800001215171446C02211C40036CA1405960BE
:1096900000211171C16A002918D0F0BC08470827C1
:1096A000B7402F4212D0240710D50C680E25AC43CA
:1096B0000C60446C01211C400B46A340046C6360A9
:1096C000C163517100211171416BE4E7F0BC704737
:1096D00070B504003CD01F48256814212818FEF7F7
:1096E00009F9800060641C48206402212046203073
:1096F0000246417129681948E3680140A06866691B
:109700001843236933431843A3691843E369184393
:10971000236A1843084328600121A068890388420E
:1097200010D00D488030836A656C1C210D400F26D7
:10973000AE40B3438362656C63680D40816AAB40A1
:109740000B4383620020E06301215171107170BDF1
:10975000012070BDF8FFFDBF000002400F80FFFF39
:10976000F8B504468C46203001790025012909D03E
:109770000126067141790027012905D007710225CC
:109780002846F8BD0220F8BD02214171E763206838
:10979000016849084900016061462046FFF7ACFBBB
:1097A000206B00282068016801D00E2205E0042209
:1097B00091430160206801680A221143016020681A
:1097C000016831430160DBE770B5044600F0C0F981
:1097D0000546601C02D004480078241800F0B8F94F
:1097E000401BA042FAD370BD6C00002003484168C2
:1097F0000122114341600020704700000020024018
:10980000F8B5124D0746287C14460E46012807D0AD
:10981000012028740E48FFF7DBFB002802D00CE083
:109820000220F8BD00216961022F09D0012F09D063
:10983000002F09D00648FFF7CBFB00212974F8BDA3
:109840003460FAE73480F8E73470F6E7181D00203A
:1098500050C3000009494868C0070DD0EFF31080DD
:1098600072B6074ACA60074ACA6080F3108848681F
:10987000C00701D00120704700207047002002403F
:10988000EFCDAB8905040302F0B5002262E00123AD
:1098900093401C460C405CD09608304DB6007519BC
:1098A000AF68AC4695072E0F0F25B540AE463D403C
:1098B00005273F07B84201D1002719E0284FB842D9
:1098C00001D1012714E0274FB84201D102270FE050
:1098D000254FB84201D103270AE0244FB84201D1F5
:1098E000042705E0224FB84201D1052700E00627F2
:1098F000B740AF4212D11F4D2E68A6432E606E684E
:10990000A6436E60AE68A643AE60EE68A643EE6006
:109910006546AD687446A5436446A5600568560073
:109920000324B44025430560D508AD002D182E6AE8
:10993000AC465507EF0E0F25BD40AE4365462E627F
:10994000C568A543C56045689D4345608368A343DA
:109950008360521C0B46D34099D1F0BD00000140FA
:109960000004005000080050000C0050001000508F
:10997000001C00500004014010B510280AD0C11F7F
:10998000F93904D0802801D10AF074F910BD09F02A
:109990000DFD10BD09F058FA10BD000010B50449C6
:1099A0004A69024202D04861FFF7E6FF10BD00009D
:1099B00000040140FCB500230124A7E027462A4605
:1099C0009F403A406FD04D68012D05D0022D03D045
:1099D000112D01D0122D16D185680326AC465D00ED
:1099E000AE46AE406546B543AC46CE687546AE4021
:1099F00065462E43866046680D79BE43ED06ED0F41
:109A00009D4035434560C6685F000325BD40AE46B6
:109A1000AE4335468E68BE402E43C6604E68022E69
:109A200001D0122E14D1DE08B60036180196366A1F
:109A30005D07B446EE0E0F25B54000966646AE4370
:109A4000B4460D69009EB54066462E43019D2E62C8
:109A500006687546AE430D79AD07AD0FBD40354381
:109A600005604D68ED0050D52B4D6E6B26436E633F
:109A70009E082A4DB6007519AC46AD689E07360F94
:109A80000F27B740BD4305273F07B84201D1002744
:109A90001AE0234FB84201D1012715E0214FB84207
:109AA00002D1022710E030E01F4FB84201D1032756
:109AB0000AE01E4FB84201D1042705E01C4FB8420E
:109AC00001D1052700E00627B7402F436546AF6068
:109AD000184D2E684F689643FF0300D516432E603D
:109AE0006E684F689643BF0300D516436E60AE683C
:109AF0004F689643FF0200D51643AE60EE684F688C
:109B00009643BF0200D51643EE605B1C0A681546FB
:109B1000DA4000D052E7FCBD0010024000000140D6
:109B20000004005000080050000C005000100050CD
:109B3000001C0050000401400069084000D00120D2
:109B40007047002A01D08161704781627047000030
:109B500001488068704700006C00002070B5024624
:109B600040325378202B1CD11378012B19D00123BC
:109B7000137024245470046825689D43256004688C
:109B800025681E03B5432560046825680D432560DC
:109B90000068016819430160202050700020107097
:109BA00070BD022070BD70B5024640325378202B44
:109BB0001BD11378012B18D0012414702423537067
:109BC00003681D68A5431D6005682B680F263602D3
:109BD000B343090219432960006801682143016009
:109BE000202050700020107070BD022070BD70B534
:109BF000040014D0242120464030054641702068DE
:109C00000168490849000160204600F0B5F90021CB
:109C1000616469702163A9702970084670BD0120D4
:109C200070BD000070B5040006D025464035687848
:109C30000026002802D005E0012070BD2E702046CD
:109C400000F0B6F9242068702068016849084900CE
:109C500001600F2160680906884321680861216856
:109C60008A680120C00382438A60E1680129A168F3
:109C700008D021229202114322689160E1680229F2
:109C800002D005E00143F7E701212268C9025160D3
:109C900021684A680F4B1A434A602168CA688243A8
:109CA000CA60616920690843A16909020843216803
:109CB000C860216AE069084321680860206801687B
:109CC0000122114301606664202068702663AE7033
:109CD000002070BD00800002FFB5054604464035F7
:109CE000687883B0202875D10C98002814D00D987E
:109CF000002811D0287801286CD001202870FFF7A7
:109D000027FF0746012200901923D103204601F0C6
:109D100081FF002874D103E00120400260646FE0FD
:109D2000222068704020A870002666640C9860624B
:109D30000D98608566630E980090019704A90EC97E
:109D4000204601F0F3FE002801D02E7058E0618D0E
:109D50003448FF2905D9FF22228501231B060090E4
:109D600006E0618D21850090208D0123C2B25B0643
:109D70002046049901F03AFF009700220421204672
:109D80000E9B01F047FF00283AD12068406A616AC3
:109D90000870606A401C6062208D401E81B221857F
:109DA000608D401E6085608D00281FD000291DD168
:109DB00000970022802120460E9B01F02BFF0028F7
:109DC0001ED1608DFF2806D9FF22228501231B06A4
:109DD000009607E024E0608D20850096208D012309
:109DE000C2B25B062046049901F000FF608D002896
:109DF000C2D13A4620460E9901F033FF002802D026
:109E0000012007B0F0BD20682021C16120684268B0
:109E1000054B1A4042606970AE702E700020F0E76A
:109E20000220EEE70024008000E800FEFFB50546B2
:109E300004464035687883B0202872D10C980028F9
:109E400014D00D98002811D02878012869D001205D
:109E50002870FFF77DFE0746012200901923D103E9
:109E6000204601F0D7FE002871D103E00120400216
:109E700060646CE0212068704020A8700026666451
:109E80000C9860620D98608566630E98009001974B
:109E900004A90EC9204601F079FE002801D02E70D9
:109EA00055E0608DFF2805D9FF22228501231B067E
:109EB000009606E0608D20850096208D0123C2B2B9
:109EC0005B062046049901F091FE3A4620460E9921
:109ED00001F0EDFE00283AD1606A216800788862BE
:109EE000606A401C6062608D401E6085208D401E4F
:109EF00080B22085618D00291FD000281DD10097D8
:109F00000022802120460E9B01F084FE00281ED1F5
:109F1000608DFF2806D9FF22228501231B060096AB
:109F200007E024E0608D20850096208D0123C2B2D9
:109F30005B062046049901F059FE608D0028C4D1CB
:109F40003A4620460E9901F08CFE002802D00120EE
:109F500007B0F0BD20682021C16120684268054B30
:109F60001A4042606970AE702E700020F0E7022047
:109F7000EEE7000000E800FE10B5006809498842DD
:109F80000ED10948816B0122520591438163074C30
:109F900040212046FFF778FC80212046FFF774FC23
:109FA00010BD0000005400400010024000040050AA
:109FB00010B586B0044614216846FDF754FD1049DB
:109FC0002068884219D10F4CE16A02200143E16206
:109FD000E16A01400591C02000901220012101900A
:109FE000032002910491039069460748FFF7E2FCC1
:109FF000A06B012149050843A06306B010BD000015
:10A0000000540040001002400004005070B50400ED
:10A010000FD021681348086021681348086003CCFA
:10A0200041602068083C21688860FFF791FD054683
:10A0300008E0012070BDFFF78BFD401B292801D9E6
:10A04000032070BD2068C0680028F4D12068026930
:10A05000E1688A4201D0016101E004490160002009
:10A0600070BD0000CCCC000055550000AAAA00002D
:10A07000006802490160002070470000AAAA0000A1
:10A080000248816802788918816070476C0000205E
:10A0900010B50848002401684022114301602046A1
:10A0A00000F00AF8002801D0012401E000F026F8B1
:10A0B000204610BD0020024070B504460D4D7D20A5
:10A0C0002978C000FDF716FC01460B480068FDF733
:10A0D00011FC01F0C9F8002809D1042C07D2002294
:10A0E0002146401E00F032F800206C6070BD012057
:10A0F00070BD00006C000020780000200448416B17
:10A10000012211434163816B020411438163704753
:10A1100000100240002809DBC106C90E012088405A
:10A1200003490860BFF34F8FBFF36F8F7047000084
:10A1300080E100E0002805DBC106C90E012088404F
:10A14000014908607047000000E100E010B502F02E
:10A15000A9FC10BDBFF34F8F04490348C860BFF38B
:10A160004F8F00BFFDE700000400FA0500ED00E09E
:10A1700002480168021511430160704700700040F9
:10A1800002480168421511430160704700700040A9
:10A190000248016882151143016070470070004059
:10A1A000F0B5154A1368154D54152D6A2340ED0777
:10A1B000ED0F002B04D0002D02D01668A6431660C8
:10A1C0001668B608B600064316600D4807690426EF
:10A1D0003743076101290DD040BF20BF20BF01696F
:10A1E000B1430161002B04D0002D02D01068204340
:10A1F0001060F0BD30BFF2E7007000400000014089
:10A2000000ED00E0F8B5044600780027584D8006C0
:10A2100071D5574E403EB06BC00004D4B06BA90559
:10A220000843B063012753480168C90511D4016888
:10A23000821511430160FFF78BFC009005E0FFF7EA
:10A2400087FC0099401A642837D84A480068C0053E
:10A25000F5D532680321090560680A400140914242
:10A2600008D08103890F032904D13168890301D5FE
:10A270000120F8BD2A69032109040A4022D00840C0
:10A2800090421FD0207880061CD528692A6988430F
:10A290000121C9040A432A612A698A432A61286183
:10A2A000C0050FD5FFF754FC009008E0FFF750FC05
:10A2B0000099411A3048814201D90320F8BD28692C
:10A2C0008005F3D561688803800F032805D13268C3
:10A2D0000005824301400A43326028690322616815
:10A2E0001204114008432861002F04D0B16B0120F3
:10A2F00000078143B1632078C00705D0E868A168F2
:10A30000800880000843E8602078800705D5E86869
:10A310000C218843E1680843E8602078400706D5AF
:10A32000E86803218902884321690843E8602078AE
:10A33000000706D5E86803210903884361690843DB
:10A34000E8602088C00506D5E86803210904884331
:10A35000A1690843E8602078000606D5E868032173
:10A3600089048843E1690843E8600020F8BD0000E3
:10A37000401002400070004088130000F8B50E46FF
:10A38000050038D05E480068C007C00FB04214D244
:10A390005B4C20684008400030432060FFF7D8FB4A
:10A3A000074605E0FFF7D4FBC11B564881427AD827
:10A3B0002068C007C00FB042F4D12878524C800703
:10A3C00005D5E068F0218843A9680843E060287853
:10A3D000C00752D06868022806D0032807D0216839
:10A3E00001280AD0890504E02168890301E0216879
:10A3F0008901002903DB0120F8BD4907F9E7E1687D
:10A40000890889000143E160FFF7A2FB07466868FD
:10A4100002280AD0032814D001281ED029E0FFF713
:10A4200097FBC11B374881423DD8E0680007800F89
:10A430000228F4D121E0FFF78BFBC11B3148814298
:10A4400031D8E0680007800F0328F4D115E0FFF74A
:10A450007FFBC11B2B48814225D8E0680007800F95
:10A460000128F4D109E0FFF773FBC11B25488142A5
:10A4700019D8E0680007800FF5D121480168C907A5
:10A48000C90FB14217D90168490849003143016039
:10A49000FFF75EFB074608E005E0FFF759FBC11B2D
:10A4A0001848814201D90320F8BD15480068C0074B
:10A4B000C00FB042F1D12878400706D5E0680721E7
:10A4C00009028843E9680843E0602878000707D557
:10A4D000E0680721C90288432969C9000843E06090
:10A4E00000F03AF8E168094A0906090F515CC840D2
:10A4F0000749086007480068FFF7DEFDF8BD000067
:10A500000020024088130000001002407CA10108D6
:10A510007800002070000020044805490068C968E0
:10A52000044A4905490F515CC84070477800002033
:10A530000010024095A10108044805490068C96857
:10A54000044A8904490F515CC840704778000020D4
:10A550000010024095A1010870B51A4AD3681A4943
:10A560000C2018408D0004280CD04E00082810D074
:10A570000C2810D050680004410F0120C003491C72
:10A58000884070BD1068C00601D5084670BD2846D9
:10A5900070BD304670BD98020C4C000F205C1B0251
:10A5A0009C0FD368641CDB0301D5314603E01268BD
:10A5B000D20600D4294602F03AFA22460023FDF7DB
:10A5C000C3F970BD0010024000093D008CA10108D4
:10A5D000FEB505007ED0F74CE7680C20E668074022
:10A5E0000120000406402878C00747D0082F05D076
:10A5F0000C2F0AD101200004864206D12068800376
:10A600003CD568680028E5D038E00120696800047E
:10A61000814203D121680143216011E00523012219
:10A620001B0492049942216802D111432160F1E791
:10A63000814321602168014000912068904320609F
:10A64000686800280DD0FFF783FA009005E0FFF757
:10A650007FFA0099401A64287ED820688003F6D5D6
:10A660000CE0FFF775FA009005E0FFF771FA00992A
:10A67000401A6428F0D820688003F6D42878800730
:10A680005DD5E868810604D5226820210A4322604E
:10A6900088430923042F0DD00C2F01D1002E09D09F
:10A6A00000283CD02168994301432160FFF750FA0C
:10A6B000064628E02168490701D500288AD061684C
:10A6C0001F22120291432A6912021143616021681C
:10A6D000994300E091E101432160FFF73DFFE1680C
:10A6E00009060A0FB449895CC840B4490860B448F7
:10A6F0000068FFF7E1FC002874D120E0FFF728FA9A
:10A70000801B0228A8D820684007F7D560681F2161
:10A710000902884329690902084360600FE0206844
:10A72000400840002060FFF713FA064604E0FFF7F8
:10A730000FFA801B02288FD820684007F7D42878AA
:10A74000C00661D5002F0DD0A86900284BD0206825
:10A75000FF210131084300E0C6E02060FFF7F8F96F
:10A7600006462DE02068800502D5A8690028A5D0FE
:10A770006068072149038843296A0843606060686C
:10A78000297F0002000A090608436060286A410B1D
:10A790000120C003491C8840E16809060A0F864968
:10A7A000895CC8408549086085480068FFF784FCDB
:10A7B000002817D128E0FFF7CBF9801B0228A1D889
:10A7C00020688005F7D56068072149038843296A16
:10A7D000084360606068297F0002000A0906084398
:10A7E000606011E0E1E02168FF20013081432160D9
:10A7F000FFF7AEF9064604E0FFF7AAF9801B02282E
:10A8000072D820688005F7D428786E4E000724D5CA
:10A8100068690028306910D0012108433061FFF7D2
:10A8200097F9009005E0FFF793F90099401A022884
:10A830005AD830698007F6D50FE0400840003061F3
:10A84000FFF786F9009005E0FFF782F90099401ABA
:10A85000022849D830698007F6D42878400765D5A2
:10A8600000200290A06BC00006D4A06B0121090754
:10A870000843A0630120029053480168C90511D420
:10A880000168821511430160FFF762F9009005E04D
:10A89000FFF75EF90099401A642825D84A480068F5
:10A8A000C005F5D5FF20AA680130824203D1316985
:10A8B0000143316111E001218902002A07D00523FB
:10A8C0001B029A4203D132690A433261EFE73269CF
:10A8D00082433261306988433061A86800280FD014
:10A8E000FFF736F9009007E05EE0FFF731F90099D5
:10A8F000411A3648814257D830698005F5D50DE0B8
:10A90000FFF726F9009006E0FFF722F90099411AB7
:10A910002E48814248D830698005F5D40298002835
:10A9200004D0A06B012109078843A063686A00284E
:10A9300065D00C2F4CD0012636060228206805D0A1
:10A94000B0432060FFF704F905462FE0B0432060D4
:10A95000FFF7FEF8074604E0FFF7FAF8C01B0228ED
:10A9600022D820688001F7D4E96AA86AE26808431F
:10A97000296BFD231B049A4311430843E0602068C0
:10A9800030432060FFF7E4F8054604E0FFF7E0F805
:10A99000401B022808D820688001F7D52FE0FFF778
:10A9A000D7F8401B022801D90320FEBD2068800192
:10A9B000F5D424E0001002407CA1010878000020BA
:10A9C000700000204010024000700040881300001A
:10A9D0000128EAD0E06801210904AA6A01409142F5
:10A9E0000BD10F218904EA6A0140914205D103216C
:10A9F00089050840296B884201D00120FEBD002056
:10AA0000FEBD7047F7B5054604462035287882B06C
:10AA1000012814D001202870022068702168CA2003
:10AA200048622168532048622068806800264005FB
:10AA3000FF27002812DAFFF78BF800900AE00220C7
:10AA400005B0F0BDFFF784F80099411A7D20C000E1
:10AA500081421CD82068C0684007F3D42068816810
:10AA600001229202914381602068C16880221140D6
:10AA7000204A8918C160FFF76BF800900DE0FFF7DE
:10AA800067F80099411A7D20C000814205D92068ED
:10AA90004762032068702E70D2E72068C0684007C4
:10AAA000EDD521680398486120688168C908C9000C
:10AAB000816020688168049A114381600E480268B1
:10AAC000012109050A43026082680A438260206806
:10AAD000816801229203114381602068816812110C
:10AAE0001143816020684762012068702E70002049
:10AAF000A6E700007FFBFFFF0004014010B54020E7
:10AB00000DF02AFE10BD000010B504460068C068B4
:10AB1000400509D52046FFF7F1FF2068C168802273
:10AB20001140054A8918C1600120044900054861A7
:10AB300001202034607010BD7FFBFFFF0004014046
:10AB400000B599B00EA21AA1684601F033FF69461C
:10AB5000092001F0DFF81748407802280BD00528BB
:10AB600009D0042807D0032807D0072805D00DF006
:10AB700037F90DF0B3FC19B000BD0DF0D1F9F8E7CD
:10AB800048414C5F5254435F416C61726D41457660
:10AB9000656E7443616C6C6261636B3D3D3E416CFC
:10ABA00061726D20436F6D706C657465210A0000E1
:10ABB00025730000D00D002070B504460068816840
:10ABC0008025C90400290BDAC068C00508D52046D5
:10ABD000FFF7B6FF2168C8682840FF388238C86090
:10ABE0002068816889040BD5C068800508D5204697
:10ABF000FFF707FF2068C168054A29408918C1602E
:10AC0000012004494004486101202034607070BD77
:10AC10007FFDFFFF00040140F8B5054604462035DE
:10AC2000287801281DD00120287002206870226831
:10AC3000CA205062226853205062FF200130002653
:10AC4000FF2781421CD121688A6882438A6020687C
:10AC500081680122120391438160FEF779FF009021
:10AC600009E00220F8BDFEF773FF0099411A7D202C
:10AC7000C00081421BD82068C068C007F3D020E024
:10AC800020688168012252029143816020688168B6
:10AC9000120191438160FEF75BFF00900DE0FEF72B
:10ACA00057FF0099411A7D20C000814205D92068D4
:10ACB0004762032068702E70F8BD2068C068800766
:10ACC000EDD520684762012068702E700020F8BD25
:10ACD000F0B50C46FF219C460131254640268F05E4
:10ACE0001D4B20358A4204D161620168C869496CF4
:10ACF00005E00121490261620168086A896C8202EB
:10AD0000920E22704204520E62704206520EA270DF
:10AD1000020C49043240490CE27061608100890EE6
:10AD20002970014639401840E161606160460028A1
:10AD30000FD1207801F044FA2070607801F040FAD9
:10AD40006070A07801F03CFAA070287801F038FA21
:10AD500028700020F0BD00008080808010B5006861
:10AD60000B464068C021C94301400002000ECC04DC
:10AD7000D870E40E5C708C06A40E0904490F9C7018
:10AD80001970002A0AD101F01BFAD870587801F026
:10AD900017FA5870987801F013FA9870002010BDD7
:10ADA00030B50B460168896A596001680969490430
:10ADB000490C9960006804680F48214601408802E8
:10ADC0004D04800E18706D0E49065D70490E997025
:10ADD0006102490E40242140D970002A0AD101F0B5
:10ADE000EFF91870587801F0EBF95870987801F085
:10ADF000E7F99870002030BD7F7F7F00F8B5040030
:10AE000050D0254620356878002803D12870204688
:10AE100000F052F8022068702168CA204862216858
:10AE200053204862204601F0DFF9FF26042700285E
:10AE3000206802D046626F7034E081681D4A11407C
:10AE40008160216888686268A369104322691A4397
:10AE5000104388602168E0680861206801692289E0
:10AE60001204114301612068C16880229143C160CE
:10AE70002068C16C89088900C164E1696069014387
:10AE80002068C26C1143C1642068806880060BD4BE
:10AE9000204600F0C7F9002806D0206846626F708F
:10AEA000002028700120F8BD2068466201206870EB
:10AEB0000020F8BDBFFF8FFF10B500680849884229
:10AEC0000DD1084801690122920411430161002259
:10AED00011460220FFF73AF90220FFF72BF910BDC7
:10AEE0000028004040100240FEB5064604462036C9
:10AEF00030780B4601283ED001203070022070705F
:10AF0000184620300090206800278068002A34D03E
:10AF1000400600D4DF7019789D7809040D435978F4
:10AF2000DA780902120411430D430099D8690978AF
:10AF300009060D4305435869996905435868084354
:10AF400000902168CA204862216853204862FF208F
:10AF50005A6A01308021824245D122689368834336
:10AF600093602068C2680A40FF3A823AC260FEF7E6
:10AF7000EFFD019024E00220FEBD400600D4DF700A
:10AF8000187801F025F90504587801F021F900023C
:10AF90000543987801F01CF90543D878000405436F
:10AFA0000098007801F014F900060543D869C1E75C
:10AFB000FEF7CEFD0199411A7D20C00081422AD8BA
:10AFC0002068C068C007F3D02068C5612168009878
:10AFD000486420688168FF22013211438160206843
:10AFE0008168120130E02068826801235B029A4385
:10AFF00082602068C2680A401D495118C160FEF78E
:10B00000A7FD01900EE0FEF7A3FD0199411A7D20F6
:10B01000C000814206D92168FF2048620320707079
:10B020003770FEBD2068C0688007ECD520680562D7
:10B0300021680098886420688168012252021143C7
:10B0400081602068816812011143816009480268AB
:10B05000012149040A43026082680A438260216830
:10B06000FF2048620120707037700020FEBD000094
:10B070007FFDFFFF00040140F8B50546044620357A
:10B0800028780B4601280FD0012028700220687014
:10B09000002A0BD0D8789E780004064358780978A7
:10B0A00000024903084317E00220F8BD5878C106A2
:10B0B00003D5EF2108400A305870D87801F088F89D
:10B0C0000604587801F084F800020643987801F0ED
:10B0D0007FF806431878400306432168CA20486277
:10B0E000216853204862204601F07EF8002700289E
:10B0F00011D111480640206846602068C16880224E
:10B100009143C1602068806880060CD4204600F01E
:10B1100089F8002807D02168FF2048620420687061
:10B120002F700120F8BD2168FF204862012068705F
:10B130002F700020F8BD00003FFFFF00F8B5064665
:10B140000446203630780D46012822D00120307088
:10B1500002207070206800278068002A1BD04006FB
:10B1600000D4EF702978A878090408436978EA7850
:10B17000090212041143084300902168CA20486262
:10B18000216853204862204601F02EF8002837D16C
:10B1900016E00220F8BD400600D4EF70287801F0D8
:10B1A00017F80304687801F013F800020343A87845
:10B1B00001F00EF80343E878000403430093DCE752
:10B1C00017490098084021680860206881680122BA
:10B1D0009204914381602969E868084321688A687C
:10B1E000104388602068C16880229143C160206854
:10B1F000806880060CD4204600F014F8002807D0A0
:10B200002168FF2048620420707037700120F8BD6B
:10B210002168FF2048620120707037700020F8BD5F
:10B220007F7F7F0070B504460068C168A02291430B
:10B23000C160FEF78DFC7D260546F60006E0FEF7B0
:10B2400087FC401BB04201D9032070BD2068C06854
:10B250008006F4D5002070BD024801690222114326
:10B260000161704700E000E0094910B5401E8842C6
:10B2700001D9012010BD074C60610321081F01F0B6
:10B2800011FC0020A06107202061002010BD0000FB
:10B29000FFFFFF0000E000E0024801690222914345
:10B2A0000161704700E000E070477047F8B5816FBA
:10B2B0000446C66F0068826825461206102780354E
:10B2C000002A14DA212912D18168802291438160F9
:10B2D000E06E002808D0FEF728F9002804D0E06EC0
:10B2E000FEF7A0F920281DD0204601F03BF9206888
:10B2F0008168490614D5222E12D1816840229143DB
:10B300008160206F002808D0FEF70FF9002804D0D4
:10B31000206FFEF787F9202804D0204601F009F9B4
:10B320000020F8BD2F600320F8BD70B5040019D0CF
:10B330002420A0672068016849084900016020684E
:10B34000002505602068456020688560204600F083
:10B35000B5F980200551A567E56725666034257538
:10B36000002070BD012070BD10B5174A0168803003
:10B3700091420AD1026815A1092000F0EDFC19489C
:10B38000FF224168013218480DE0184A91420DD160
:10B39000026817A1092000F0DFFC124805221430D2
:10B3A00041685202184800F091FA10BD174A9142C4
:10B3B000FBD1026816A1092000F0CEFC0948283014
:10B3C000416880221948EEE7003801405553415248
:10B3D0005431204572726F7220436F64653D30783E
:10B3E00025580A0098000020141B0020004400404B
:10B3F000555341525432204572726F7220436F642C
:10B40000653D307825580A00981B00200048004010
:10B410004C50555341525431204572726F72204343
:10B420006F64653D307825580A000000901A0020AE
:10B43000F8B502680446D06911689668814B0546E4
:10B440001D402023002D6CD0F7077F4DFF0FBC4619
:10B450000D402F4379D02546C7078035002F06D0F1
:10B46000CF0504D5012717622A683A432A6082076C
:10B4700008D5F20706D0276802223A622A68042714
:10B480003A432A60420708D5F20706D0266804220C
:10B4900032622A68022632432A6002070AD50A4627
:10B4A0001A406646324305D02668082232622E686A
:10B4B00016432E60020508D54A0106D501222668EA
:10B4C000D20232622A681A432A602A68002A30D0DF
:10B4D000800606D5880604D5616E002901D0204675
:10B4E0008847286821688968490602D428210842CB
:10B4F00025D0204601F01DF820688168490619D53D
:10B50000826840218A438260206F002812D04F4910
:10B510008163206FFEF72BF800280AD0206F816B23
:10B5200006E0850611D58D060FD5616E77E02046C1
:10B530008847F8BD2046FFF717FFF8BD05E0204615
:10B54000FFF712FF00202860F7E7256E012D56D186
:10B55000C50654D5CD0652D51026166220688168DE
:10B5600025464906403500292ADA226F11684968C4
:10B570000904090CE1D02F8B8F42DED96983116851
:10B580000968890617D40168320191430160206877
:10B5900081684908490081602068816840229143A0
:10B5A0008160E3670020206620680168B143016084
:10B5B000206FFDF7BAFF288B698B401A81B21AE021
:10B5C000298B6A8B891A6A8B89B2002AB5D0002927
:10B5D000B3D00268FF252135AA4302602068826843
:10B5E000520852008260E36700202066606620688F
:10B5F0000268B24302602046FFF756FE9DE7C5028F
:10B6000008D5750206D50120000510622046FFF717
:10B610004CFE92E7050605D50D0603D5A16E00295F
:10B6200085D18AE7400688D5480686D51168204628
:10B630004024A143116083670021816600F020FA55
:10B640007BE700000F0800002001000459C4000837
:10B6500010B5040003D0A06F002802D007E001203D
:10B6600010BD002174200155204600F06FF8242001
:10B67000A06720680168490849000160204600F081
:10B6800079FF0128ECD0606A002802D0204600F043
:10B690004BFE206841680922D20291434160206834
:10B6A00081682A2291438160206801680122114348
:10B6B0000160204600F09EFE10BD000010B504465B
:10B6C00000681D4A1D4990420ED1886B01229204E8
:10B6D00090438863032189021948FEF7D5F8206F4B
:10B6E000FDF76CFF1D2012E0164B05221207984251
:10B6F00010D1486B01239B039843486303214902FF
:10B700001046FEF7C1F8206FFDF758FF1B20FEF72B
:10B7100001FD10BD0C4B9842FBD1886B01235B04EB
:10B72000984388630C211046FEF7AEF8206FFDF7B2
:10B7300045FF1C20EBE700000048004000100240DD
:10B74000000400500038014000440040F0B587B0CC
:10B75000054614216846FCF786F9554B2A680024F3
:10B7600054480221032604279A422ED1826B4B04AF
:10B770001A438263C26A0A43C262C06A6A460840C8
:10B780000590B002D3C269464B48FEF713F94C4E00
:10B790004A483060B4600520F460706074618020B5
:10B7A000B461306120203462F0613046FDF790FFD3
:10B7B000002801D0FDF7C2FB2E67002211461D2094
:10B7C000B562FEF7C3FC1D2036E03E4B9A4237D1EE
:10B7D000426B01239B031A434263C26A01231A434B
:10B7E000C262C06A6A461840059003204002D3C274
:10B7F000052069460007FEF7DDF8314F2F4848372E
:10B80000BC603C38FC6041C7FC6080203C61B86093
:10B810002020BC61786138460838083FFDF758FFA2
:10B82000002801D0FDF78AFB2F67002211461B205C
:10B83000BD62FEF78BFC1B20FEF77CFC07B0F0BD61
:10B84000214B9A42FAD1826B01235B041A43826333
:10B85000C26A01231A43C262C06A6A461840059050
:10B860000C20D3C2052069460007FEF7A3F8144E4A
:10B8700012489036B4601438F46081C6F4608020B9
:10B880003461B0602020B461706130460838083EF1
:10B89000FDF71EFF002801D0FDF750FB2E670022A8
:10B8A00011461C20B562FEF751FC1C20C4E70000C5
:10B8B0000048004000100240000400506C000240AC
:10B8C0001C1C0020003801400044004070B5C36FCC
:10B8D000202B27D100290BD0002A09D0012483680E
:10B8E0002403A34206D10369002B03D1CB0701D067
:10B8F000012070BD034660331C7D012C12D0012451
:10B900001C7500230366084C0368A34207D05C68DB
:10B91000240204D51C680125AD062C431C6000F0F0
:10B9200033FF70BD022070BD0048004010B50068B4
:10B930000849884201D108A103E00D49884204D199
:10B940000CA1092000F0E6F910BD10498842FBD196
:10B950000FA1F6E7003801405553415254312044BD
:10B960004D41525820636F6D706C6574650A00001C
:10B970000044004055534152543220444D415258E6
:10B9800020636F6D706C6574650A000000480040AC
:10B990004C5055534152543120444D41525820632C
:10B9A0006F6D706C6574650A000000007047FFB52C
:10B9B0000446806F83B017460D4620285ED1002DC7
:10B9C0000AD0002F08D0A168C001814207D12069A8
:10B9D000002804D1E80702D0012007B0F0BD2046BE
:10B9E00060300090007D012848D000980121017549
:10B9F0000020802108512120A067FEF7A9F82646E3
:10BA000040360190378277820120A168000381428D
:10BA100002D12069002805D02F460025009900207A
:10BA2000087511E00027F9E700228021204600F088
:10BA3000F1FE002815D1002F15D0216838788862D2
:10BA40007F1C708A401E7082708A019B00280698B5
:10BA50000090E9D100224021204600F0DBFE0028C2
:10BA600008D00320B9E728882168C005C00D886286
:10BA7000AD1CE6E72020A0670020AEE70220ACE77F
:10BA80007047000003484178491C41700AF054FA9D
:10BA9000FEE70000D00E002001688A69D2439207B9
:10BAA00001D400228A6200688169C943C90703D0B2
:10BAB000816901221143816170470000F7B5044696
:10BAC00000680E468069C043C0062BD42027254657
:10BAD000403520688069C043800612D5701CF8D0BC
:10BAE000FEF736F80299401AB04201D8002EF0D184
:10BAF000606C384360646F700020A870287001206B
:10BB0000FEBD21681020C8612068C7612046FFF78C
:10BB1000C3FF20684168044A11404160606C042101
:10BB20000843E7E70020FEBD00E800FEF8B5044644
:10BB3000164615481D46DAB20090079F002320469E
:10BB400000F054F83A462046069900F0B0F8002874
:10BB500018D12846F5B2012809D02168300A886238
:10BB60003A462046069900F0A2F800280AD120683B
:10BB700085620097002240212046069B00F04AF88B
:10BB8000002800D00120F8BD00200080F8B5044650
:10BB9000164615481D46DAB2C3020090079F20469C
:10BBA00000F024F83A462046069900F080F8002874
:10BBB00018D12846F5B2012809D02168300A8862D8
:10BBC0003A462046069900F072F800280AD120680B
:10BBD00085620097002280212046069B00F01AF81B
:10BBE000002800D00120F8BD00200080F0B50668D4
:10BBF000059C7568064F600D384385438805800DA8
:10BC0000110408431843204305437560F0BD00004C
:10BC1000FF63FF03F8B51D4617460E46044609E0CC
:10BC2000681C07D0FDF794FF0699401AA8420BD86C
:10BC3000002D09D020688169304688430FD000204C
:10BC4000B842EDD00020F8BD616C20200143616452
:10BC5000403460700020A07020700120F8BD0120E9
:10BC6000EEE770B516460D4604460FE0324629460B
:10BC70002046FFF723FF002801D0012070BDFDF70B
:10BC800067FF801BA84208D8002D06D02068806975
:10BC9000C0438006EAD4002070BD616C20200143BF
:10BCA0006164403460700020A0702070E5E770B5DA
:10BCB00016460D46044611E0324629462046FFF757
:10BCC000FDFE002801D0012070BD681C06D0FDF7E4
:10BCD0003FFF801BA84208D8002D06D0206880694D
:10BCE000C0438007E8D4002070BD616C2020014370
:10BCF0006164403460700020A0702070E3E70000B1
:10BD000010B50348FFF794FB014800F0E7FD10BDB4
:10BD1000901A002010B50C460649897E814207D34F
:10BD20002046FBF7CCFE82B22146034802F096F98A
:10BD300010BD0000540C00209800002010B5044BEA
:10BD40009B7E834202D3034802F088F910BD0000B5
:10BD5000540C0020980000200FB410B50446114880
:10BD6000807EA04208D30398FBF7A9FEDA2807D902
:10BD70000DA10920FFF7CEFF10BC08BC04B0184786
:10BD8000084804AA7C30039900F028FE05487C305E
:10BD9000FBF795FE034982B27C312046FFF7CEFFC8
:10BDA000EAE70000540C00204C6F675072696E7413
:10BDB000663D3D3E4D65737361676520746F6F200E
:10BDC0006C6F6E670A0000001CB5002118480091D6
:10BDD000164A01910260C16312054260816001232D
:10BDE0000222036182630246C16020321170FF2487
:10BDF0005170C23444628162117301638161042213
:10BE000043634261C161FDF7D7F9002801D0FDF716
:10BE100095F808480090C001019069460448FDF774
:10BE20007BF9002801D0FDF789F81CBD00240140F2
:10BE3000D81900202000001408B50C48016B01221D
:10BE400011430163006B10400022009011460A204C
:10BE5000FEF77CF90A20FEF76DF9002211460B204F
:10BE6000FEF774F90B20FEF765F908BD00100240DB
:10BE7000F0B587B014216846FBF7F5FD3848C26A73
:10BE800004210A43C262C26A0A400592C16A0125BE
:10BE90002943C162C16A29400591C26A02210A434D
:10BEA000C262C06A2F4C084005273F070590002258
:10BEB00021463846FDF745FE00222B492B48FDF769
:10BEC00040FE012220212948FDF73BFE009400247A
:10BED00001950294694638460394FDF76BFD1026E0
:10BEE00001946946384600960294FDF763FD802070
:10BEF00000901F480190694602943846FDF75AFDAC
:10BF0000184802941F300090694601950394174821
:10BF1000FDF750FDA803009011200190029469469E
:10BF200003941248FDF746FD280200901148019045
:10BF3000694602943846FDF73DFD0F480190694679
:10BF4000009602940948FDF735FD002211460720AE
:10BF5000FEF7FCF80720FEF7EDF807B0F0BD000093
:10BF6000001002400280000001C0000000040050E8
:10BF700000001110000031100000211010B513480E
:10BF800011490160124941600021816001614161F4
:10BF900081610122C161C2600162FDF743FE002898
:10BFA00001D0FCF7CBFF00210848FDF7D7FD0028A2
:10BFB00001D0FCF7C3FF00210448FDF7F4FD002881
:10BFC00001D0FCF7BBFF10BD00540040341A002024
:10BFD000140E000010B508480649016006214160B2
:10BFE0000649C1608160FEF711F8002801D0FCF716
:10BFF000A5FF10BD00300040801A0020FF0F000098
:10C0000010B50C480A490160E12149024160002154
:10C010008160C160016181610C2201624261416203
:10C02000FFF716FB002801D0FCF788FF10BD0000C9
:10C0300000480040901A002010B50F480D490160DB
:10C040007F2282600021416001614161FF228161A4
:10C05000C260C161FEF7D2FE002801D0FCF76EFF7E
:10C06000042209210448FEF7CDFC002801D0FCF78A
:10C0700065FF10BD00280040F41C002010B50C48DE
:10C080000A490160E1214902416000218160C160EB
:10C0900001618161C1610C22016242614162FFF76D
:10C0A000D7FA002801D0FCF749FF10BD0038014045
:10C0B000141B002010B50C480A490160E121490217
:10C0C000416000218160C16001618161C1610C2218
:10C0D000016242614162FFF7BBFA002801D0FCF720
:10C0E0002DFF10BD00440040981B002010B50549ED
:10C0F000002208704A600E2803D0002102200CF0B4
:10C10000C1FD10BDAC0F002000B59BB000920B46E6
:10C11000024605A101A800F04DFC01A90C200BF07E
:10C120002DFD1BB000BD000025642C25732C25645B
:10C130000000000010B507A10920FFF7EBFD0CA1DE
:10C140002B200BF01BFD0B48082241781143417056
:10C1500010BD00004D6F64756C6520656E7465726E
:10C1600020666C69676874206D6F64650A00000062
:10C17000342C3000B80F002010B507A12B200BF095
:10C18000FDFC06A10920FFF7C5FD0B48F722417809
:10C190001140417010BD0000312C30004D6F6475AE
:10C1A0006C6520656E746572206E6F726D616C20B7
:10C1B0006D6F64650A000000B80F0020704770477B
:10C1C00001090A2200075143000F4018C0B270470E
:10C1D0000022014602E00A39C9B2521C0A29FAD2E9
:10C1E0001007000E0843704770B504460068C16828
:10C1F000490613D40021C943C160FDF7A9FC7D267F
:10C200000546F60006E0FDF7A3FC401BB04201D94D
:10C21000032070BD2068C0684006F4D5002070BDC2
:10C2200010B50348FEF770FC0148FEF7C5FC10BDD1
:10C23000F41C0020704710B5FDF722FF10BD000070
:10C2400030B59BB034216846FBF70DFC142115A8CE
:10C25000FBF709FC20210DA8FBF705FC1A48016833
:10C260000324E402A143C21489180160FDF790FF82
:10C2700016480169A14301610E200090FF200130A2
:10C28000029000240125102009940490039505953F
:10C290006846FEF79DF90F2015909020179016958F
:10C2A00018940021199415A8FEF768F82F2012940D
:10C2B0000D9028040E900F94109411940DA8FDF782
:10C2C000A1FF1BB030BD00000070004040100240D4
:10C2D00010480168821511430160C1680E4A11407F
:10C2E000C16001680D4A1140016081684908490038
:10C2F000816001680122920491430160C168FD22BE
:10C3000012049143C160002101610649044888601C
:10C3100070470000001002400C40FF88F6FFF6FE58
:10C320000078000800ED00E010B5818CC90707D047
:10C3300001684A6801235B049A43836A1A434A608E
:10C34000818C890707D501684A6801231B049A4339
:10C35000C36A1A434A60818C490707D501684A6855
:10C3600001239B049A43036B1A434A60818C09079B
:10C3700007D501684A680123DB039A43436B1A43DC
:10C380004A60818CC90607D50268916801231B03A6
:10C390009943836B19439160818C890607D50168A5
:10C3A0008A6801235B039A43C36B1A438A60818CBA
:10C3B000490612D503685A6801210905046C8A43AD
:10C3C00022435A60026C8A4207D1026851680323F3
:10C3D0005B059943436C19435160818C090607D56D
:10C3E00001684A680123DB04806C9A4302434A6077
:10C3F00010BD0000F8B50446002680300660FDF749
:10C40000A7FB054620680068124F000709D50121E7
:10C410002B46002249052046009700F0FBF9002832
:10C420000DD12068006840070BD501212B46002262
:10C4300089052046009700F0EDF9002801D003207F
:10C44000F8BD2020A067E0672666603426750020CE
:10C45000F8BD0000FFFFFF0110B5806A0022014611
:10C4600040314A834A82FEF77FFF10BD70B5846A6F
:10C47000A06FE56F2168896800260906002906DAA1
:10C48000212804D152200653204600F06BF8206882
:10C490008068400606D5222D04D15A200653204636
:10C4A00000F047F8204680300168102211430160F7
:10C4B0002046FEF759FF70BD10B501460968806A35
:10C4C000096889061CD400225A210A5201680A68A8
:10C4D000FF2301339A430A6001688A6852085200B8
:10C4E0008A6001688A6840239A438A602021C16774
:10C4F000016E012904D101680A6810239A430A6079
:10C50000016E012902D0FFF711FA10BD5821095A16
:10C51000FEF7CAFE10BD10B5806A016E012902D077
:10C52000FFF744FA10BD5821095A4908FEF7BCFE2E
:10C5300010BD01680A68FF2321339A430A6001682D
:10C540008A68520852008A60016E012904D101688C
:10C550000A6810239A430A602021C16700210166FE
:10C560004166704701680A68C0239A430A60202127
:10C5700081677047F8B50446016880682269E669FA
:10C5800010436269002532431043754B0A68754EAB
:10C59000324002430A60206841680322120391433B
:10C5A000E268114341602168A069994201D0226A82
:10C5B00010438A680B263602B24302438A606A49F6
:10C5C00022686A488A420CD1C0688007800F06D072
:10C5D00001283FD002283BD0032827D124E001279F
:10C5E00025E063498A420AD1C0680C2108402DD059
:10C5F00004282FD008282BD00C2817D114E05D492F
:10C600008A4223D05C498A4220D09A420ED1C16826
:10C6100003208002014019D001208002091A19D09C
:10C62000091A15D0814201D1082700E010274F498F
:10C630005248403986009A4232D1002F0CD0022F46
:10C640000DD0042F10D0082F7FD126E00027EEE771
:10C650000227ECE70427EAE7FDF75EFF06E009683A
:10C66000C90605D4304603E0FDF776FF002872D0F6
:10C67000626851005118814267D81103814264D326
:10C68000010E06025008002330185941FBF75CF9EF
:10C6900003210902411A3A4A55E00120C003E7E7A5
:10C6A0000122E369D20393422BD13B0000F0D7F97A
:10C6B0000906090C4D114D4D4D274D00FDF72CFF7E
:10C6C00009E0FDF739FF06E00968C90605D43046E0
:10C6D00003E0FDF741FF00283DD0616840004A08B3
:10C6E0008018FBF707F980B202462649103A8A42C1
:10C6F0002BD8491C01400007400F084329E0104691
:10C70000EBE73B0000F0ABF90906090C21122121EF
:10C7100021232100FDF700FF0AE0FDF70DFF07E0F0
:10C720000968C90606D4304604E00EE0FDF714FFA0
:10C73000002810D061684A081018FBF7DBF880B2B7
:10C740000146104A1039914203D9012503E01046F1
:10C75000F0E72168C86000206066A0662846F8BD42
:10C7600000480040F369FFEF0038014040100240EC
:10C7700000440040004C00400050004000093D00D3
:10C78000FFFC0F00EFFF0000F8B5044641654030A4
:10C7900000262746028380373E602220E067254638
:10C7A000206F603500281CD01749C162216F1748DF
:10C7B0000863216F16484863206F8663236F606D9E
:10C7C0009C4613462168024660462431FCF7C8FFA8
:10C7D000002806D0102038602E752020A067012088
:10C7E000F8BD2E7520680168FF22013211430160F7
:10C7F000206881680122114381602068816840229D
:10C80000114381600020F8BDB9C4000817C50008B5
:10C810006DC40008FFB581B005460F46044660357B
:10C820000A9E39E0701C37D0FDF792F90499401A3E
:10C83000B04222D8002E20D02068016849072BD5AD
:10C84000C069C043000527D401202168C0020862E6
:10C8500020680168FF22A13291430160206881684D
:10C860004908490081602020A067E067803420608B
:10C8700000202875032005B0F0BD20680168FF2264
:10C88000A1329143016020688168490849008160B4
:10C890002020A067E067EBE72068C169384688433D
:10C8A00005D0002103988142BCD00020E3E701219C
:10C8B000F8E7000010B50348FEF7BAFD014800F0A4
:10C8C0000DF810BD141B002010B50348FEF7B0FD95
:10C8D000014800F003F810BD981B002010B5016856
:10C8E000CA69D20603D510220A620CF065FA10BD9F
:10C8F0000178012907D1002101700269002A02D0C4
:10C9000001894068104770470A2801D230300AE098
:10C9100001460A391A2901D8373004E00146253981
:10C920001A2902D83D30C0B270472420704710B594
:10C93000034640780A4601090A2400076143000FB4
:10C940000818C0B2FFF7E0FF1070987801090007DF
:10C950006143000F0818C0B2FFF7D6FF5070D878B7
:10C96000010900076143000F0818C0B2FFF7CCFFB0
:10C9700090701879010900076143000F0818C0B2D0
:10C98000FFF7C2FFD0705879000930301071587924
:10C990000007000F303050719879000930309071E5
:10C9A00098790007000F3030D071002010720820F5
:10C9B00010BD00000FB410B504A9074B02AA0398DC
:10C9C00000F0B8FC044602A9002001F051F820460E
:10C9D00010BC08BC04B0184771DA000837B514461B
:10C9E0000846064B6A46214600F0A4FC0446694608
:10C9F000002001F03DF820463EBD000071DA00083D
:10CA00002021020C01D010211046020A01D010464C
:10CA10000839020901D01046091F820801D01046CA
:10CA2000891E420801D0881E7047081A7047F8B561
:10CA3000040C8BB2264682B25E430D0C1046370CB6
:10CA40005843360480190021794116466E43370C4D
:10CA500036048019794126466E438919F8BD30B4F1
:10CA60007446641E2578641CAB4200D21D46635D8B
:10CA70005B00E31830BC18474900CA0202431000AB
:10CA800000D004204A0D01D001221043044A490D70
:10CA9000914201D102210843012800D105207047AD
:10CAA000FF0700008307FF22DB0E9A408907090E6B
:10CAB0009940002808DB830809489B001B18186868
:10CAC00090430843186070470007000F0838830838
:10CAD00004489B001B18D86990430843D8617047ED
:10CAE00000E400E000ED00E0004870478400002012
:10CAF000F7B596B014460021A160D160179909914D
:10CB00004D00CD496D088D4205DC179961602060AC
:10CB1000002019B0F0BDC949C94E8D4238DAD3277B
:10CB200009997F050029C74A1799334617DDFBF796
:10CB3000A4F9B54206D0C44AC44BFBF79EF9616024
:10CB4000206009E03A46C14BFBF797F9C04AC14B58
:10CB5000FBF793F961602060012019B0F0BDFBF78D
:10CB6000E7F8B54206D0B84AB84BFBF7E1F8616088
:10CB7000206009E03A46B54BFBF7DAF8B44AB54B0A
:10CB8000FBF7D6F8616020600020C04319B0F0BD0B
:10CB9000B1498D42179977DC490049080746AF4AE9
:10CBA000AF4B0491FBF778F90022AE4BFBF7C0F8CE
:10CBB000FBF790FF0A90FBF76DFAA24A3346039108
:10CBC0000290FBF769F93A46049BFBF75CF90646CD
:10CBD0000F469D4A9D4B03990298FBF75DF92A0D7C
:10CBE00001250C9232463B46FBF74DF9616020600F
:10CBF000032D39D04800410D0C98401A690169187D
:10CC00001139814230DA98492801794408960D900B
:10CC1000081804974368026803990298FBF73CF9E7
:10CC200002460B460791069004990898FBF725F9F0
:10CC300006460F46049B089AFBF725F9079B069AC0
:10CC4000FBF71BF905918949049079440D98401828
:10CC5000C368826803990298FBF71EF9059B049A42
:10CC6000FBF70BF96D1CBDE70998002809DA0122D2
:10CC70006068D207504060600A9819B04042F0BD29
:10CC800002E00A9819B0F0BD09030122090B120550
:10CC90000E9089181798109140007549400D401862
:10CCA0004111C006C00E0D9113902021081A149056
:10CCB0000020069005250790139800280D980CD0A9
:10CCC000401982006B487844875813998F40101898
:10CCD00041681498C1400F4304E040198100664840
:10CCE0007844475810993846FFF7A1FE06460A9146
:10CCF00038460E99FFF79BFE8A190A9B8A4201D299
:10CD0000012100E00021C9188C46AF00694679185E
:10CD10008B684E68C318834201D2012000E00020D6
:10CD200096193618002802D0964202D903E096429E
:10CD300001D2012000E00020624612184E606846D1
:10CD40008B60C25128466D1E0028B5DC0121029877
:10CD500049074018800F1390029805998000039EA0
:10CD6000049D0B91FBF796F9074630460891FBF7B7
:10CD7000A5F91D22D243FBF76FF910900F912846B9
:10CD8000FBF79CF93D22D243FBF766F90E900D911B
:10CD90000B98FBF793F95D22D243FBF75DF90B91FA
:10CDA0000C900D9B0E9AFAF7C3FF0F9B109AFAF79F
:10CDB000BFFF3A46089BFAF7BBFF00250E463A46EE
:10CDC0002846089BFBF759F80F9B109AFBF755F87C
:10CDD0000D9B0E9AFBF751F80B9B0C9AFBF753F83F
:10CDE000264A274BFBF758F807460D91254A264B54
:10CDF00031462846FBF750F83A460D9BFAF798FF64
:10CE00000F4615220C9092061D4B31462846FBF723
:10CE100043F83B460C9AFAF78BFF179A002A05DA7B
:10CE2000139A524213920122D2075140616020604E
:10CE3000139819B0F0BD0000FB21E93F7CD90240F6
:10CE4000FB21F93F000040543163621A61B4D03DC8
:10CE50007370032E8A19A33BFB21394183C8C96D26
:10CE6000305FE43F0000E03FB2D6000072D6000021
:10CE70000BFCFFFF26D600000CD60000182D4454F2
:10CE8000FB21F93D3326A611460B113CF0B51FB42A
:10CE90004E00F9207608800584B00F46864204DAF9
:10CEA0000498FBF717FE002838D0049A3B4610463A
:10CEB0001946FAF7F1FF044602462C480D460B4688
:10CEC0000621784400F05CF822462B46FAF7E4FF8E
:10CED000019100903946079B069A0498FAF7DCFF07
:10CEE0000746029120462946019B009AFAF7D4FF93
:10CEF0003A46029BFAF7C1FF074600220091D2434F
:10CF000020462946FBF7A8F8194A96420ADA3A461B
:10CF1000009BFAF7B2FF0022164B23E000201549D0
:10CF200009B0F0BD144A964202DD0024134D03E01F
:10CF300001225205B51A002422462B46FAF79DFF1E
:10CF40000646019122462B4600200A49FAF795FF32
:10CF50000D4604463A463046009B0199FAF78DFF8C
:10CF600022462B46FAF78FFF09B0F0BDC2D300006E
:10CF70003333D33F0000F03F0000E93F0000D23FD1
:10CF8000F8B504464F1EC8000838211815461E463D
:10CF9000086849683A4606239A4310D02A46334621
:10CFA000FAF77AFF3A46D200083AA3181A687F1EA9
:10CFB0005B68FAF7BDFE06223B469343EED1022F93
:10CFC00023D0042F11D0062F2FD12A463346FAF74B
:10CFD00063FFE36AA26AFAF7ABFE2A463346FAF722
:10CFE0005BFF636A226AFAF7A3FE2A463346FAF722
:10CFF00053FFE369A269FAF79BFE2A463346FAF724
:10D000004BFF63692269FAF793FE2A463346FAF723
:10D0100043FFE368A268FAF78BFE2A463346FAF725
:10D020003BFF63682268FAF783FEF8BDF0B51FB4D2
:10D03000054648000C46F9214008890586B088421B
:10D040000BDA28462146FFF717FD042801D100F02E
:10D0500089F8284621460BB0F0BD2A4623461046E3
:10D060001946FAF719FF06460F462A462346FAF7ED
:10D0700013FF00902548019132463B460521784434
:10D08000FFF77EFF029010980391002829D0204AD4
:10D09000204B01990098FAF7FFFE0490059168462D
:10D0A0000FC8FAF7F9FE002201910090D2430999C6
:10D0B0000898FAF7D1FF019B009AFAF7DEFE324694
:10D0C0003B46FAF7E9FE099B089AFAF7D6FE059B5C
:10D0D000049AFAF7D2FE2A462346FAF7D4FE0BB09A
:10D0E000F0BD0B4630463946029AFAF7D5FE084A9B
:10D0F000084BFAF71DFE019B009AFAF7CDFE2A466F
:10D100002346FAF715FE0BB0F0BD000006D3000071
:10D11000495555555555C5BF002210B51346104603
:10D120000149FAF721FF10BD0000F03F10B50122C0
:10D13000FAF792FF10BD10B5FAF7FAFD10BD002204
:10D1400010B5134610461146FAF70EFF10BD000049
:10D1500010B50721024A00200907FAF77DFF10BD2C
:10D1600001030000034A10B500201107FAF774FF0D
:10D1700010BD000001FDFFFF01480068704700007E
:10D180008400002002E008C8121F08C1002AFAD15A
:10D1900070477047002001E001C1121F002AFBD137
:10D1A00070470000014908607047000084000020BB
:10D1B000F0B51FB486B00998089A030D0021024308
:10D1C00014D05148514A1818504305141198012899
:10D1D00010981AD0281A401C00264D4F4D49009631
:10D1E00001910490002812DA444211E011980124C0
:10D1F00049A3012801D11098C1430698119A84606F
:10D200000360C26041600BB0F0BD4042E4E70446F9
:10D21000210500203F4A001C51410391029012E079
:10D22000E00707D032463B4601990098FAF734FEF2
:10D230000191009032463B4610461946FAF72CFE03
:10D2400006460F466410002CEAD10498039B002880
:10D25000029A0999089806DAFAF71EFE019B009ACD
:10D26000FAF71AFE05E0FAF77FFE019B009AFAF73B
:10D270007BFE04460E460022284BFAF787FF03D8B0
:10D280000020C043014607E00022254B20463146DE
:10D29000FAF74EFDFBF700FA102409E0002C0ADB38
:10D2A0000A220023FAF750FB079B30321A55641EFE
:10D2B00002460A43F2D11122641C079B121B1C195F
:10D2C000119B012B03D0012308430ED10AE0084330
:10D2D00004D0112010900020119077E71098151AB3
