:020000040800F2
:1078000050430020D578000851BA0008BDB50008E3
:107810000000000000000000000000000000000068
:10782000000000000000000000000000C9BA0008CD
:10783000000000000000000053BA000881BD0008ED
:10784000E7780008E7780008B5BA0008E77800088C
:10785000E7780008E7780008E77800081D8F00083F
:1078600000000000E7780008C98E0008D98E0008E3
:10787000E7780008E7780008E7780008E77800086C
:10788000E7780008E7780008E778000800000000C3
:10789000E7780008E7780008E7780008E77800084C
:1078A000E7780008E7780008E7780008FDC30008DB
:1078B00011C40008E1B5000800000000000000004D
:1078C0000348854600F004FF00480047693101087D
:1078D000504300200448804704480047FEE7FEE785
:1078E000FEE7FEE7FEE7FEE719BE0008C1780008E4
:1078F00030B50B46014600202022012409E00D4648
:10790000D5409D4205D31D469540491B25469540CF
:1079100040191546521E002DF1DC30BD70B5002413
:107920002546002801DA01244042002901DA012518
:107930004942FFF7DDFFAC4200D04042002C00D0AE
:10794000494270BDF0B51FB40646002082B005461E
:107950004024019100901BE0019922460F463046D9
:1079600000F05AFC049A059B801A994110D31046E6
:107970001946224600F040FC361A8F4101972246F4
:1079800001200021009F00F037FC38184D41009085
:107990002046641E0028DFDC019B00982946324601
:1079A00007B0F0BD38B50446C0681821401E4843F2
:1079B000A16840183C214843616840183C21484375
:1079C0002168451860690C214843216940186921E4
:1079D000C900401A3021FFF7A1FF114A5043421954
:1079E000084600921A2902DB0E49511800910C2119
:1079F000FFF794FF0C4A5043009A801800900B4800
:107A000006E0491E425C074B5A43009BD218009285
:107A10000029F6DC2146684600F030FC009838BDAD
:107A2000801F8607805101008033E10128A50108ED
:107A300003460B439B0703D009E008C9121F08C087
:107A4000042AFAD203E00B780370401C491C521E32
:107A5000F9D27047D2B201E00270401C491EFBD23D
:107A600070470022F6E710B513460A460446194649
:107A7000FFF7F0FF204610BD30B505462A460B46FD
:107A800010781C78521C5B1C002801D0A042F7D053
:107A9000002C03D0002802D06D1CEFE7284630BD33
:107AA00010B5044605E00B780370401C002B00D095
:107AB000491C521EF7D2204610BD421C0178401CC2
:107AC0000029FBD1801A704703460A780270401CD7
:107AD000491C002AF9D118467047F7B582B00F4605
:107AE0000026029C04F08EFD00900068019025782D
:107AF000641C002D05D000F0B3FB0068405DC0079A
:107B0000F5D12B2D02D02D2D1CD0641E0098002104
:107B1000016039462046049A00F0EAFB0146002F36
:107B200004D03868A04201D10298386000980068FB
:107B300002280BD00098019A0260700506D54842D1
:107B400005B0F0BD012080020643DFE70846F7E7F5
:107B500070B5064604F056FD046805460A22002169
:107B6000304600F06BFC2C6070BD70B5064604F02A
:107B700049FD046805460A220021304600F05EFCFB
:107B80002C6070BDF8B502464A40D40F42004B004D
:107B900052085B089A4202D20246084611464A0041
:107BA00023D0C30D4A00DDB2120EAD1A202D35DAF6
:107BB00049020126490AF6058A19002C00D05242D2
:107BC00020214F1B1146B9402A411018C20D9A427C
:107BD00021D0002C17D0012D08DCDA05801AD20F35
:107BE0008019D207DBB200F069FCF8BDDA05801A13
:107BF000012340001B06C01880185A428018CA0F83
:107C00001043490007E04908C2071143DA05801A0A
:107C100080194008801800F049FCF8BD610001227D
:107C2000511A001BF7E70122D2075140AAE70122AF
:107C3000D2075040A6E7024670B54A40D30FDB0793
:107C400040002DD04A002AD0010E140E000212026C
:107C50000919400A520A8418E50104465443000AEF
:107C6000120A2E045043A4194219200CC543AA1825
:107C7000120C0125AD03521C521912047F39240441
:107C800000D0521C104301D44000491EC2B20C0661
:107C9000C0092018401C4008802A02D003E00020C0
:107CA00070BD40084000002900DA0020184370BD74
:107CB00070B502464A40D50F40004A00ED07400823
:107CC0005208002814D0002A12D0C40DD30D41024E
:107CD0000120C0055202490A520AE41A0918121872
:107CE0007D34914201D3641C00E04900002C01DA8C
:107CF000002070BD0023914201D3891A034340083C
:107D000049000028F7D100290AD0914202D101216F
:107D1000C90705E0914201D2012101E00121C943D7
:107D2000E005C018401900F0C1FB70BDF0B5074672
:107D30000846584087B0C00F049048000E465900CE
:107D400040084908BC1A884105D2384631461E46CB
:107D500017460B4602465800400810434CD0300DE1
:107D6000039040055900400D490D0590401A0290BE
:107D7000402872DA18030121000B0905084301901D
:107D800004980092002805D00199524200208841B1
:107D900000920190029840210A1A0199009800F07F
:107DA0002BFA05460C466B4607CB00F046FAC01985
:107DB0007141039A0E0D0023D71756401A467A4098
:107DC000164344D0049A002A2DD0029A012A039A1D
:107DD00015DC1205C01A914101263605001C7141BF
:107DE000D20F059ED2070093019202962A4623469F
:107DF00000F0AAFB07B0F0BD38463146FAE7160599
:107E0000224A0F46B218C01AB74101210905001CC9
:107E10004F4100187F41114618187941E20F104375
:107E20006D19644113E0E2076D0815436408C20749
:107E30001443039A01261205C01A91413605001C0D
:107E40007141CE07400830434908C01851412A46C5
:107E5000234600F06CFBCDE7FFE7049801224000C9
:107E6000C117121A00238B4104983146C417381ADF
:107E7000A141EEE730B40124E407634030BC55E78C
:107E800030B40124E407614030BC4FE70000E0FF5C
:107E9000F0B51FB488B00B9909980024484009999F
:107EA000C00F490049080991C0070B99009049008B
:107EB00049080B9109990898A64608431CD00B99CC
:107EC0000A98084318D0099801244000420D480040
:107ED000410D099824050003000B204309900B98DD
:107EE0000003000B20430B9050181C49401800223F
:107EF00001901446104605E0002001460DB0F0BD8B
:107F0000032801DA034600E003239C46C11A0AAEA7
:107F10000AE05F0008ADED5B4F00F75B7D43002793
:107F2000AA187C41491C5B1E6145F2DD410004AB8F
:107F30005A522104120C0A43240C401C0828DFDB8F
:107F4000019802900099704601910090059B049A57
:107F50000799069800F0F8FAD0E700000DFCFFFF43
:107F6000F0B50C465C4085B0E40FE40703944C0088
:107F700000266408590094464908024602962243A6
:107F800021D062460A431ED06200570D4A000E03FC
:107F90002303550D012402462C492405781B1B0B95
:107FA000360B401823432643614600901C46501A66
:107FB000B44103D30098401C009002E0921800984E
:107FC0005B41002803DA0020014605B0F0BD002027
:107FD000012109050746864611E064461D46141B2B
:107FE000B54106D36546521BB341744607430C4363
:107FF000A646CD0740084908284392185B4105462C
:108000000D43EAD11046184313D06046194650403C
:108010007140084306D06046101AB34106D20122CF
:10802000002306E000220123DB0702E00122D24305
:108030005310009874460105381C6141029C039D51
:108040000019694100F073FABFE70000FD0300006A
:1080500070B54B005B0803430BD04B005C0D002652
:1080600033466542B341D417AD1AA34102DB002069
:10807000014670BD12053018514170BD10B5002287
:108080009623114600F01AFA10BD00000EB5C21773
:10809000C10F5040CA0740180021054B02930192BE
:1080A00000910A460B4600F04FFA03B000BD0000F5
:1080B000330400000EB505490291002100910A46E3
:1080C0000B46019100F040FA03B000BD33040000FC
:1080D000410040020122400AD205090E80187F2982
:1080E00001DA00207047962903DC9622511AC84015
:1080F00070479639884070474A0009030123090BED
:108100001B051943094B10B5520D9A4201DA0020A4
:1081100010BD064B34339A4203DC9A1A00F07CF807
:1081200010BD03495118884010BD0000FF03000036
:10813000CDFBFFFFC20FD207400040080BD0C10D9E
:108140000723DB01C91840020905400A1143C20890
:1081500040071143704700200146704710B50029C1
:1081600004DB0124E40740428C412146002B04DB60
:108170001C460123DB075242A3418B4200D18242BD
:1081800010BD000010B5002904DB0124E4074042C3
:108190008C412146002B04DB1C460123DB075242A5
:1081A000A341994200D1904210BD0000CB0FDB07E4
:1081B000490010B5490802460A4307D00A0D0724B2
:1081C0000903E401090B121B002A01DC002010BD89
:1081D000C900440F0C43C100E018D205801800F01C
:1081E00065F910BD0122D207002800DB101A002912
:1081F00000DB511A8142704710B5202A04DB01468A
:10820000203A9140002010BD914020239C1A034643
:10821000E3401943904010BD10B5202A04DB084606
:10822000203AD040002110BD0B46D340D04020243E
:10823000A21A91400843194610BD10B5202A06DB4A
:10824000CB170846203A1041C1170B4306E00B46F6
:108250001341D0402024A21A91400843194610BD72
:1082600000487047E4A6010810B50446FFF7F8FF80
:108270000068005DC007C00F10BD000070B50C465F
:1082800000683C21FFF734FB21603C21FFF730FB05
:1082900061601821FFF72CFB0546A1600721001D36
:1082A000FFF726FBA1610F48A90008180E49FFF748
:1082B0001FFB0246443288086261E0613B2802D31A
:1082C000910700D0401C0021084B0A462161995CAF
:1082D000814203D8401A521C2261F8E7401CE0603A
:1082E000204670BD6C0B0000B5050000E8A6010833
:1082F000F7B582B0029C00272078641C15460197D0
:10830000302802D0002D15D015E020780127641CFC
:10831000782804D0582802D0002D09D00BE0002D79
:1083200001D0102D07D1002710252078641C02E011
:10833000082500E00A250026009610E00099012794
:1083400069430818020C294680B2714300908E18C8
:108350003804864201D3012001902078641C29460C
:1083600000F0C8F90028E9DA0398002805D0002FAA
:1083700001D0641E00E0029C04600198002806D031
:1083800004F040F902210160C81E05B0F0BD00995B
:1083900030040843F9E700000FB400B589B00CA918
:1083A00000910B990023CB60204B214A0693079242
:1083B000042201921F4A02921F4A089202466B460B
:1083C000002000F036FA09B008BC04B0184770B5B8
:1083D00086B006460020C0430190002015460C469A
:1083E0000091029104903246694604A8FFF7D4FF39
:1083F000024604982118002D05D0002801D0084617
:1084000000E020462860049800280DD0002A02DDF4
:108410000098884208D0081B0190009432466946B3
:10842000029404A8FFF7B8FF06B070BD898A00085F
:10843000A98A0008FFFFFF7F69820008F7B5009C4A
:108440000F4600262578641C002D05D0FFF708FF95
:108450000068405DC007F5D12B2D02D02D2D18D01E
:10846000641E39462046029AFFF742FF002F04D0CF
:108470003968A14201D100993960710502240029AF
:108480000BDA4042002803DD04F0BCF80460A007CA
:10849000FEBD012080020643E3E70028F8DA04F07D
:1084A000B1F804600048FEBDFFFFFF7F002904DA39
:1084B000401C490001D140084000704770B40024BE
:1084C000050C05D11024000402D1002921D011246B
:1084D000050E01D100020834050F01D10001241D51
:1084E000850F01D18000A41C002801DB4000641C22
:1084F000002908D020252E1B0D46F540A14000D0B4
:1085000001212943084301061B1B000ADB1D02D57C
:10851000002070BC7047DB05181880180029F8DAB5
:10852000401C4900F5D170BC40084000704710B5B0
:10853000002B08DA0024401C614192185B411A4369
:1085400001D14008400010BDF0B51FB482B005460F
:108550000C0003D0084603F0E1FF02E003F0DEFF69
:1085600020300246009021462846FFF745FE049B36
:10857000059A04460F4618431143084314D0184681
:1085800010431BD0009840210A1A18460599FFF79E
:1085900043FE05460E46009A05990498FFF72CFE07
:1085A000084305D0012004E02046394607B0F0BD5D
:1085B0000020C11705430E432C43374300990E9802
:1085C0006305401A7905E40A00220C43FD0A0A30CB
:1085D00002D500200146E9E70105101969410C9C0C
:1085E0000D9D00196941FFF7A2FFDFE7FEB50023EB
:1085F0001A461B1A8A4103DB0020014603B0F0BD76
:108600004A000D0301212D0B0905520D0D43D10721
:1086100002D100186D41521E5110FF31FF3101315E
:10862000002704463E463846009701910246012144
:1086300000200905FFF7F0FDC3197141F818324613
:1086400084468E464A4161462846611A904104D3C9
:108650006046241A954176461F46241900986D41BC
:10866000401C00903428E1DDF91930467041091BA7
:10867000A84103D20022D243134601E00022134650
:1086800001980105381C7141FFF751FFB6E7000062
:108690004A0009030123090B1B0519430A4B10B5B6
:1086A000520D9A4202DA0020014610BD064B3433C7
:1086B0009A4203DC9A1AFFF7AFFD10BD034BD218A4
:1086C000FFF79AFD10BD0000FF030000CDFBFFFF88
:1086D000064C0125064E05E0E36807CC2B430C3C15
:1086E00098471034B442F7D3FFF7EEF860AD0108B5
:1086F00080AD01083A2800D23038202302469A4340
:10870000412A01D310463738884201D30020C043A4
:1087100070470000FFB5087889B01546FF2805D0DE
:10872000491C2D2804D00022002407E000240BE07F
:108730000122F9E70A235C430419491C0878FF2841
:10874000F8D1002A00D06442002004902A78014623
:108750002D2A01D02B2A0FD16D1C2D2A02D00022E8
:10876000049209E00122FBE700260A2233466D1C31
:1087700000F0D0F9381871412F78FF2FF4D10C9AFE
:10878000A218069202460A4304D0FF23069A9133A8
:10879000DA4205DA002109980A4606C00DB0F0BD9C
:1087A0000024B74AB54D2646079200F0F1F9029031
:1087B00006980391002801DA474200E00746390590
:1087C0000020AF4A001C51410191009012E0F807CF
:1087D00007D022462B4630460799FFF759FB06463D
:1087E000079122462B4610461946FFF751FB0446D7
:1087F0000D467F10002FEAD10698019B0028009AB1
:108800000399029806DAFFF7ABFB3246079BFFF7A6
:10881000A7FB05E0FFF73CFB3246079BFFF738FB61
:10882000049A002A02D00122D2075140099A03C2B9
:10883000B4E7FFB591B0002009900025ED432E204C
:108840009E685C681F460190B9696D1C1298884744
:108850000090396A88470028F6D10098401C0AD059
:108860000D20C0018443002E12DD00982B2809D072
:108870002D280DD103E00020C04315B0F0BD01202C
:1088800080020443B9696D1C12988847761E0090D7
:1088900003A9600501D52D2000E02B206A46107346
:1088A000491C0CA80F9102900AE0B9696D1C12983E
:1088B000884700900120400204431398761E05600B
:1088C000002E02DD00983028EFD0019900988842F0
:1088D00046D18020044308E00998401E09900120F9
:1088E000400204431399681C0860B9696D1C761E28
:1088F0001298884700903028EED031E001998842E4
:1089000005D1200603D480200443761E1EE0009883
:1089100004F096FA002826D001204002044307A95B
:108920000F980331761E88420BD200980F99303889
:1089300008700F98401C0F90200607D50998401E1C
:1089400003E0200602D40998401C0990A00502D536
:108950001399681C0860B9696D1C129888470090CB
:10896000002ECBDC59E0002E57DD0098652801D0A1
:10897000452852D1A00550D5032000028443B9698F
:108980006D1C761E129888470090002E0CDD2B2857
:1089900004D02D2808D1FF2001300443B9696D1C93
:1089A00012988847761E0090E00501D52D2100E041
:1089B0002B21029801700298401C0290019025E042
:1089C0000120400204430EA902980131761E88421C
:1089D0000ED20098029930380006000E087003D1BC
:1089E0000299019881420AD90298401C029006E03F
:1089F000E00501D5234801E0224840420990B969C9
:108A00006D1C12988847009013980560002E04DDB5
:108A1000009804F015FA0028D2D1F9691298884715
:108A20000F99FF200870029903AA087000200A908D
:108A30000B900CA90AA8099BFFF76CFEA00502D4B5
:108A40000120C04319E72420044209D0E00713D1D4
:108A500038680B9A0A99031D3B60006806C00BE05A
:108A60000B990A98FFF7A2FB0146E00704D138688A
:108A7000021D3A60006801602846FEE600001440CE
:108A80000000F03FF1D8FFFF4268002A08D00168DB
:108A90000B78491C002B03D0521E06C018467047A5
:108AA0000121C160881E70474268002A0BD0C3684C
:108AB0000168002B07D183688B4204D0491E521CE9
:108AC00006C0002070470020C043704770B5CD0F2E
:108AD0004A0009030123090B1B0519430B4BED0742
:108AE0000024520D9A4201DA002070BD074B343346
:108AF0009A4203DC9A1AFFF78FFB02E004495118EF
:108B000088402C43F1D0404270BD0000FF030000BC
:108B1000CDFBFFFFF0B51FB486B0002000900190A0
:108B200002900698069980B204900798090C0204F6
:108B30000014114307900027089D099806913E46AE
:108B40003C4603900398A9B20204000C03900498D9
:108B50002D0C1543484300212246FFF74DFBC71952
:108B6000714110340E46402CECDB3846029AFFF778
:108B700043FB009A019B8018009059410298019193
:108B8000103002904028CCDB00980BB0F0BD000004
:108B90000EB5054A02920022009213460192FFF799
:108BA000D3FC03B000BD00003304000070B50446E0
:108BB00000688168490720D5816810264907002987
:108BC00005DA8168890702D481683143816000F049
:108BD000BDFF05460DE000F0B9FF401B0A2808D98B
:108BE000606D30436065A06D01210843A0650846B3
:108BF00070BD206880684007EDD4002070BD000083
:108C000038B50446064805490068FEF771FE604322
:108C100000E0401E00900028FBD138BD40420F000C
:108C200080000020F8B50446006881688907890F34
:108C3000012925D10168C90722D081680522114088
:108C40001025012601290FD181680222114381607C
:108C500021680320086000F079FF07460CE000F06F
:108C600075FFC01B0A2807D9606D28436065A06D99
:108C70003043A0650120F8BD20688068C007EED1B0
:108C80000020F8BDF8B50446006881688907890F9F
:108C9000012902D10168C90722D18168114A102631
:108CA0001140012500290ED18168294381600120EE
:108CB000FFF7A6FF00F04AFF07460CE000F046FF72
:108CC000C01B0A2807D9606D30436065A06D28433A
:108CD000A0650120F8BD20680068C043C007EDD141
:108CE0000020F8BD17000080F7B5012211462A4880
:108CF00000F025FF294E00277468294D002C1DD156
:108D00000C200AF045FA7060002838D00299817171
:108D1000076001980AF03CFA71680028086008D0E2
:108D2000019A0099FEF784FE70680199818087603E
:108D300020E0084609F0FAF9776020E0A0680028F2
:108D400016D10C200AF024FA060018D00298B0714F
:108D5000376001980AF01CFA306000280CD0019AA4
:108D60000099FEF765FE0198B080B760A660B06814
:108D70000400E3D10120FEBD304609F0D7F909A176
:108D8000092002F037FCA878401CA8700DF09CF870
:108D90000DF0D4FF0020FEBD0004005010000020A4
:108DA000080D00204372656174654E6F6465436D04
:108DB000643D3D3E4D616C6C6F63206D656D6F72FF
:108DC00079206572726F720A00000000FFB5254CB1
:108DD000054620688BB01F460E46002822D0044668
:108DE00040690028FBD118200AF0D2F96061002800
:108DF00031D00D99016100210446416100F0A6FEC9
:108E00004119E160A060677065602670324616A166
:108E1000684603F05DFB6946092002F0EBFB012088
:108E20000FB0F0BD18200AF0B3F92060002810D070
:108E3000067000F08BFE01462068324681604919B9
:108E4000C160477045600D990161002141610BA12E
:108E5000DEE70FA100E014A1092002F0CBFB002007
:108E6000DEE7000000000020437265617465204E5B
:108E70006F64655461736B25640A00004372656119
:108E8000746520486561645461736B2025640A0031
:108E900043726561746520486561645461736B2039
:108EA0004572726F720A00006E6F207370616365A5
:108EB00020666F72206E657874206379636C6574C8
:108EC00061736B0A0000000010B5024800F0A8FBB7
:108ED00010BD00008022002010B5034800F0A0FB68
:108EE000024800F09DFB10BDC8220020382200205F
:108EF00030B5446C1C252C400125A540046C6560F0
:108F0000046863608368102B036803D0996000686D
:108F1000C26030BD9A600068C16030BD10B51020DD
:108F200000F03AFD802000F037FDFF20013000F016
:108F300033FD10BD7047000010B5214A0021906933
:108F4000C305204804D541690223194341619115A5
:108F500093699B0505D5436901242343436163025B
:108F6000194393695B0505D543690824234343618D
:108F7000E301194393691B0505D543690424234381
:108F800043616302194393699B0405D54369102427
:108F9000234343616302194393699B0304D54469E6
:108FA00020231C43446119439369DB0305D54369BE
:108FB000402423434361A0020143916110BD00009E
:108FC000002002403423002070B5054600F0BEFDAD
:108FD0000646184C0AE0681C08D0002D04D000F0AA
:108FE000B5FD801BA84201D9032070BDA069C00750
:108FF000F1D1A069800701D50220A061A069C00558
:1090000011D4A06980050ED4A06940050BD4A069D5
:10901000000508D4A069800405D4A069800302D4A7
:10902000A069C00303D5FFF787FF012070BD0020B2
:1090300070BD00000020024030B5084A084B08E02F
:109040000578140A55402A06D20D9A5A401C6240EF
:10905000491E0029F4DCD04380B230BDFFFF000080
:10906000229B0108F8B5054604464035287C0026B9
:10907000012808D001202874206881688907890F99
:1090800001290ED101E00220F8BD0168C90708D00E
:10909000606D202108436065012600202874304659
:1090A000F8BD616DFF2201329143022211436165D7
:1090B000C1688907890F0091C16889088900C1606A
:1090C0002068816892071143816000F03FFD0746E8
:1090D0000EE000F03BFDC01B0A2809D9606D02219B
:1090E0008843102108436065002028740120F8BDE2
:1090F000206880680028ECDB2068C168009A114372
:10910000C160606D80088000401C6065C5E700009C
:10911000F8B506460D464036317C01290DD00121B7
:10912000317401688A68520709D5416D20221143C4
:109130004165002030740120F8BD0220F8BD174BB6
:109140006A68D80547109A42154C8A6A2B6812D073
:109150005B035B0B1A438A622968490305D5A16842
:109160000143A1600A20FFF74BFD2868800312D558
:10917000A06838430EE05B035B0B9A438A62296860
:10918000490302D5A1688143A1602868800302D504
:10919000A068B843A06000203074F8BD0110000042
:1091A00000270140406D70470068006C7047000068
:1091B00070B5040006D0606D2646002540360028B4
:1091C00002D006E0012070BDA5653574204600F090
:1091D000D3F8606DC00603D421688868400705D5C0
:1091E000606D1021084360653574EBE7606DFF2208
:1091F0000132904302221043606588688207920F13
:109200005B48012A02D10A68D2072BD10323626886
:109210009B079A4205D05B429A4202D05B009A4279
:1092200009D10A69920092080A6121680A69636893
:109230001A430A610CE00A69920092080A61816887
:109240000F229204914381608168626811438160BA
:109250002168CA6818239A43CA602168CA68A3684B
:109260001A43CA6081680122520691438160816875
:10927000A28E52061143816020688168C90004D41F
:10928000816801221207114381602068C168394A50
:109290001140C1602069E168022825D00020014307
:1092A000204620300278037B52035B001A431143AF
:1092B000226B1143A26992031143E269D203114365
:1092C0002268D3681943D160616A0A46FF3AC23AFC
:1092D00005D0A26A11432268D3681943D16042784D
:1092E0000121012A02D00BE00420D8E700780028F1
:1092F00023D0606D202210436065A06D0843A065F7
:10930000E06B012820681FD00169C90703D00169FB
:1093100049084900016120684169C908C9004161E3
:1093200020684169A26B11434161A565606D8008A9
:109330008000401C6065002070BD2068C268012369
:109340001B041A43C260DBE70269FF239B009A43B8
:10935000026120680269236CA66C1A43636C334374
:109360001A430261206802690A430261D3E70000E0
:10937000002701401902FEFF10B586B004461421F3
:109380006846FEF76EFB0E492068884216D10D48EC
:10939000416B421511434163C16A01221143C1620D
:1093A000C06A69461040059020200090032001907B
:1093B000002002900520000700F0FAFA06B010BD68
:1093C0000024014000100240F8B5044640692546DB
:1093D00040350E4608280BD02068C068C00709D069
:1093E000606D202108436065002028740120F8BDCD
:1093F000082700E00C2700F0A9FB009011E0701C8A
:109400000FD0002E05D000F0A1FB0099401AB04209
:1094100007D9606D0421084360650020287403208B
:10942000F8BD206800683842E9D0606D012149022A
:10943000084360652068C16809058A0F0C21002A6D
:109440001BD12022125D002A17D10268120714D501
:10945000826853070122002B08DB43688B4343607B
:10946000606D130298431043606506E0606D202331
:1094700018436065A06D1043A065A069002801D164
:10948000206801600020F8BD70B504462168002006
:109490008968490721D425464035297C01291CD0FB
:1094A00001212974E169012904D02046FFF7EAFB74
:1094B000002811D1616D0A4A1140FF220132114387
:1094C00061650021A165297422681C211160216851
:1094D0008A6804231A438A6070BD022070BD0000B0
:1094E000FEF1FFFF70B5054604464035287C012893
:1094F00007D001262E742046FFF758FB002802D023
:109500000CE0022070BD2046FFF78CFB002805D13F
:10951000616DFF220132914331436165002129745D
:1095200070BD30B5014620314A790023022A04D0AB
:109530000422C2630B71012030BD026814680E253D
:10954000AC43146002681468640864001460446CDE
:109550001C22144001221546006CA54045604A714A
:1095600018460B7130BD70B50024014620314A7990
:10957000022A03D00421C163012418E002681368A1
:109580000E25AB431360026813685B085B00136031
:10959000436C1C221340012215469D40036C5D6004
:1095A0004A7100220A71816B002900D08847204649
:1095B00070BD000070B5040029D02068016849081A
:1095C000490001601348256814212818FEF790F916
:1095D000800060641048206400202860626C1C21B8
:1095E0000A4001239340226C53600B4A8032936AF5
:1095F000656C0D400F21A9408B439362E0622063AC
:109600006063A063E06320346071207170BD01204D
:1096100070BD0000F8FFFDBF00000240C06B704746
:10962000F0B4016C0D6801680C68466C1C230422C0
:109630001E401746B7402F420ED067070CD50C6866
:10964000A40602D40C6894430C60416C19408A4013
:10965000016C4A60016B1AE00227B74002462F40B6
:109660002032002F17D0A70715D50C68A40605D403
:109670000C680A25AC430C6001215171446C022135
:109680001C40036CA140596000211171C16A00297E
:1096900018D0F0BC08470827B7402F4212D0240743
:1096A00010D50C680E25AC430C60446C01211C40A5
:1096B0000B46A340046C6360C163517100211171BA
:1096C000416BE4E7F0BC704770B504003CD01F4824
:1096D000256814212818FEF70BF9800060641C48E7
:1096E0002064022120462030024641712968194831
:1096F000E3680140A068666918432369334318434F
:10970000A3691843E3691843236A18430843286090
:109710000121A0688903884210D00D488030836AF7
:10972000656C1C210D400F26AE40B3438362656C0F
:1097300063680D40816AAB400B4383620020E063A5
:1097400001215171107170BD012070BDF8FFFDBF86
:10975000000002400F80FFFFF8B504468C46203021
:1097600001790025012909D00126067141790027D8
:10977000012905D0077102252846F8BD0220F8BD51
:1097800002214171E76320680168490849000160CE
:1097900061462046FFF7ACFB206B0028206801687B
:1097A00001D00E2205E00422914301602068016887
:1097B0000A22114301602068016831430160DBE740
:1097C00070B5044600F0C2F90546601C02D004489A
:1097D0000078241800F0BAF9401BA042FAD370BDFB
:1097E00074000020034841680122114341600020B9
:1097F0007047000000200240F8B5124D0746287C53
:1098000014460E46012807D0012028740E48FFF7A1
:10981000DBFB002802D00CE00220F8BD00216961CA
:10982000022F09D0012F09D0002F09D00648FFF7D9
:10983000CBFB00212974F8BD3460FAE73480F8E7E7
:109840003470F6E73423002050C30000094948680B
:10985000C0070DD0EFF3108072B6074ACA60074AFE
:10986000CA6080F310884868C00701D001207047A3
:109870000020704700200240EFCDAB8905040302B1
:10988000F0B5002262E0012393401C460C405CD0FE
:109890009608304DB6007519AF68AC4695072E0F87
:1098A0000F25B540AE463D4005273F07B84201D1E0
:1098B000002719E0284FB84201D1012714E0274FB3
:1098C000B84201D102270FE0254FB84201D103274A
:1098D0000AE0244FB84201D1042705E0224FB842E4
:1098E00001D1052700E00627B740AF4212D11F4D36
:1098F0002E68A6432E606E68A6436E60AE68A643CF
:10990000AE60EE68A643EE606546AD687446A5435A
:109910006446A560056856000324B44025430560ED
:10992000D508AD002D182E6AAC465507EF0E0F2551
:10993000BD40AE4365462E62C568A543C560456817
:109940009D4345608368A3438360521C0B46D3400C
:1099500099D1F0BD00000140000400500008005003
:10996000000C005000100050001C0050000401408A
:1099700010B510280AD0C11FF93904D0802801D1B0
:109980000CF0DEFF10BD0CF019FF10BD0CF0E6FE70
:109990000FF006FC10BD000010B504494A690242F0
:1099A00002D04861FFF7E4FF10BD00000004014051
:1099B000FCB500230124A7E027462A469F403A40F1
:1099C0006FD04D68012D05D0022D03D0112D01D08F
:1099D000122D16D185680326AC465D00AE46AE401A
:1099E0006546B543AC46CE687546AE4065462E43E7
:1099F000866046680D79BE43ED06ED0F9D40354308
:109A00004560C6685F000325BD40AE46AE4335469F
:109A10008E68BE402E43C6604E68022E01D0122EC4
:109A200014D1DE08B60036180196366A5D07B446D2
:109A3000EE0E0F25B54000966646AE43B4460D695E
:109A4000009EB54066462E43019D2E62066875460F
:109A5000AE430D79AD07AD0FBD40354305604D6890
:109A6000ED0050D52B4D6E6B26436E639E082A4D3C
:109A7000B6007519AC46AD689E07360F0F27B74084
:109A8000BD4305273F07B84201D100271AE0234F05
:109A9000B84201D1012715E0214FB84202D1022777
:109AA00010E030E01F4FB84201D103270AE01E4FFB
:109AB000B84201D1042705E01C4FB84201D1052767
:109AC00000E00627B7402F436546AF60184D2E686B
:109AD0004F689643FF0300D516432E606E684F68AB
:109AE0009643BF0300D516436E60AE684F68964339
:109AF000FF0200D51643AE60EE684F689643BF0282
:109B000000D51643EE605B1C0A681546DA4000D0AB
:109B100052E7FCBD0010024000000140000400506C
:109B200000080050000C005000100050001C0050B5
:109B3000000401400069084000D001207047002A5D
:109B400001D08161704781627047000001488068E0
:109B5000704700007400002070B504000FD0216829
:109B60001348086021681348086003CC41602068EE
:109B7000083C21688860FFF7E9FF054608E00120FE
:109B800070BDFFF7E3FF401B292801D9032070BDFA
:109B90002068C0680028F4D120680269E1688A4220
:109BA00001D0016101E004490160002070BD0000A6
:109BB000CCCC000055550000AAAA0000006802495C
:109BC0000160002070470000AAAA000002488168D6
:109BD00002788918816070477400002010B5084829
:109BE00000240168402211430160204600F00AF879
:109BF000002801D0012401E000F026F8204610BD25
:109C00000020024070B504460D4D7D202978C0002B
:109C1000FDF76EFE01460B480068FDF769FE01F096
:109C2000B7F8002809D1042C07D200222146401E93
:109C300000F032F800206C6070BD012070BD0000A3
:109C400074000020800000200448416B0122114371
:109C50004163816B0204114381637047001002402D
:109C6000002809DBC106C90E0120884003490860AD
:109C7000BFF34F8FBFF36F8F7047000080E100E0AC
:109C8000002805DBC106C90E012088400149086093
:109C90007047000000E100E010B502F091FC10BD3B
:109CA000BFF34F8F04490348C860BFF34F8F00BF15
:109CB000FDE700000400FA0500ED00E0024801683D
:109CC00002151143016070470070004002480168AE
:109CD000421511430160704700700040024801685E
:109CE000821511430160704700700040F0B5154ABD
:109CF0001368154D54152D6A2340ED07ED0F002B09
:109D000004D0002D02D01668A64316601668B60867
:109D1000B600064316600D480769042637430761FD
:109D200001290DD040BF20BF20BF0169B1430161AF
:109D3000002B04D0002D02D0106820431060F0BD2D
:109D400030BFF2E7007000400000014000ED00E08D
:109D5000F8B5044600780027584D800671D5574E57
:109D6000403EB06BC00004D4B06BA9050843B0639B
:109D7000012753480168C90511D4016882151143B0
:109D80000160FFF7E3FE009005E0FFF7DFFE0099BA
:109D9000401A642837D84A480068C005F5D53268AB
:109DA0000321090560680A400140914208D08103FF
:109DB000890F032904D13168890301D50120F8BD39
:109DC0002A69032109040A4022D0084090421FD08A
:109DD000207880061CD528692A6988430121C90496
:109DE0000A432A612A698A432A612861C0050FD57E
:109DF000FFF7ACFE009008E0FFF7A8FE0099411ABB
:109E00003048814201D90320F8BD28698005F3D587
:109E100061688803800F032805D1326800058243FA
:109E200001400A433260286903226168120411402C
:109E300008432861002F04D0B16B01200007814343
:109E4000B1632078C00705D0E868A1688008800069
:109E50000843E8602078800705D5E8680C2188432E
:109E6000E1680843E8602078400706D5E8680321E8
:109E70008902884321690843E8602078000706D5F5
:109E8000E86803210903884361690843E860208882
:109E9000C00506D5E868032109048843A169084381
:109EA000E8602078000606D5E86803218904884325
:109EB000E1690843E8600020F8BD0000401002405E
:109EC0000070004088130000F8B50E46050038D039
:109ED0005E480068C007C00FB04214D25B4C2068D7
:109EE0004008400030432060FFF730FE074605E0A1
:109EF000FFF72CFEC11B564881427AD82068C00764
:109F0000C00FB042F4D12878524C800705D5E068E4
:109F1000F0218843A9680843E0602878C00752D040
:109F20006868022806D0032807D0216801280AD0D3
:109F3000890504E02168890301E02168890100297D
:109F400003DB0120F8BD4907F9E7E16889088900CA
:109F50000143E160FFF7FAFD0746686802280AD06E
:109F6000032814D001281ED029E0FFF7EFFDC11B04
:109F7000374881423DD8E0680007800F0228F4D1BD
:109F800021E0FFF7E3FDC11B3148814231D8E06891
:109F90000007800F0328F4D115E0FFF7D7FDC11BA0
:109FA0002B48814225D8E0680007800F0128F4D1B2
:109FB00009E0FFF7CBFDC11B2548814219D8E068B5
:109FC0000007800FF5D121480168C907C90FB142C8
:109FD00017D901684908490031430160FFF7B6FD10
:109FE000074608E005E0FFF7B1FDC11B18488142B4
:109FF00001D90320F8BD15480068C007C00FB04262
:10A00000F1D12878400706D5E06807210902884386
:10A01000E9680843E0602878000707D5E068072171
:10A02000C90288432969C9000843E06000F03AF892
:10A03000E168094A0906090F515CC84007490860F0
:10A0400007480068FFF7DEFDF8BD00000020024071
:10A0500088130000001002402AA40108800000209C
:10A0600078000020044805490068C968044A490589
:10A07000490F515CC840704780000020001002402A
:10A0800043A40108044805490068C968044A8904D2
:10A09000490F515CC840704780000020001002400A
:10A0A00043A4010870B51A4AD3681A490C20184015
:10A0B0008D0004280CD04E00082810D00C2810D099
:10A0C00050680004410F0120C003491C884070BD46
:10A0D0001068C00601D5084670BD284670BD3046E0
:10A0E00070BD98020C4C000F205C1B029C0FD368C3
:10A0F000641CDB0301D5314603E01268D20600D4AC
:10A10000294602F022FA22460023FDF71BFC70BD0F
:10A110000010024000093D003AA40108FEB5050008
:10A120007ED0F74CE7680C20E66807400120000469
:10A1300006402878C00747D0082F05D00C2F0AD139
:10A1400001200004864206D1206880033CD568685F
:10A150000028E5D038E0012069680004814203D17D
:10A1600021680143216011E0052301221B049204B0
:10A170009942216802D111432160F1E781432160B6
:10A1800021680140009120689043206068680028A1
:10A190000DD0FFF7DBFC009005E0FFF7D7FC00993E
:10A1A000401A64287ED820688003F6D50CE0FFF7BB
:10A1B000CDFC009005E0FFF7C9FC0099401A642827
:10A1C000F0D820688003F6D4287880075DD5E86849
:10A1D000810604D5226820210A432260884309238E
:10A1E000042F0DD00C2F01D1002E09D000283CD017
:10A1F0002168994301432160FFF7A8FC064628E047
:10A200002168490701D500288AD061681F221202FF
:10A2100091432A691202114361602168994300E069
:10A2200091E101432160FFF73DFFE16809060A0F54
:10A23000B449895CC840B4490860B4480068FFF775
:10A24000E1FC002874D120E0FFF780FC801B02288D
:10A25000A8D820684007F7D560681F210902884305
:10A2600029690902084360600FE020684008400047
:10A270002060FFF76BFC064604E0FFF767FC801BDD
:10A2800002288FD820684007F7D42878C00661D507
:10A29000002F0DD0A86900284BD02068FF21013184
:10A2A000084300E0C6E02060FFF750FC06462DE0C2
:10A2B0002068800502D5A8690028A5D0606807211C
:10A2C00049038843296A084360606068297F000267
:10A2D000000A090608436060286A410B0120C00398
:10A2E000491C8840E16809060A0F8649895CC84014
:10A2F0008549086085480068FFF784FC002817D16D
:10A3000028E0FFF723FC801B0228A1D820688005E5
:10A31000F7D56068072149038843296A08436060CC
:10A320006068297F0002000A09060843606011E0A6
:10A33000E1E02168FF20013081432160FFF706FC46
:10A34000064604E0FFF702FC801B022872D8206852
:10A350008005F7D428786E4E000724D56869002858
:10A36000306910D0012108433061FFF7EFFB009006
:10A3700005E0FFF7EBFB0099401A02285AD8306934
:10A380008007F6D50FE0400840003061FFF7DEFBA4
:10A39000009005E0FFF7DAFB0099401A022849D83F
:10A3A00030698007F6D42878400765D500200290F0
:10A3B000A06BC00006D4A06B012109070843A0636D
:10A3C0000120029053480168C90511D40168821523
:10A3D00011430160FFF7BAFB009005E0FFF7B6FB01
:10A3E0000099401A642825D84A480068C005F5D568
:10A3F000FF20AA680130824203D1316901433161F3
:10A4000011E001218902002A07D005231B029A428C
:10A4100003D132690A433261EFE732698243326124
:10A42000306988433061A86800280FD0FFF78EFBA1
:10A43000009007E05EE0FFF789FB0099411A36487B
:10A44000814257D830698005F5D50DE0FFF77EFBD6
:10A45000009006E0FFF77AFB0099411A2E488142EE
:10A4600048D830698005F5D40298002804D0A06B44
:10A47000012109078843A063686A002865D00C2F72
:10A480004CD0012636060228206805D0B043206053
:10A49000FFF75CFB05462FE0B0432060FFF756FB5B
:10A4A000074604E0FFF752FBC01B022822D82068B1
:10A4B0008001F7D4E96AA86AE2680843296BFD23A2
:10A4C0001B049A4311430843E06020683043206036
:10A4D000FFF73CFB054604E0FFF738FB401B022872
:10A4E00008D820688001F7D52FE0FFF72FFB401B2D
:10A4F000022801D90320FEBD20688001F5D424E0A4
:10A50000001002402AA401088000002078000020EA
:10A510004010024000700040881300000128EAD07B
:10A52000E06801210904AA6A014091420BD10F2180
:10A530008904EA6A0140914205D103218905084056
:10A54000296B884201D00120FEBD0020FEBD70476E
:10A55000F7B5054604462035287882B0012814D086
:10A5600001202870022068702168CA204862216892
:10A57000532048622068806800264005FF27002895
:10A5800012DAFFF7E3FA00900AE0022005B0F0BD0E
:10A59000FFF7DCFA0099411A7D20C00081421CD8E7
:10A5A0002068C0684007F3D42068816801229202C5
:10A5B000914381602068C16880221140204A891837
:10A5C000C160FFF7C3FA00900DE0FFF7BFFA0099F2
:10A5D000411A7D20C000814205D9206847620320CE
:10A5E00068702E70D2E72068C0684007EDD52168FA
:10A5F0000398486120688168C908C90081602068A3
:10A600008168049A114381600E480268012109059E
:10A610000A43026082680A438260206881680122DE
:10A620009203114381602068816812111143816097
:10A6300020684762012068702E700020A6E70000A5
:10A640007FFBFFFF0004014010B540200EF052FCDC
:10A6500010BD000010B504460068C068400509D56B
:10A660002046FFF7F1FF2068C16880221140054AAB
:10A670008918C16001200449000548610120203487
:10A68000607010BD7FFBFFFF0004014010B50BA1FF
:10A69000092000F0AFFF11484078022809D00428B3
:10A6A00007D0032806D0072804D00CF091F90EF04B
:10A6B000C7FB10BD0CF02EFAF9E7000052746320BE
:10A6C00057616B6555703D3D3E416C61726D204335
:10A6D0006F6D706C657465210A000000080C002025
:10A6E00070B50446006881688025C90400290BDA2A
:10A6F000C068C00508D52046FFF7C8FF2168C868B4
:10A700002840FF388238C8602068816889040BD5EA
:10A71000C068800508D52046FFF719FF2068C1688A
:10A72000054A29408918C160012004494004486154
:10A7300001202034607070BD7FFDFFFF00040140E8
:10A74000F8B5054604462035287801281DD001209B
:10A750002870022068702268CA2050622268532044
:10A760005062FF2001300026FF2781421CD1216862
:10A770008A6882438A6020688168012212039143BB
:10A780008160FFF7E3F9009009E00220F8BDFFF7D0
:10A79000DDF90099411A7D20C00081421BD8206854
:10A7A000C068C007F3D020E020688168012252020F
:10A7B0009143816020688168120191438160FFF7B5
:10A7C000C5F900900DE0FFF7C1F90099411A7D200D
:10A7D000C000814205D920684762032068702E704E
:10A7E000F8BD2068C0688007EDD520684762012069
:10A7F00068702E700020F8BDF0B50C46FF219C4615
:10A800000131254640268F051D4B20358A4204D153
:10A8100061620168C869496C05E001214902616211
:10A820000168086A896C8202920E22704204520EFC
:10A8300062704206520EA270020C49043240490C6A
:10A84000E27061608100890E29700146394018402C
:10A85000E1616061604600280FD1207801F0FAF8CC
:10A860002070607801F0F6F86070A07801F0F2F8DE
:10A87000A070287801F0EEF828700020F0BD0000EC
:10A880008080808010B500680B464068C021C943B5
:10A8900001400002000ECC04D870E40E5C708C06FF
:10A8A000A40E0904490F9C701970002A0AD101F006
:10A8B000D1F8D870587801F0CDF85870987801F038
:10A8C000C9F89870002010BD30B50B460168896A40
:10A8D0005960016809694904490C99600068046875
:10A8E0000F482146014088024D04800E18706D0EFD
:10A8F00049065D70490E99706102490E402421405D
:10A90000D970002A0AD101F0A5F81870587801F022
:10A91000A1F85870987801F09DF89870002030BD2B
:10A920007F7F7F00F8B5040050D025462035687839
:10A93000002803D12870204600F052F802206870E9
:10A940002168CA204862216853204862204601F0ED
:10A9500095F8FF2604270028206802D046626F7011
:10A9600034E081681D4A114081602168886862680E
:10A97000A369104322691A43104388602168E06884
:10A98000086120680169228912041143016120686D
:10A99000C16880229143C1602068C16C8908890028
:10A9A000C164E169606901432068C26C1143C164FC
:10A9B0002068806880060BD4204600F0C7F9002884
:10A9C00006D0206846626F70002028700120F8BD14
:10A9D00020684662012068700020F8BDBFFF8FFF2D
:10A9E00010B50068084988420DD108480169012264
:10A9F000920411430161002211460220FFF74CF935
:10AA00000220FFF73DF910BD002800404010024031
:10AA1000FEB506460446203630780B4601283ED067
:10AA2000012030700220707018462030009020689D
:10AA300000278068002A34D0400600D4DF701978DF
:10AA40009D7809040D435978DA78090212041143FC
:10AA50000D430099D869097809060D4305435869E3
:10AA6000996905435868084300902168CA204862E4
:10AA7000216853204862FF205A6A013080218242B7
:10AA800045D122689368834393602068C2680A4076
:10AA9000FF3A823AC260FFF759F8019024E00220A1
:10AAA000FEBD400600D4DF70187800F0DBFF05041F
:10AAB000587800F0D7FF00020543987800F0D2FFE5
:10AAC0000543D878000405430098007800F0CAFFD9
:10AAD00000060543D869C1E7FFF738F80199411A24
:10AAE0007D20C00081422AD82068C068C007F3D00A
:10AAF0002068C56121680098486420688168FF2249
:10AB000001321143816020688168120130E02068C1
:10AB1000826801235B029A4382602068C2680A400F
:10AB20001D495118C160FFF711F801900EE0FFF7C1
:10AB30000DF80199411A7D20C000814206D9216893
:10AB4000FF204862032070703770FEBD2068C06827
:10AB50008007ECD520680562216800988864206829
:10AB600081680122520211438160206881681201CC
:10AB70001143816009480268012149040A430260C7
:10AB800082680A4382602168FF2048620120707059
:10AB900037700020FEBD00007FFDFFFF0004014074
:10ABA000F8B505460446203528780B4601280FD015
:10ABB0000120287002206870002A0BD0D8789E7877
:10ABC000000406435878097800024903084317E057
:10ABD0000220F8BD5878C10603D5EF2108400A309D
:10ABE0005870D87800F03EFF0604587800F03AFF1D
:10ABF00000020643987800F035FF064318784003BA
:10AC000006432168CA2048622168532048622046D2
:10AC100000F034FF0027002811D1114806402068B9
:10AC200046602068C16880229143C16020688068C6
:10AC300080060CD4204600F089F8002807D021684F
:10AC4000FF204862042068702F700120F8BD216841
:10AC5000FF204862012068702F700020F8BD0000BE
:10AC60003FFFFF00F8B506460446203630780D4613
:10AC7000012822D001203070022070702068002747
:10AC80008068002A1BD0400600D4EF702978A8788D
:10AC9000090408436978EA78090212041143084359
:10ACA00000902168CA2048622168532048622046EB
:10ACB00000F0E4FE002837D116E00220F8BD40067F
:10ACC00000D4EF70287800F0CDFE0304687800F01F
:10ACD000C9FE00020343A87800F0C4FE0343E878ED
:10ACE000000403430093DCE71749009808402168FB
:10ACF000086020688168012292049143816029697B
:10AD0000E868084321688A68104388602068C16841
:10AD100080229143C1602068806880060CD4204660
:10AD200000F014F8002807D02168FF2048620420B2
:10AD3000707037700120F8BD2168FF204862012043
:10AD4000707037700020F8BD7F7F7F0070B50446BB
:10AD50000068C168A0229143C160FEF7F7FE7D261E
:10AD60000546F60006E0FEF7F1FE401BB04201D9B1
:10AD7000032070BD2068C0688006F4D5002070BD37
:10AD800002480169022211430161704700E000E0BE
:10AD9000094910B5401E884201D9012010BD074C59
:10ADA00060610321081F01F00BFC0020A061072057
:10ADB0002061002010BD0000FFFFFF0000E000E068
:10ADC00002480169022291430161704700E000E0FE
:10ADD00070477047F8B5816F0446C66F0068826897
:10ADE0002546120610278035002A14DA212912D1AF
:10ADF0008168802291438160E06E002808D0FEF7D0
:10AE000090FB002804D0E06EFEF708FC20281DD03F
:10AE1000204601F04BF920688168490614D5222E9E
:10AE200012D18168402291438160206F002808D0B0
:10AE3000FEF777FB002804D0206FFEF7EFFB2028F9
:10AE400004D0204601F019F90020F8BD2F6003203E
:10AE5000F8BD70B5040019D02420A06720680168EF
:10AE600049084900016020680025056020684560A8
:10AE700020688560204600F0B5F980200551A5675F
:10AE8000E567256660342575002070BD012070BD22
:10AE900010B5174A0168803091420AD1026815A1A5
:10AEA000092000F0C9FB1948FF2241680132184807
:10AEB0000DE0184A91420DD1026817A1092000F057
:10AEC000BBFB1248012214304168D202184800F03E
:10AED00091FA10BD174A9142FBD1026816A10920D0
:10AEE00000F0AAFB09482830416880221948EEE7A3
:10AEF00000380140555341525431204572726F72EF
:10AF000020436F64653D307825580A00A00000207A
:10AF10003021002000440040555341525432204516
:10AF200072726F7220436F64653D307825580A0055
:10AF3000B4210020004800404C5055534152543138
:10AF4000204572726F7220436F64653D30782558DA
:10AF50000A000000AC200020F8B502680446D06961
:10AF600011689668814B05461D402023002D6CD04A
:10AF7000F7077F4DFF0FBC460D402F4379D0254684
:10AF8000C7078035002F06D0CF0504D501271762EB
:10AF90002A683A432A60820708D5F20706D0276854
:10AFA00002223A622A6804273A432A60420708D5F7
:10AFB000F20706D02668042232622A68022632434B
:10AFC0002A6002070AD50A461A406646324305D06F
:10AFD0002668082232622E6816432E60020508D5C4
:10AFE0004A0106D501222668D20232622A681A4333
:10AFF0002A602A68002A30D0800606D5880604D543
:10B00000616E002901D02046884728682168896838
:10B01000490602D42821084225D0204601F02DF807
:10B0200020688168490619D5826840218A43826078
:10B03000206F002812D04F498163206FFEF793FAEA
:10B0400000280AD0206F816B06E0850611D58D0699
:10B050000FD5616E77E020468847F8BD2046FFF7A0
:10B0600017FFF8BD05E02046FFF712FF002028601B
:10B07000F7E7256E012D56D1C50654D5CD0652D51C
:10B080001026166220688168254649064035002949
:10B090002ADA226F116849680904090CE1D02F8B64
:10B0A0008F42DED9698311680968890617D401685F
:10B0B000320191430160206881684908490081603C
:10B0C00020688168402291438160E3670020206608
:10B0D00020680168B1430160206FFEF722FA288BD7
:10B0E000698B401A81B21AE0298B6A8B891A6A8BA4
:10B0F00089B2002AB5D00029B3D00268FF252135D6
:10B10000AA43026020688268520852008260E367A6
:10B1100000202066606620680268B2430260204614
:10B12000FFF756FE9DE7C50208D5750206D501203A
:10B13000000510622046FFF74CFE92E7050605D594
:10B140000D0603D5A16E002985D18AE7400688D572
:10B15000480686D5116820464024A14311608367C4
:10B160000021816600F028FA7BE700000F0800004C
:10B1700020010004A1BF000810B5040003D0A06F97
:10B18000002802D007E0012010BD002174200155E5
:10B19000204600F06FF82420A06720680168490865
:10B1A00049000160204600F089FF0128ECD0606A68
:10B1B000002802D0204600F05BFE2068416809228A
:10B1C000D20291434160206881682A2291438160C4
:10B1D00020680168012211430160204600F0AEFEA4
:10B1E00010BD000010B5044600681D4A1D4990427C
:10B1F0000ED1886B01229204904388630321890257
:10B200001948FEF73DFB206FFEF7D4F91D2012E030
:10B21000164B05221207984210D1486B01239B035D
:10B2200098434863032149021046FEF729FB206F2B
:10B23000FEF7C0F91B20FEF713FD10BD0C4B984222
:10B24000FBD1886B01235B04984388630C21104673
:10B25000FEF716FB206FFEF7ADF91C20EBE70000B0
:10B260000048004000100240000400500038014037
:10B2700000440040F0B587B0054614216846FCF74D
:10B28000F0FB554B2A68002454480221032604276A
:10B290009A422ED1826B4B041A438263C26A0A43DC
:10B2A000C262C06A6A4608400590B002D3C26946CD
:10B2B0004B48FEF77DFB4C4E4A483060B460052099
:10B2C000F460706074618020B46130612020346269
:10B2D000F0613046FEF7F8F9002801D0FDF72AFEAC
:10B2E0002E67002211461D20B562FEF7D5FC1D20F9
:10B2F00036E03E4B9A4237D1426B01239B031A43FF
:10B300004263C26A01231A43C262C06A6A46184095
:10B31000059003204002D3C2052069460007FEF7CE
:10B3200047FB314F2F484837BC603C38FC6041C771
:10B33000FC6080203C61B8602020BC6178613846A8
:10B340000838083FFEF7C0F9002801D0FDF7F2FDEC
:10B350002F67002211461B20BD62FEF79DFC1B20BB
:10B36000FEF78EFC07B0F0BD214B9A42FAD1826BFA
:10B3700001235B041A438263C26A01231A43C26237
:10B38000C06A6A46184005900C20D3C20520694661
:10B390000007FEF70DFB144E12489036B4601438C7
:10B3A000F46081C6F46080203461B0602020B46114
:10B3B000706130460838083EFEF786F9002801D053
:10B3C000FDF7B8FD2E67002211461C20B562FEF77E
:10B3D00063FC1C20C4E7000000480040001002404D
:10B3E000000400506C000240382200200038014068
:10B3F0000044004070B5C36F202B27D100290BD02B
:10B40000002A09D0012483682403A34206D10369DA
:10B41000002B03D1CB0701D0012070BD0346603360
:10B420001C7D012C12D001241C7500230366084CDE
:10B430000368A34207D05C68240204D51C68012578
:10B44000AD062C431C6000F043FF70BD022070BDB0
:10B450000048004010B500680B49884201D10BA19B
:10B4600008E01049884209D10F48C914012202702E
:10B4700001810EA1092000F0BDF810BD11498842DC
:10B48000FBD111A1F6E700000038014055534152AD
:10B49000543120444D41525820636F6D706C657477
:10B4A000650A000000440040B4000020555341529A
:10B4B000543220444D41525820636F6D706C657456
:10B4C000650A0000004800404C5055534152543129
:10B4D00020444D41525820636F6D706C6574650A4D
:10B4E000000000007047FFB50446806F83B0174628
:10B4F0000D4620285ED1002D0AD0002F08D0A1686B
:10B50000C001814207D12069002804D1E80702D098
:10B51000012007B0F0BD204660300090007D01287A
:10B5200048D0009801210175002080210851212078
:10B53000A067FEF70BFB26464036019037827782E4
:10B540000120A1680003814202D12069002805D0B2
:10B550002F46002500990020087511E00027F9E723
:10B5600000228021204600F0F9FE002815D1002F8E
:10B5700015D02168387888627F1C708A401E7082DE
:10B58000708A019B002806980090E9D10022402192
:10B59000204600F0E3FE002808D00320B9E7288801
:10B5A0002168C005C00D8862AD1CE6E72020A067B9
:10B5B0000020AEE70220ACE7704700000448417865
:10B5C000491C41700AF042FC0BF0B8FBFEE700009A
:10B5D000080D0020000100BF401EFCD27047000093
:10B5E00010B50348FFF7B8FC014807F075FB10BD24
:10B5F000AC20002010B50C460649497F814207D394
:10B600002046FCF75AFA82B2214603480BF04AFC66
:10B6100010BD00005C0A0020A000002010B5044B03
:10B620005B7F834202D303480BF03CFC10BD00005B
:10B630005C0A0020A00000200FB410B50446114899
:10B64000407FA04208D30398FCF737FADA2807D9DD
:10B650000DA10920FFF7CEFF10BC08BC04B01847AD
:10B66000084804AA8430039900F046FF0548843056
:10B67000FCF723FA034982B284312046FFF7CEFF5C
:10B68000EAE700005C0A00204C6F675072696E7434
:10B69000663D3D3E4D65737361676520746F6F2035
:10B6A0006C6F6E670A0000001CB5002118480091FD
:10B6B000164A01910260C163120542608160012354
:10B6C0000222036182630246C16020321170FF24AE
:10B6D0005170C2344462816211730163816104223A
:10B6E00043634261C161FDF763FD002801D0FDF7AE
:10B6F00021FC08480090C001019069460448FDF70C
:10B7000007FD002801D0FDF715FC1CBD00240140F9
:10B71000402000202000001408B50C48016B0122D5
:10B7200011430163006B10400022009011460A2073
:10B73000FEF7B2FA0A20FEF7A3FA002211460B2008
:10B74000FEF7AAFA0B20FEF79BFA08BD0010024094
:10B75000F0B587B014216846FCF783F93A48C26A0D
:10B7600004210A43C262C26A0A400592C16A0125E5
:10B770002943C162C16A29400591C26A02210A4374
:10B78000C262C06A314C084005273F07059000227D
:10B7900021463846FEF7D3F900222D492D48FEF701
:10B7A000CEF90122C0212B48FEF7C9F90122202140
:10B7B0002848FEF7C4F900940024019502946946D4
:10B7C00038460394FEF7F4F810260194694638468B
:10B7D00000960294FEF7ECF8802000901E4801903D
:10B7E000694602943846FEF7E3F8184802941F3081
:10B7F00000906946019503941648FEF7D9F817485A
:10B800000090112001900294694603941148FEF7BC
:10B81000CFF82802009012480190694602943846F9
:10B82000FEF7C6F80F480190694600960294094851
:10B83000FEF7BEF8002211460720FEF72DFA07207A
:10B84000FEF71EFA07B0F0BD0010024002800000B3
:10B8500001C000000004005000001110C0400000B2
:10B86000000031100000211010B5084806490160A1
:10B87000062141600649C1608160FEF76DF900282C
:10B8800001D0FDF757FB10BD003000409C20002088
:10B89000FF0F000010B50C480A490160E121490280
:10B8A000416000218160C160016181610C220162FF
:10B8B00042614162FFF760FC002801D0FDF73AFBCE
:10B8C00010BD000000480040AC20002010B50F481B
:10B8D0000D4901607F228260002141600161416168
:10B8E000FF228161C260C161FFF71CF8002801D00E
:10B8F000FDF720FB042209210448FEF729FE002859
:10B9000001D0FDF717FB10BD0028004010230020D8
:10B9100010B50C480A490160E1214902416000214B
:10B920008160C16001618161C1610C22016242617B
:10B930004162FFF721FC002801D0FDF7FBFA10BDA2
:10B94000003801403021002010B50C480A49016040
:10B95000E1214902416000218160C1600161816192
:10B96000C1610C22016242614162FFF705FC0028BF
:10B9700001D0FDF7DFFA10BD00440040B4210020E3
:10B9800010B50549002208704A600E2803D0002136
:10B9900002200DF059FD10BDEC0D002000B59BB04C
:10B9A00000920B46024605A101A800F091FD01A9F5
:10B9B0000C200CF0A3FD1BB000BD000025642C255D
:10B9C000732C25640000000010B507A10920FFF7C3
:10B9D00011FE0CA12B200CF091FD0B4808224178A0
:10B9E0001143417010BD00004D6F64756C6520659A
:10B9F0006E74657220666C69676874206D6F64652B
:10BA00000A000000342C3000F80D002010B507A10A
:10BA10002B200CF073FD06A10920FFF7EBFD0B486E
:10BA2000F72241781140417010BD0000312C3000E8
:10BA30004D6F64756C6520656E746572206E6F72F3
:10BA40006D616C206D6F64650A000000F80D0020C8
:10BA50007047704701090A2200075143000F401840
:10BA6000C0B270470022014602E00A39C9B2521C36
:10BA70000A29FAD21007000E0843704770B5044631
:10BA80000068C168490613D40021C943C160FEF7AC
:10BA90005DF87D260546F60006E0FEF757F8401BE8
:10BAA000B04201D9032070BD2068C0684006F4D5BB
:10BAB000002070BD10B50348FEF7CCFD0148FEF72D
:10BAC0000FFE10BD102300207047000010B500F0DD
:10BAD0004BF80E4C002240212046FEF730F80022A1
:10BAE00080212046FEF72BF80A20FFF773FD012284
:10BAF00040212046FEF723F80A20FFF76BFD0022C5
:10BB000040212046FEF71BF810BD00000004005045
:10BB100000B585B000208021019000910390694616
:10BB20000248FDF745FF05B000BD000000040050CD
:10BB300010B500F019F80B4C002240212046FDF70B
:10BB4000FEFF012280212046FDF7F9FF0A20FFF7C2
:10BB500041FD012240212046FDF7F1FF0A20FFF7B9
:10BB600039FD10BD0004005000B585B001200190E2
:10BB7000802000900020039069460248FDF718FFDE
:10BB800005B000BD00040050F8B507460025FFF7DA
:10BB9000BFFF174E012240213046FDF7D0FF0A209B
:10BBA000FFF718FD802480213046FDF7C3FF0128F0
:10BBB00000D125430A20FFF70DFD00224021304629
:10BBC000FDF7BDFF0A20FFF705FD012240213046A9
:10BBD000FDF7B5FF0A20FFF7FDFC6408E3D1012F54
:10BBE00003D0FFF7A5FF2846F8BDFFF76FFFFAE780
:10BBF0000004005010B5FFF7B7FF104C00224021A1
:10BC00002046FDF79CFF012280212046FDF797FF8B
:10BC1000012240212046FDF792FF0A20FFF7DAFCBF
:10BC2000002280212046FDF78AFF0A20FFF7D2FC80
:10BC3000002240212046FDF782FF10BD0004005085
:10BC400010B5FFF791FF0E4C002240212046FDF772
:10BC500076FF002280212046FDF771FF012240215E
:10BC60002046FDF76CFF0A20FFF7B4FC012280217B
:10BC70002046FDF764FF0A20FFF7ACFC10BD000072
:10BC80000004005070B5FFF76FFF134D01228021B3
:10BC90002846FDF754FFFFF73BFF012240212846CD
:10BCA000FDF74DFF0A20FFF795FC07E0641CE4B2A6
:10BCB000C82C03D9FFF7C4FF002070BD802128469F
:10BCC000FDF738FF0028F1D1002240212846FDF77A
:10BCD00036FF012070BD00000004005070B505461D
:10BCE000FFF742FF8024254202D000F009F801E06E
:10BCF00000F026F86408F6D1FFF7C4FF70BD00001D
:10BD000010B50E4C002240212046FDF718FF0122FD
:10BD100080212046FDF713FF0A20FFF75BFC01227C
:10BD200040212046FDF70BFF0A20FFF753FC0022BD
:10BD300040212046FDF703FF10BD00000004005025
:10BD400010B50E4C002240212046FDF7F8FE0022DF
:10BD500080212046FDF7F3FE0A20FFF73BFC01227D
:10BD600040212046FDF7EBFE0A20FFF733FC0022BE
:10BD700040212046FDF7E3FE10BD00000004005006
:10BD800010B5FDF723FF10BD30B59BB034216846D8
:10BD9000FBF767FE142115A8FBF763FE20210DA811
:10BDA000FBF75FFE1A4801680324E402A143C214B2
:10BDB00089180160FDF792FF16480169A1430161EE
:10BDC0000E200090FF200130029000240125102059
:10BDD00009940490039505956846FEF79FF90F2096
:10BDE000159090201790169518940021199415A875
:10BDF000FEF76AF82F2012940D9028040E900F94ED
:10BE0000109411940DA8FDF7A3FF1BB030BD0000E6
:10BE10000070004040100240104801688215114334
:10BE20000160C1680E4A1140C16001680D4A1140AD
:10BE3000016081684908490081600168012292041B
:10BE400091430160C168FD2212049143C160002149
:10BE500001610649044888607047000000100240F4
:10BE60000C40FF88F6FFF6FE0078000800ED00E0C9
:10BE700010B5818CC90707D001684A6801235B04AB
:10BE80009A43836A1A434A60818C890707D50168FF
:10BE90004A6801231B049A43C36A1A434A60818C8F
:10BEA000490707D501684A6801239B049A43036B3D
:10BEB0001A434A60818C090707D501684A68012343
:10BEC000DB039A43436B1A434A60818CC90607D54A
:10BED0000268916801231B039943836B19439160A6
:10BEE000818C890607D501688A6801235B039A4320
:10BEF000C36B1A438A60818C490612D503685A685D
:10BF000001210905046C8A4322435A60026C8A426B
:10BF100007D10268516803235B059943436C1943B9
:10BF20005160818C090607D501684A680123DB044A
:10BF3000806C9A4302434A6010BD0000F8B5044685
:10BF4000002680300660FDF701FE05462068006887
:10BF5000124F000709D501212B4600224905204632
:10BF6000009700F0FBF900280DD120680068400719
:10BF70000BD501212B46002289052046009700F0B1
:10BF8000EDF9002801D00320F8BD2020A067E0676C
:10BF90002666603426750020F8BD0000FFFFFF0113
:10BFA00010B5806A0022014640314A834A82FEF77A
:10BFB0006FFF10BD70B5846AA06FE56F2168896856
:10BFC00000260906002906DA212804D1522006534A
:10BFD000204600F06BF820688068400606D5222DC8
:10BFE00004D15A200653204600F047F820468030FE
:10BFF00001681022114301602046FEF749FF70BD21
:10C0000010B501460968806A096889061CD40022B7
:10C010005A210A5201680A68FF2301339A430A60D1
:10C0200001688A68520852008A6001688A68402361
:10C030009A438A602021C167016E012904D10168F9
:10C040000A6810239A430A60016E012902D0FFF7A3
:10C0500001FA10BD5821095AFEF7BAFE10BD10B5FD
:10C06000806A016E012902D0FFF73CFA10BD582109
:10C07000095A4908FEF7ACFE10BD01680A68FF23A3
:10C0800021339A430A6001688A68520852008A6024
:10C09000016E012904D101680A6810239A430A60DD
:10C0A0002021C167002101664166704701680A6866
:10C0B000C0239A430A60202181677047F8B504467F
:10C0C000016880682269E66910436269002532438D
:10C0D0001043754B0A68754E324002430A6020686F
:10C0E0004168032212039143E268114341602168D1
:10C0F000A069994201D0226A10438A680B26360251
:10C10000B24302438A606A4922686A488A420CD173
:10C11000C0688007800F06D001283FD002283BD09E
:10C12000032827D124E0012725E063498A420AD168
:10C13000C0680C2108402DD004282FD008282BD00F
:10C140000C2817D114E05D498A4223D05C498A4209
:10C1500020D09A420ED1C16803208002014019D03C
:10C1600001208002091A19D0091A15D0814201D183
:10C17000082700E010274F495248403986009A426C
:10C1800032D1002F0CD0022F0DD0042F10D0082F49
:10C190007FD126E00027EEE70227ECE70427EAE755
:10C1A000FDF760FF06E00968C90605D4304603E0E4
:10C1B000FDF778FF002872D0626851005118814263
:10C1C00067D81103814264D3010E06025008002390
:10C1D00030185941FBF7B6FB03210902411A3A4ACC
:10C1E00055E00120C003E7E70122E369D20393424F
:10C1F0002BD13B0000F0C1F90906090C4D114D4D42
:10C200004D274D00FDF72EFF09E0FDF73BFF06E04F
:10C210000968C90605D4304603E0FDF743FF00284E
:10C220003DD0616840004A088018FBF761FB80B28E
:10C2300002462649103A8A422BD8491C0140000781
:10C24000400F084329E01046EBE73B0000F095F96A
:10C250000906090C2112212121232100FDF702FFEB
:10C260000AE0FDF70FFF07E00968C90606D430466B
:10C2700004E00EE0FDF716FF002810D061684A08C0
:10C280001018FBF735FB80B20146104A1039914275
:10C2900003D9012503E01046F0E72168C8600020BB
:10C2A0006066A0662846F8BD00480040F369FFEFCD
:10C2B000003801404010024000440040004C004063
:10C2C0000050004000093D00FFFC0F00EFFF0000A0
:10C2D000F8B5044641654030002627460283803782
:10C2E0003E602220E0672546206F603500281CD084
:10C2F0001749C162216F17480863216F16484863C8
:10C30000206F8663236F606D9C461346216802464A
:10C3100060462431FDF720FA002806D0102038604E
:10C320002E752020A0670120F8BD2E7520680168B9
:10C33000FF2201321143016020688168012211430C
:10C340008160206881684022114381600020F8BD2F
:10C3500001C000085FC00008B5BF0008FFB581B08C
:10C3600005460F46044660350A9E39E0701C37D0FA
:10C37000FDF7ECFB0499401AB04222D8002E20D0E1
:10C380002068016849072BD5C069C043000527D440
:10C3900001202168C002086220680168FF22A132E2
:10C3A000914301602068816849084900816020202C
:10C3B000A067E0678034206000202875032005B066
:10C3C000F0BD20680168FF22A1329143016020681E
:10C3D00081684908490081602020A067E067EBE799
:10C3E0002068C1693846884305D0002103988142FE
:10C3F000BCD00020E3E70121F8E7000010B50348B6
:10C40000FEF7AAFD014806F067FC10BD30210020B0
:10C4100010B50348FEF7A0FD014806F05DFC10BD15
:10C42000B42100200A2801D230300AE001460A393E
:10C430001A2901D8373004E0014625391A2902D8D3
:10C440003D30C0B270472420704710B50346407895
:10C450000A4601090A2400076143000F0818C0B208
:10C46000FFF7E0FF10709878010900076143000FA3
:10C470000818C0B2FFF7D6FF5070D878010900073E
:10C480006143000F0818C0B2FFF7CCFF9070187915
:10C49000010900076143000F0818C0B2FFF7C2FF8F
:10C4A000D070587900093030107158790007000FAA
:10C4B00030305071987900093030907198790007C8
:10C4C000000F3030D07100201072082010BD000025
:10C4D0000FB410B504A9074B02AA039800F0B8FCEA
:10C4E000044602A9002001F04FF8204610BC08BC09
:10C4F00004B0184789D5000837B514460846064BDE
:10C500006A46214600F0A4FC04466946002001F07A
:10C510003BF820463EBD000089D500082021020CD2
:10C5200001D010211046020A01D010460839020934
:10C5300001D01046091F820801D01046891E42080A
:10C5400001D0881E7047081A7047F8B5040C8BB2EA
:10C55000264682B25E430D0C1046370C5843360413
:10C5600080190021794116466E43370C3604801934
:10C57000794126466E438919F8BD30B47446641E6D
:10C580002578641CAB4200D21D46635D5B00E31856
:10C5900030BC18474900CA020243100000D00420F2
:10C5A0004A0D01D001221043044A490D914201D1A4
:10C5B00002210843012800D105207047FF07000031
:10C5C0008307FF22DB0E9A408907090E9940002855
:10C5D00008DB830809489B001B1818689043084330
:10C5E000186070470007000F0838830804489B0054
:10C5F0001B18D86990430843D861704700E400E0F5
:10C6000000ED00E0004870478C000020F7B596B0C0
:10C6100014460021A160D160179909914D00CD49C0
:10C620006D088D4205DC179961602060002019B00B
:10C63000F0BDC949C94E8D4238DAD32709997F0523
:10C640000029C74A1799334617DDFBF713FCB5429B
:10C6500006D0C44AC44BFBF70DFC6160206009E0C2
:10C660003A46C14BFBF706FCC04AC14BFBF702FC44
:10C6700061602060012019B0F0BDFBF757FBB542A7
:10C6800006D0B84AB84BFBF751FB6160206009E067
:10C690003A46B54BFBF74AFBB44AB54BFBF746FBB2
:10C6A000616020600020C04319B0F0BDB1498D42E7
:10C6B000179977DC490049080746AF4AAF4B049108
:10C6C000FBF7E6FB0022AE4BFBF730FBFCF7FEF975
:10C6D0000A90FBF7DBFCA24A334603910290FBF77A
:10C6E000D7FB3A46049BFBF7CBFB06460F469D4A19
:10C6F0009D4B03990298FBF7CBFB2A0D01250C9269
:10C7000032463B46FBF7BCFB61602060032D39D00D
:10C710004800410D0C98401A69016918113981428D
:10C7200030DA98492801794408960D900818049742
:10C730004368026803990298FBF7AAFB02460B467E
:10C740000791069004990898FBF794FB06460F465C
:10C75000049B089AFBF794FB079B069AFBF78AFB5E
:10C7600005918949049079440D984018C3688268FE
:10C7700003990298FBF78CFB059B049AFBF77AFB65
:10C780006D1CBDE70998002809DA01226068D2070C
:10C79000504060600A9819B04042F0BD02E00A982B
:10C7A00019B0F0BD09030122090B12050E9089187A
:10C7B0001798109140007549400D40184111C0066E
:10C7C000C00E0D9113902021081A1490002006909D
:10C7D00005250790139800280D980CD04019820069
:10C7E0006B487844875813998F4010184168149803
:10C7F000C1400F4304E0401981006648784447581F
:10C8000010993846FFF7A1FE06460A9138460E9960
:10C81000FFF79BFE8A190A9B8A4201D2012100E0A0
:10C820000021C9188C46AF00694679188B684E689C
:10C83000C318834201D2012000E000209619361867
:10C84000002802D0964202D903E0964201D201208C
:10C8500000E00020624612184E6068468B60C251AC
:10C8600028466D1E0028B5DC0121029849074018B2
:10C87000800F1390029805998000039E049D0B91F0
:10C88000FBF704FC074630460891FBF713FC1D221A
:10C89000D243FBF7DDFB10900F912846FBF70AFC13
:10C8A0003D22D243FBF7D4FB0E900D910B98FBF782
:10C8B00001FC5D22D243FBF7CBFB0B910C900D9B4F
:10C8C0000E9AFBF733FA0F9B109AFBF72FFA3A46B2
:10C8D000089BFBF72BFA00250E463A462846089B94
:10C8E000FBF7C8FA0F9B109AFBF7C4FA0D9B0E9A40
:10C8F000FBF7C0FA0B9B0C9AFBF7C2FA264A274BB0
:10C90000FBF7C6FA07460D91254A264B31462846C5
:10C91000FBF7BEFA3A460D9BFBF708FA0F461522C5
:10C920000C9092061D4B31462846FBF7B1FA3B4668
:10C930000C9AFBF7FBF9179A002A05DA139A524270
:10C9400013920122D207514061602060139819B000
:10C95000F0BD0000FB21E93F7CD90240FB21F93FFB
:10C96000000040543163621A61B4D03D7370032EED
:10C970008A19A33BFB21394183C8C96D305FE43F6D
:10C980000000E03F46DE000006DE00000BFCFFFF7B
:10C99000BADD0000A0DD0000182D4454FB21F93D54
:10C9A0003326A611460B113CF0B51FB44E00F920FA
:10C9B0007608800584B00F46864204DA0498FCF7B6
:10C9C00085F8002838D0049A3B4610461946FBF7F4
:10C9D0005FFA044602462C480D460B460621784471
:10C9E00000F05CF822462B46FBF752FA01910090CA
:10C9F0003946079B069A0498FBF74AFA07460291C4
:10CA000020462946019B009AFBF742FA3A46029BD0
:10CA1000FBF730FA074600220091D2432046294610
:10CA2000FBF716FB194A96420ADA3A46009BFBF7D7
:10CA300021FA0022164B23E00020154909B0F0BD71
:10CA4000144A964202DD0024134D03E001225205F0
:10CA5000B51A002422462B46FBF70CFA0646019134
:10CA600022462B4600200A49FBF704FA0D460446ED
:10CA70003A463046009B0199FBF7FCF922462B46CB
:10CA8000FBF7FEF909B0F0BD56DB00003333D33FAE
:10CA90000000F03F0000E93F0000D23FF8B5044637
:10CAA0004F1EC8000838211815461E4608684968F8
:10CAB0003A4606239A4310D02A463346FBF7E8F954
:10CAC0003A46D200083AA3181A687F1E5B68FBF743
:10CAD0002DF906223B469343EED1022F23D0042F9B
:10CAE00011D0062F2FD12A463346FBF7D1F9E36A3E
:10CAF000A26AFBF71BF92A463346FBF7C9F9636ABA
:10CB0000226AFBF713F92A463346FBF7C1F9E369BA
:10CB1000A269FBF70BF92A463346FBF7B9F96369BB
:10CB20002269FBF703F92A463346FBF7B1F9E368BC
:10CB3000A268FBF7FBF82A463346FBF7A9F96368BE
:10CB40002268FBF7F3F8F8BDF0B51FB405464800BE
:10CB50000C46F9214008890586B088420BDA284640
:10CB60002146FFF717FD042801D100F089F8284677
:10CB700021460BB0F0BD2A46234610461946FBF766
:10CB800087F906460F462A462346FBF781F90090AF
:10CB90002548019132463B4605217844FFF77EFF48
:10CBA000029010980391002829D0204A204B019927
:10CBB0000098FBF76DF90490059168460FC8FBF7E4
:10CBC00067F9002201910090D24309990898FBF778
:10CBD0003FFA019B009AFBF74DF932463B46FBF7C3
:10CBE00057F9099B089AFBF745F9059B049AFBF74F
:10CBF00041F92A462346FBF743F90BB0F0BD0B463B
:10CC000030463946029AFBF743F9084A084BFBF7CE
:10CC10008DF8019B009AFBF73BF92A462346FBF768
:10CC200085F80BB0F0BD00009ADA00004955555563
:10CC30005555C5BF002210B5134610460149FBF7F4
:10CC40008FF910BD0000F03F10B50122FBF700FA8C
:10CC500010BD10B5FBF76AF810BD002210B51346E1
:10CC600010461146FBF77CF910BD000010B50721F6
:10CC7000024A00200907FBF7EBF910BD0103000091
:10CC8000034A10B500201107FBF7E2F910BD0000C0
:10CC900001FDFFFF01480068704700008C00002084
:10CCA00002E008C8121F08C1002AFAD17047704775
:10CCB000002001E001C1121F002AFBD170470000D3
:10CCC00001490860704700008C000020F0B51FB4D7
:10CCD00086B00998089A030D0021024314D05148E8
:10CCE000514A1818504305141198012810981AD069
:10CCF000281A401C00264D4F4D4900960191049082
:10CD0000002812DA444211E01198012449A30128B5
:10CD100001D11098C1430698119A84600360C260E3
:10CD200041600BB0F0BD4042E4E70446210500201D
:10CD30003F4A001C51410391029012E0E00707D0E6
:10CD400032463B4601990098FBF7A2F8019100900A
:10CD500032463B4610461946FBF79AF806460F4600
:10CD60006410002CEAD10498039B0028029A0999C8
:10CD7000089806DAFBF78CF8019B009AFBF788F815
:10CD800005E0FBF7EDF8019B009AFBF7E9F8044694
:10CD90000E460022284BFBF7F5F903D80020C043CC
:10CDA000014607E00022254B20463146FAF7BEFF38
:10CDB000FBF76EFC102409E0002C0ADB0A2200239A
:10CDC000FAF7C0FD079B30321A55641E02460A432B
:10CDD000F2D11122641C079B121B1C19119B012B01
:10CDE00003D0012308430ED10AE0084304D01120E8
:10CDF00010900020119077E71098151A6D1E0BE027
:10CE00001098824202DD00236D1C03E0824201DAA9
:10CE100000236D1E002BEED0069811998260C16030
:10CE200030C07EE701FCFFFF104D00000000144001
:10CE30000000F03F300000000000F0430000E03F41
:10CE400030380A2801D201207047002070470000C6
:10CE5000FFB597B00646002518E2252877D10024B3
:10CE60002746FD49049400E00443761C32780120F3
:10CE7000203A90400842F7D130782A280ED002227A
:10CE8000307801463039092916D804990A235943C4
:10CE9000303940181443761C0490F1E7189802C802
:10CEA00004911890002904DA012040030443484209
:10CEB000049002200443761C30782E2814D10420DC
:10CEC00004437078761C2A2809D11898761C80C8EB
:10CED000189009E00A214F43303FC719761C30787B
:10CEE000014630390929F5D930786C2810D006DC94
:10CEF0004C281AD068280ED06A2817D104E074286C
:10CF000013D07A2812D110E00120400504430CE030
:10CF10000121090501E0032109050C4371788142D3
:10CF200003D1012000052418761C761C307811905E
:10CF300066280BD013DC58287DD009DC00287BD074
:10CF40004528F6D04628F4D047281AD1A5E118E0A4
:10CF5000632835D0642870D0652812D19DE17028EF
:10CF60006CD008DC6728F1D069287BD06E280DD002
:10CF70006F2806D1BAE073282ED0752871D0782892
:10CF800059D01A9A199990476D1C7EE16002400FA2
:10CF9000022809D003280DD00428189801680DD064
:10CFA0000D60001D189070E11898EA1701680D6077
:10CFB0004A60F6E7189801680D80F2E70D70F0E717
:10CFC00018986A4601781172001D1890002050725E
:10CFD00002A80090012005E0189802C818900020CF
:10CFE0000091C04361070DD5002101E00199491C62
:10CFF0000191B94212DA8142F8DB009A515C0029B2
:10D00000F4D10BE0002101E00199491C019181421A
:10D01000FADB019A0099895C0029F5D101990498FD
:10D020001A9B471A21463846199A00F097FA019937
:10D03000401945180BE04FE02CE113E04EE000985A
:10D0400000990078491C00911A9A19999047019803
:10D05000401E0190401CF2D1214638461A9B199A75
:10D0600010E137E00A200021009001916002410F99
:10D07000022907D0189A01CA1892C21794460329A8
:10D0800008D00AE01898C01DC108C90005C9189148
:10D09000944607E000B2C2179446042902D140B278
:10D0A000C1178C4600226146944506DA0A460021E3
:10D0B000404291418C462D2102E0210504D52B21CF
:10D0C0006A461173012103E0E10701D02021F7E74F
:10D0D000029155E00A200AE0102008E0102000909C
:10D0E0000021042004430191082703E008200021C7
:10D0F000019100906002410F022907D0189A01CADD
:10D10000189200229446032908D008E01898C01D00
:10D11000C108C90005C91891944603E080B20429EA
:10D1200000D1C0B200210291210729D5119970299F
:10D1300006D0009A1021019B4A401A4305D00EE008
:10D1400040216A461173012108E06146014306D07F
:10D1500030216A4611731199517302210291009A8C
:10D160000821019B4A401A430AD16146014301D17B
:10D17000610705D530216A46117301217F1E029196
:10D180001199582904D035A10E910DA90D910DE0EA
:10D1900037A1F9E76146019B009AFAF7D3FB0E9B92
:10D1A0008C469B5C0D9A521E0D9213706146014392
:10D1B000F0D10D9805A9081A20300190600703D519
:10D1C00001200004844300E001270198874201DD2B
:10D1D000381A00E0002001990090411802980918BF
:10D1E0000498401A0490E00306D421461A9B199A29
:10D1F000049800F0B3F94519002706E003A81A9A2D
:10D20000C05D199990476D1C7F1C02988742F5DB21
:10D21000E0030CD521461A9B199A049800F09EF958
:10D22000451904E01A9A3020199990476D1C00990D
:10D23000481E00900029F5DC08E00D980D99007853
:10D24000491C0D911A9A199990476D1C0199481E15
:10D2500001900029F1DC63E109280100303132330B
:10D260003435363738396162636465660000000022
:10D27000303132333435363738394142434445460C
:10D280000000000000F05AF94519761C307800289B
:10D2900000D0E2E528461BB0F0BD600700D40627A9
:10D2A0001898C01DC108C90048680A680831C30F32
:10D2B000DB071891190001D09CA108E0210501D5D8
:10D2C0009BA104E0E10701D09AA100E09AA14300EC
:10D2D00011985B08109165280CD006DC452809D010
