:020000040800F2
:1000000058330020D500000849270008F5230008D0
:1000100000000000000000000000000000000000E0
:10002000000000000000000000000000DD270008C4
:10003000000000000000000091270008DF270008F2
:10004000E7000008E7000008CD270008E7000008E7
:10005000E7000008E7000008E7000008E7000008E4
:1000600000000000E7000008A5090008B509000825
:10007000E7000008E7000008E7000008E7000008C4
:10008000E7000008E7000008E700000800000000A3
:10009000E7000008E7000008E7000008E7000008A4
:1000A000E7000008E7000008E7000008752D0008D9
:1000B000892D0008E7000008000000000000000093
:1000C0000348854600F0E6FA0048004775400008FE
:1000D000583300200448804704480047FEE7FEE705
:1000E000FEE7FEE7FEE7FEE781280008C100000802
:1000F00030B50B46014600202022012409E00D46C0
:10010000D5409D4205D31D469540491B2546954047
:1001100040191546521E002DF1DC30BDF0B51FB45C
:100120000646002082B005464024019100901BE065
:10013000019922460F46304600F09CF8049A059B30
:10014000801A994110D310461946224600F082F8D1
:10015000361A8F410197224601200021009F00F0AE
:1001600079F838184D4100902046641E0028DFDCE5
:10017000019B00982946324607B0F0BD03460B4369
:100180009B0703D009E008C9121F08C0042AFAD24D
:1001900003E00B780370401C491C521EF9D27047D3
:1001A000D2B201E00270401C491EFBD2704700220F
:1001B000F6E710B513460A4604461946FFF7F0FF66
:1001C000204610BD30B505462A460B4610781C78EF
:1001D000521C5B1C002801D0A042F7D0002C03D099
:1001E000002802D06D1CEFE7284630BD10B504464C
:1001F00005E00B780370401C002B00D0491C521EF8
:10020000F7D2204610BD421C0178401C0029FBD1CA
:10021000801A704703460A780270401C491C002A65
:10022000F9D1184670470321001D401E03781202C1
:100230001A43491EF9D51046704770B5064602F0BC
:1002400053FE046805460A220021304600F024F8D7
:100250002C6070BD10B5202A04DB0146203A914085
:10026000002010BD914020239C1A0346E34019430F
:10027000904010BD10B5202A04DB0846203AD0403B
:10028000002110BD0B46D340D0402024A21A91403B
:100290000843194610BD0000F7B5009C0F46002624
:1002A0002578641C002D05D000F01AFA0068405D26
:1002B000C007F5D12B2D02D02D2D18D0641E394644
:1002C0002046029A00F010FA002F04D03968A142AB
:1002D00001D1009939607105022400290BDA4042EE
:1002E000002803DD02F000FE0460A007FEBD01202F
:1002F00080020643E3E70028F8DA02F0F5FD046027
:100300000048FEBDFFFFFF7FF0B507460846584096
:1003100087B0C00F049048000E46590040084908B5
:10032000BC1A884105D2384631461E4617460B4650
:1003300002465800400810434CD0300D0390400551
:100340005900400D490D0590401A0290402872DA7C
:1003500018030121000B090508430190049800923D
:10036000002805D001995242002088410092019056
:10037000029840210A1A01990098FFF76BFF054681
:100380000C466B4607CB00F097F9C0197141039AF0
:100390000E0D0023D71756401A467A40164344D014
:1003A000049A002A2DD0029A012A039A15DC12051C
:1003B000C01A914101263605001C7141D20F059EDD
:1003C000D2070093019202962A46234600F0ECF9E8
:1003D00007B0F0BD38463146FAE71605224A0F4607
:1003E000B218C01AB74101210905001C4F4100187D
:1003F0007F41114618187941E20F10436D1964418D
:1004000013E0E2076D0815436408C2071443039A1A
:1004100001261205C01A91413605001C7141CE0714
:10042000400830434908C01851412A46234600F08D
:10043000AEF9CDE7FFE7049801224000C117121A78
:1004400000238B4104983146C417381AA141EEE7C6
:1004500030B40124E407634030BC55E730B40124D4
:10046000E407614030BC4FE70000E0FFF0B51FB487
:1004700088B00B990998002448400999C00F490099
:1004800049080991C0070B990090490049080B9150
:1004900009990898A64608431CD00B990A98084366
:1004A00018D0099801244000420D4800410D0998D8
:1004B00024050003000B204309900B980003000B58
:1004C00020430B9050181C494018002201901446FC
:1004D000104605E0002001460DB0F0BD032801DA0A
:1004E000034600E003239C46C11A0AAE0AE05F00FF
:1004F00008ADED5B4F00F75B7D430027AA187C41F8
:10050000491C5B1E6145F2DD410004AB5A522104D7
:10051000120C0A43240C401C0828DFDB01980290CF
:100520000099704601910090059B049A07990698DE
:1005300000F03AF9D0E700000DFCFFFFF0B50C46E3
:100540005C4085B0E40FE40703944C000026640887
:1005500059009446490802460296224321D0624639
:100560000A431ED06200570D4A000E032303550DA7
:10057000012402462C492405781B1B0B360B40181E
:1005800023432643614600901C46501AB44103D3CE
:100590000098401C009002E0921800985B410028EF
:1005A00003DA0020014605B0F0BD00200121090555
:1005B0000746864611E064461D46141BB54106D326
:1005C0006546521BB341744607430C43A646CD070C
:1005D00040084908284392185B4105460D43EAD17B
:1005E0001046184313D060461946504071400843E6
:1005F00006D06046101AB34106D20122002306E05D
:1006000000220123DB0702E00122D24353100098AD
:1006100074460105381C6141029C039D0019694123
:1006200000F0B5F8BFE70000FD0300004A00090331
:100630000123090B1B0519430A4B10B5520D9A42B1
:1006400002DA0020014610BD064B34339A4203DC27
:100650009A1AFFF70FFE10BD034BD218FFF7FAFDF1
:1006600010BD0000FF030000CDFBFFFF10B5002907
:1006700004DB0124E40740428C412146002B04DBCB
:100680001C460123DB075242A341994200D190420C
:1006900010BD0000064C0125064E05E0E36807CCBE
:1006A0002B430C3C98471034B442F7D3FFF70CFDB2
:1006B000706400089064000810B5202A06DBCB1790
:1006C0000846203A1041C1170B4306E00B46134180
:1006D000D0402024A21A91400843194610BD0000C2
:1006E000004870476C640008F7B582B0029C002790
:1006F0002078641C15460197302802D0002D15D0B3
:1007000015E020780127641C782804D0582802D0EE
:10071000002D09D00BE0002D01D0102D07D10027AE
:1007200010252078641C02E0082500E00A25002638
:10073000009610E00099012769430818020C294629
:1007400080B2714300908E183804864201D3012094
:1007500001902078641C294600F078F80028E9DA36
:100760000398002805D0002F01D0641E00E0029CF1
:1007700004600198002806D002F0B6FB0221016057
:10078000C81E05B0F0BD009930040843F9E710B564
:10079000002B08DA0024401C614192185B411A4387
:1007A00001D14008400010BDF0B51FB482B005462D
:1007B0000C0003D0084602F073FB02E002F070FB6D
:1007C00020300246009021462846FFF743FD049B57
:1007D000059A04460F4618431143084314D018469F
:1007E00010431BD0009840210A1A18460599FFF7BC
:1007F00041FD05460E46009A05990498FFF72AFD2B
:10080000084305D0012004E02046394607B0F0BD7A
:100810000020C11705430E432C43374300990E981F
:100820006305401A7905E40A00220C43FD0A0A30E8
:1008300002D500200146E9E70105101969410C9C29
:100840000D9D00196941FFF7A2FFDFE73A2800D2AA
:100850003038202302469A43412A01D310463738C4
:10086000884201D30020C04370470000F7B5224DF5
:1008700000262C681746002C1CD10C2003F0F2FC3B
:100880002860002832D087710660019803F0EAFCE6
:1008900029680028086008D0019A0099FFF76EFCCB
:1008A00028680199818086601FE0084603F086FB76
:1008B0002E601FE0A068002815D10C2003F0D2FCA8
:1008C000051E13D0AF712E60019803F0CBFC286099
:1008D00000280CD0019A0099FFF750FC0198A880DD
:1008E000AE60A560A8680400E4D10120FEBD2846E2
:1008F00003F064FB0020FEBD0C000020FFB51E4C81
:100900000546206881B01F460E4600281DD00446CB
:1009100040690028FBD1182003F0A4FC6061002886
:1009200010D003990161002141611349091D096833
:1009300081604919C16047704560067031460FA05B
:1009400001F0B0FD012005B0F0BD182003F08AFCD5
:10095000094920600670091D096881604919C16054
:10096000477045600399016100214161314608A04B
:1009700001F098FD0020E6E7040000204372656165
:100980007465206E6F64652069643D25640A00000B
:1009900043726561746520486561642069643D2522
:1009A000640D0A0010B5024800F04EF910BD0000B9
:1009B000AC0E002010B5024800F046F910BD000052
:1009C000F40E002030B5446C1C252C400125A540B8
:1009D000046C6560046863608368102B036803D04F
:1009E00099600068C26030BD9A600068C16030BD27
:1009F0007047000010B5084900224A6107494B685A
:100A00004C1523434B604B68082423434B60C009BB
:100A1000C001026010BD00003C0F00200020024019
:100A200010B5214A00219069C305204804D54169C9
:100A3000022319434161911593699B0505D54369CB
:100A40000124234343616302194393695B0505D580
:100A50004369082423434361E301194393691B0558
:100A600005D5436904242343436163021943936911
:100A70009B0405D543691024234343616302194352
:100A800093699B0304D5446920231C4344611943A3
:100A90009369DB0305D54369402423434361A002E6
:100AA0000143916110BD0000002002403C0F002076
:100AB00070B5054600F0C6FB0646184C0AE0681CF7
:100AC00008D0002D04D000F0BDFB801BA84201D946
:100AD000032070BDA069C007F1D1A069800701D5CE
:100AE0000220A061A069C00511D4A06980050ED4C0
:100AF000A06940050BD4A069000508D4A069800452
:100B000005D4A069800302D4A069C00303D5FFF710
:100B100087FF012070BD002070BD00000020024052
:100B200030B5084A084B08E00578140A55402A06F3
:100B3000D20D9A5A401C6240491E0029F4DCD04371
:100B400080B230BDFFFF0000885A000830B5014672
:100B500020314A790023022A04D00422C2630B7197
:100B6000012030BD026814680E25AC431460026891
:100B70001468640864001460446C1C221440012250
:100B80001546006CA54045604A7118460B7130BD92
:100B900070B50024014620314A79022A03D004218D
:100BA000C163012418E0026813680E25AB4313608B
:100BB000026813685B085B001360436C1C221340DF
:100BC000012215469D40036C5D604A7100220A7146
:100BD000816B002900D08847204670BD70B50400A5
:100BE00029D0206801684908490001601348256838
:100BF00014212818FFF77CFA8000606410482064F4
:100C000000202860626C1C210A4001239340226C62
:100C100053600B4A8032936A656C0D400F21A940E6
:100C20008B439362E06220636063A063E0632034DF
:100C30006071207170BD012070BD0000F8FFFDBF24
:100C400000000240C06B7047F0B4016C0D68016891
:100C50000C68466C1C2304221E401746B7402F42E6
:100C60000ED067070CD50C68A40602D40C68944318
:100C70000C60416C19408A40016C4A60016B1AE0BB
:100C80000227B74002462F402032002F17D0A70777
:100C900015D50C68A40605D40C680A25AC430C6075
:100CA00001215171446C02211C40036CA140596028
:100CB00000211171C16A002918D0F0BC084708272B
:100CC000B7402F4212D0240710D50C680E25AC4334
:100CD0000C60446C01211C400B46A340046C636013
:100CE000C163517100211171416BE4E7F0BC7047A1
:100CF00070B504003CD01F48256814212818FFF760
:100D0000F7F9800060641C482064022120462030EE
:100D10000246417129681948E3680140A068666984
:100D20001843236933431843A3691843E3691843FD
:100D3000236A1843084328600121A0688903884278
:100D400010D00D488030836A656C1C210D400F2641
:100D5000AE40B3438362656C63680D40816AAB400B
:100D60000B4383620020E06301215171107170BD5B
:100D7000012070BDF8FFFDBF000002400F80FFFFA3
:100D8000F8B504468C46203001790025012909D0A8
:100D90000126067141790027012905D00771022536
:100DA0002846F8BD0220F8BD02214171E7632068A2
:100DB000016849084900016061462046FFF702FECC
:100DC000206B00282068016801D00E2205E0042273
:100DD00091430160206801680A2211430160206884
:100DE000016831430160DBE7034841680122114398
:100DF000416000207047000000200240F8B5124D0D
:100E00000746287C14460E46012807D00120287486
:100E10000E48FFF74DFE002802D00CE00220F8BD7E
:100E200000216961022F09D0012F09D0002F09D0BC
:100E30000648FFF73DFE00212974F8BD3460FAE74B
:100E40003480F8E73470F6E73C0F002050C3000010
:100E500009494868C0070DD0EFF3108072B6074A01
:100E6000CA60074ACA6080F310884868C00701D08A
:100E7000012070470020704700200240EFCDAB8971
:100E800005040302F8B51A4E0546307C0F460128CA
:100E900007D0012030741748FFF70AFE010002D086
:100EA00021E00220F8BD0020C04338606C6814E0E7
:100EB0002046FFF79FFD0F48FFF7FAFD01460E4859
:100EC000426808239A434260426843159A4342604D
:100ED000002901D03C6006E08034A8686A68C0013F
:100EE0008018A042E4D8002030740846F8BD000005
:100EF0003C0F002050C3000000200240054841681C
:100F000002221143416041680122114341600020E7
:100F10007047000000200240F8B50C4C1646207CBB
:100F20000F46012808D0012020740948FFF7C0FDB2
:100F30000025002802D006E00220F8BD65613E6071
:100F40000348FFF7B5FD2574F8BD00003C0F0020F5
:100F500050C3000011484168C9070BD0EFF310815E
:100F600072B60F4AC2600F4AC26081F310884168AE
:100F7000C9070ED1416889070DD5EFF3108172B60C
:100F8000094A0261094A026181F3108840688007BA
:100F900001D501207047002070470000002002406A
:100FA000EFCDAB8905040302BFAE9D8C161514135B
:100FB000F0B5002362E001249C4022460A405CD048
:100FC00006685F000325BD402E43AC460660DD0881
:100FD000AD002D182E6AAE465D07EF0E0F25BD4001
:100FE000AE4375462E6286686546AE4386604568A8
:100FF000A5434560C4686546AC43C4609D08214C68
:10100000AD002D19AF689C07260F0F24B440A446ED
:101010003C4005273F07B84201D1002719E01A4F8D
:10102000B84201D1012714E0184FB84201D102277C
:101030000FE0174FB84201D103270AE0154FB8421D
:1010400001D1042705E0144FB84201D1052700E083
:101050000627B740A74210D1AE686446A643AE60EB
:101060000E4C256895432560656895436560A568C5
:101070009543A560E5689543E5605B1C0A46DA4048
:1010800099D1F0BD0000014000040050000800505C
:10109000000C005000100050001C005000040140E3
:1010A000F8B500230124A7E027469F403A4070D0BE
:1010B0004D68022D01D0122D14D1DD08AD002D1880
:1010C00000952D6A5E07AC46F50E0F26AE46AE4083
:1010D0006546B543AC460E697546AE4065462E433F
:1010E000009D2E624D68012D05D0022D03D0112DDB
:1010F00001D0122D16D185680326AC465D00AE46A0
:10110000AE406546B543AC46CE687546AE406546D2
:101110002E43866046680D79BE43ED06ED0F9D4077
:101120003543456006685F000325BD40AE46AE43CB
:101130000D79B446AE07B60FBE4065462E43066035
:10114000C6687546AE438D68BD403543C5604D6881
:10115000ED0050D52B4D6E6B26436E639E082A4DD5
:10116000B6007519AC46AD689E07360F0F27B7401D
:10117000BD4305273F07B84201D100271AE0234F9E
:10118000B84201D1012715E0214FB84202D1022710
:1011900010E030E01F4FB84201D103270AE01E4F94
:1011A000B84201D1042705E01C4FB84201D1052700
:1011B00000E00627B7402F436546AF60184D2E6804
:1011C0004F689643FF0300D516432E606E684F6844
:1011D0009643BF0300D516436E60AE684F689643D2
:1011E000FF0200D51643AE60EE684F689643BF021B
:1011F00000D51643EE605B1C0A681546DD4000D042
:1012000052E7F8BD00100240000001400004005009
:1012100000080050000C005000100050001C00504E
:10122000000401400069084000D001207047426975
:101230004A4042617047002A01D081617047816253
:101240007047000001480068704700001800002047
:1012500070B504000FD02168134808602168134856
:10126000086003CC41602068083C21688860FFF773
:10127000E9FF054608E0012070BDFFF7E3FF401BD2
:10128000302801D9032070BD2068C0680028F4D13F
:1012900020680269E1688A4201D0016101E00449E5
:1012A0000160002070BD0000CCCC0000555500004E
:1012B000AAAA0000006802490160002070470000EF
:1012C000AAAA000002480168491C0160704700009A
:1012D0001800002010B5084800240168402211437E
:1012E0000160204600F00AF8002801D0012401E046
:1012F00000F01CF8204610BD0020024070B50546E5
:1013000009487D210024C9000068FEF7F1FE00F0C5
:101310005BFD002801D0012404E000222946501E74
:1013200000F024F8204670BD1C0000200448416BEA
:10133000012211434163816B0204114381637047B1
:1013400000100240C106C90E012088400149086012
:101350007047000080E100E0C106C90E012088400E
:10136000014908607047000000E100E010B501F09D
:10137000EDF910BDBFF34F8F04490348C860BFF3B8
:101380004F8F00BFFDE700000400FA0500ED00E00C
:1013900002480168821511430160704700700040E7
:1013A000F8B504460078594D800672D5574E00278F
:1013B000403EB06BC00004D4B06BA9050843B063D5
:1013C000012753480168C90511D4016882151143EA
:1013D0000160FFF737FF009005E0FFF733FF00994A
:1013E000401A642837D84A480068C005F5D53268E5
:1013F0000321090560680A400140914208D0810339
:10140000890F032904D13168890301D50120F8BD72
:101410002A69032109040A4022D0084090421FD0C3
:10142000207880061CD528692A6988430121C904CF
:101430000A432A612A698A432A612861C0050FD5B7
:10144000FFF700FF009008E0FFF7FCFE0099411A4B
:101450003048814201D90320F8BD28698005F3D5C1
:1014600061688803800F032805D132680005824334
:1014700001400A4332602869032261681204114066
:1014800008432861002F04D0B16B0120000781437D
:10149000B1632078C00705D0E868A16880088000A3
:1014A0000843E8602078800705D5E8680C21884368
:1014B000E1680843E8602078400706D5E868032122
:1014C0008902884321690843E8602078000706D52F
:1014D000E86803210903884361690843E8602088BC
:1014E000C00506D5E868032109048843A1690843BB
:1014F000E8602078000606D5E8680321890488435F
:10150000E1690843E8600020F8BD00004010024097
:101510000070004088130000F8B50E4605007DD02D
:1015200053480068C007C00FB0420AD25048016853
:1015300049084900314301600068C007C00FB0424C
:1015400071D128784B4C800705D5E068F02188439D
:10155000A9680843E0602878C00752D0686802286C
:1015600017D0032818D02168012818D08905002930
:1015700059DAE168890889000143E160FFF762FEFA
:1015800069680746022912D003291CD0012926D0F8
:1015900033E021688903EAE721688901E7E7490721
:1015A000E5E7FFF74FFEC11B3348814223D8E068CF
:1015B0000007800F0228F4D123E0FFF743FEC11B90
:1015C0002D48814217D8E0680007800F0328F4D126
:1015D00017E0FFF737FEC11B274881420BD8E068B0
:1015E0000007800F0128F4D10BE0FFF72BFEC11B91
:1015F0002148814201D90320F8BDE0680007800F2F
:10160000F3D11B480168C907C90FB1420DD9016860
:101610004908490031430160006800E003E0C00769
:10162000C00FB04201D00120F8BD2878400706D590
:10163000E068072109028843E9680843E0602878E8
:10164000000707D5E0680721C90288432969C90056
:101650000843E06000F036F8E168084A0906090F1F
:10166000515CC840064908600020FFF747FEF8BDFE
:10167000002002400010024088130000C9630008E7
:101680001C000020044805490068C968044A49054F
:10169000490F515CC84070471C00002000100240F8
:1016A000E2630008044805490068C968044A8904DF
:1016B000490F515CC84070471C00002000100240D8
:1016C000E263000810B5184AD1680C2008400428CD
:1016D0000BD0082810D00C2810D050680004410FFF
:1016E0000120C003491C884010BD1068C00601D508
:1016F0000E4810BD0E4810BD0E4810BD88020E4B9E
:10170000000F185C0902D368890F491CDB0301D55F
:10171000084A05E01268D20601D5044A00E0044AEE
:101720005043FEF7E5FC10BD0010024000093D00EB
:101730000024F40000127A00D9630008FEB5050009
:101740007ED0FE4CE7680C20E668074001200004CC
:1017500006402878C00747D0082F05D00C2F0AD1A3
:1017600001200004864206D1206880033CD56868C9
:101770000028E5D038E0012069680004814203D1E7
:1017800021680143216011E0052301221B0492041A
:101790009942216802D111432160F1E78143216020
:1017A000216801400091206890432060686800280B
:1017B0000DD0FFF747FD009005E0FFF743FD0099CE
:1017C000401A64287ED820688003F6D50CE0FFF725
:1017D00039FD009005E0FFF735FD0099401A6428B7
:1017E000F0D820688003F6D4287880075CD5E868B4
:1017F000810604D5226820210A43226088430923F8
:10180000042F0DD00C2F01D1002E09D000283BD081
:101810002168994301432160FFF714FD064627E044
:101820002168490701D500288AD061681F22120269
:1018300091432A691202114361602168994300E0D3
:101840008EE101432160FFF73DFFE16809060A0FC1
:10185000BB49895CC840BB4908600020FFF74EFDCA
:10186000002873D120E0FFF7EDFC801B0228A9D8E7
:1018700020684007F7D560681F210902884329695D
:101880000902084360600FE02068400840002060C3
:10189000FFF7D8FC064604E0FFF7D4FC801B0228C3
:1018A00090D820684007F7D42878C00660D5002F6C
:1018B0000DD0A86900284AD02068FF2101310843D3
:1018C000206000E0C4E0FFF7BDFC06462CE0206885
:1018D000800502D5A8690028A6D0606807214903C1
:1018E0008843296A084360606068297F0002000A13
:1018F000090608436060286A410B0120C003491CA7
:101900008840E16809060A0F8D49895CC8408D4905
:1019100008600020FFF7F2FC002817D128E0FFF74D
:1019200091FC801B0228A2D820688005F7D560684A
:10193000072149038843296A084360606068297F5A
:101940000002000A09060843606011E0E1E0216836
:10195000FF20013081432160FFF774FC064604E05C
:10196000FFF770FC801B022872D820688005F7D42E
:101970002878754E000724D568690028306910D092
:10198000012108433061FFF75DFC009005E0FFF79F
:1019900059FC0099401A02285AD830698007F6D5B8
:1019A0000FE0400840003061FFF74CFC009005E07C
:1019B000FFF748FC0099401A022849D8306980078F
:1019C000F6D42878400765D500200290A06BC000AF
:1019D00006D4A06B012109070843A06301200290EF
:1019E0005A480168C90511D4016882151143016084
:1019F000FFF728FC009005E0FFF724FC0099401A4F
:101A0000642825D851480068C005F5D5FF20AA688C
:101A10000130824203D131690143316111E001217A
:101A20008902002A07D005231B029A4203D132699A
:101A30000A433261EFE73269824332613069884399
:101A40003061A86800280FD0FFF7FCFB009007E08A
:101A50005EE0FFF7F7FB0099411A3D48814257D8F5
:101A600030698005F5D50DE0FFF7ECFB009006E04E
:101A7000FFF7E8FB0099411A3548814248D83069A0
:101A80008005F5D40298002804D0A16B012000073E
:101A90008143A163686A002864D00C2F3ED00126E0
:101AA00036060228206805D0B0432060FFF7CAFB45
:101AB00005462FE0B0432060FFF7C4FB074604E073
:101AC000FFF7C0FBC01B022822D820688001F7D492
:101AD000E96AA86AE2680843296BFD231B049A435C
:101AE00011430843E060206830432060FFF7AAFB01
:101AF000054604E0FFF7A6FB401B022808D8206833
:101B00008001F7D52EE0FFF79DFB401B022801D98D
:101B10000320FEBD20688001F5D423E00128F8D021
:101B2000E06801210904AA6A0140914218D10F21FD
:101B30008904EA6A0140914212D10BE00010024090
:101B4000C96300081C0000204010024000700040E3
:101B500088130000032189050840296B884201D0C1
:101B60000120FEBD0020FEBDF7B505460446203528
:101B7000287882B0012814D00120287002206870D3
:101B80002168CA2048622168532048622068806822
:101B900000264005FF27002812DAFFF753FB0090CC
:101BA0000AE0022005B0F0BDFFF74CFB0099411A96
:101BB0007D20C00081421CD82068C0684007F3D453
:101BC0002068816801229202914381602068C16887
:101BD00080221140204A8918C160FFF733FB009032
:101BE0000DE0FFF72FFB0099411A7D20C0008142D4
:101BF00005D920684762032068702E70D2E72068FC
:101C0000C0684007EDD52168039848612068816865
:101C1000C908C900816020688168049A1143816005
:101C20000E480268012109050A43026082680A43DE
:101C300082602068816801229203114381602068DC
:101C40008168121111438160206847620120687029
:101C50002E700020A6E700007FFBFFFF000401407C
:101C600010B50248FFF726FB10BD0000780D0020DC
:101C700010B504460068C068400509D52046FFF746
:101C8000EFFF2068C16880221140054A8918C160B1
:101C9000012004490005486101202034607010BD16
:101CA0007FFBFFFF00040140F8B5040050D025463B
:101CB00020356878002803D12870204600F052F8BB
:101CC000022068702168CA20486221685320486257
:101CD000204600F05EFDFF2604270028206802D081
:101CE00046626F7034E081681D4A1140816021684E
:101CF00088686268A369104322691A4310438860A8
:101D00002168E06808612068016922891204114392
:101D100001612068C16880229143C1602068C16C64
:101D200089088900C164E169606901432068C26C67
:101D30001143C1642068806880060BD4204600F0FF
:101D400029F8002806D0206846626F7000202870AD
:101D50000120F8BD20684662012068700020F8BDAF
:101D6000BFFF8FFF10B50068084988420DD10848B1
:101D700001690122920411430161002211460220EF
:101D8000FFF7F4FA0220FFF7E7FA10BD0028004041
:101D90004010024070B504460068C168A02291431B
:101DA000C160FFF74FFA7D260546F60006E0FFF713
:101DB00049FA401BB04201D9032070BD2068C068B9
:101DC0008006F4D5002070BD094910B5401E884238
:101DD00001D9012010BD074C60610321081F00F0EC
:101DE000B5FC0020A06107202061002010BD00008C
:101DF000FFFFFF0000E000E0704770B5416F044650
:101E0000856F0068826810261206002A14DA2129DC
:101E100012D18168802291438160A06E002808D091
:101E2000FEF794FE002804D0A06EFEF70BFF2028DA
:101E30001DD0204600F046FE20688168490614D572
:101E4000222D12D18168402291438160E06E0028EA
:101E500008D0FEF77BFE002804D0E06EFEF7F2FE0D
:101E6000202804D0204600F01DFE002070BDE6674B
:101E7000032070BD70B5040017D02420606720686F
:101E80000168490849000160206800250560206854
:101E9000456020688560204600F026F9E5676567A3
:101EA000A56760342574002070BD012070BD00005E
:101EB00010B50446006811498EB0884209D1104817
:101EC0000122816852020F4800F0CEF9E26F0EA1A4
:101ED0000CE0134988420FD109480122143081686F
:101EE000D202104800F0C0F9E26F0FA1684600F07E
:101EF000B1FF684600F0B2FA0EB010BD00380140E4
:101F00002C0B0020AC0D002055534152543120457C
:101F100052524F5220434F4445203D25640A000051
:101F2000004400402C0E00205553415254322045AD
:101F300052524F5220434F4445203D25640A000031
:101F4000F8B502680446D0691168936805072D0F3B
:101F50005BD0DD07ED0FFF2621360E402E4367D004
:101F6000C60706D0CE0504D501261662E26F3243BD
:101F7000E267870702220426002F06DADF0704D073
:101F800027683A62E76F3743E767470706D5DB07FD
:101F900004D023681E62E36F1343E367020709D589
:101FA00020220A402A4305D0236808221A62E36FE0
:101FB0001343E367E26F002A2FD0800606D5880618
:101FC00004D5216E002901D020468847E06F2168A2
:101FD0008968490601D4000724D5204600F062FD37
:101FE00020688168490619D5816840229143816043
:101FF000E06E002812D020498163E06EFEF7C8FD34
:1020000000280AD0E06E816B06E0850610D58D06AB
:102010000ED5216E1CE020468847F8BD2046FFF70C
:1020200047FFF8BD2046FFF743FF0020E067F8BDFB
:10203000C50208D55B0206D50120000510622046C6
:10204000FFF7DAFEF8BD030605D50B0603D5616E72
:102050000029E0D1F8BD4006FCD54806FAD5136842
:10206000204640218B431360202161670021616677
:1020700000F0BFF9F8BD0000012A000810B5040007
:1020800003D0606F002802D007E0012010BD0021BE
:1020900070200155204600F059F824206067206820
:1020A0000168490849000160204600F013FD01283D
:1020B000ECD0606A002802D0204600F00BFC2068BB
:1020C00041680922D20291434160206881682A2236
:1020D000914381602068016801221143016020461C
:1020E00000F05EFC10BD000010B50446144B016802
:1020F00005221448120799420ED1416B01239B031C
:1021000099434163032149021046FEF751FFE06EF7
:10211000FEF764FD1B200FE00B4B99420ED1816B43
:1021200001235B04994381630C211046FEF740FFB5
:10213000E06EFEF753FD1C20FFF704F910BD000010
:10214000003801400010024000440040F0B587B064
:10215000064614216846FEF72AF83E4F33680025EC
:102160003D48012102220424BB4233D1436B8F033B
:102170003B434363C36A0B43C362C06A03270840FF
:1021800005900320400200900291052003970494DB
:10219000019269460007FEF783FF314C2F48A56086
:1021A000E56081C4E56080202561A0602020A561F4
:1021B00060612B48083CFEF79BFD002801D0FEF72C
:1021C00017FCF466002211461B20A662FFF7CEF82A
:1021D0001B203AE0234FBB4239D1836B01277F0498
:1021E0003B438363C36A0B43C362C06A0291C00767
:1021F000C00F05900C200090032003900520019251
:10220000694604940007FEF74BFF1448144F28302A
:10221000483731C73D60BD608020FD607860202078
:10222000386103200003786138460C380C3FFEF714
:102230005FFD002801D0FEF7DBFBF76600221146A8
:102240001C20BE62FFF792F81C20FFF785F807B04C
:10225000F0BD000000380140001002403000024094
:10226000AC0E002000440040F8B50446806F2028E2
:102270004DD100290BD0002A09D00123A0681B03EF
:10228000984206D12069002803D1C80701D0012057
:10229000F8BD25466035287C012838D001202874F7
:1022A0005820616502530026E6672220A067E06E91
:1022B000002819D01749C162E16E17480863E16E22
:1022C00016484863E06E13468663676D21683A4698
:1022D0002431E06EFEF754FD002805D01020E067A1
:1022E0002E7420206067D2E72E7420680168FF22D8
:1022F000013211430160206881680122114381602D
:10230000206881684022114381600020F8BD0220CE
:10231000F8BD00005D2A00089B2A0008152A000865
:1023200070477047FFB50446406F83B017460D46AF
:1023300020285CD1002D0AD0002F08D0A168C00150
:10234000814207D12069002804D1E80702D001208A
:1023500007B0F0BD204660300290007C012846D0D6
:102360000298012101740020E06721206067FEF7D8
:1023700069FF264640360190378277820120A168A6
:102380000003814202D12069002802D02F46002597
:1023900011E000270FE000228021204600F0B8FC69
:1023A000002815D1002F15D02168387888627F1C4D
:1023B000708A401E7082708A019B002806980090E7
:1023C000E9D100224021204600F0A2FC002808D0DC
:1023D0000320BDE728882168C005C00D8862AD1CB8
:1023E000E6E720206067029900200874B0E7022029
:1023F000AEE77047FEE7000070B5044601250A48C5
:10240000FFF738FD0948FFF735FD20680849084007
:102410006907884205D16068216881F30888804790
:1024200000E00025284670BDAC0D00202C0E0020D9
:102430000000FE2F10B5044606484078092808D150
:102440002046FDF7E0FE82B2642321460248FFF7F2
:1024500069FF10BD01000020AC0D002010B504463E
:1024600006484078092808D12046FDF7CCFE82B204
:10247000642321460248FFF755FF10BD01000020EC
:10248000AC0D002010B5054A5278092A05D10A463C
:10249000014664230248FFF745FF10BD01000020FC
:1024A000AC0D00200FB410B50298FDF7ACFEDA2891
:1024B00006D90AA0FFF7BEFF10BC08BC04B018473D
:1024C00003AA0E48029900F0D9FC0C48FDF79BFEC8
:1024D00081B20A48FFF7D6FFEEE700004C6F675065
:1024E00072696E74663D3D3E4D657373616765202C
:1024F000746F6F206C6F6E670A0000002C00002064
:1025000008B50C48016B012211430163006B1040B8
:102510000022009011460A20FEF728FF0A20FEF74D
:102520001BFF002211460B20FEF720FF0B20FEF7B9
:1025300013FF08BD00100240F0B587B014216846B3
:10254000FDF735FE2748C26A04210A43C262C26A07
:102550000A400592C16A01252943C162C16A294026
:102560000591C26A02210A43C262C06A1E4C084039
:10257000052636070590002221463046FEF75BFE11
:102580001A4F012261103846FEF755FE092100223C
:1025900009033846FEF74FFE00940024019502948B
:1025A000694630460394FEF77BFD102000900194AD
:1025B000694602943046FEF773FD0D480090029480
:1025C0006946019503943846FEF76AFDA80300901A
:1025D000112001900294694603943846FEF760FD8D
:1025E00007B0F0BD0010024002800000000400505F
:1025F0000190000010B508480649016006214160BD
:102600000649C1608160FEF723FE002801D0FEF775
:10261000EFF910BD00300040780D0020FF0F0000E2
:1026200010B50F480D4901607F2282600021416092
:1026300001614161FF228161C260C161FFF734FB2A
:10264000002801D0FEF7D4F9042209210448FFF73D
:102650008BFA002801D0FEF7CBF910BD002800400E
:10266000880D002010B50C480A490160E12149029B
:10267000416000218160C16001618161C1610C2202
:10268000016242614162FFF7F9FC002801D0FEF7C8
:10269000AFF910BD00380140AC0D002010B50C485A
:1026A0000A490160E1214902416000218160C16065
:1026B00001618161C1610C22016242614162FFF7E7
:1026C000DDFC002801D0FEF793F910BD0044004066
:1026D0002C0E00200249087000208860C8607047F6
:1026E000680B002000B59BB000920B46024605A186
:1026F00001A800F0AFFB01A90C2003F031F81BB0DA
:1027000000BD000025642C25732C2564000000000A
:102710000148007870470000680B00203EB5054670
:102720000C460A4606A1684600F094FB69460E2056
:1027300003F016F80C2221462846FEF797F83EBD16
:10274000302C256400000000704700008307FF2242
:10275000DB0E9A408907090E994000280BDA000722
:10276000000F0838830808489B001818C369934372
:102770000B43C3617047830804489B001B1818680B
:10278000904308431860704700ED00E000E400E06B
:10279000704770B504460068C168490613D400212B
:1027A000C943C160FEF74EFD7D260546F60006E0F2
:1027B000FEF748FD401BB04201D9032070BD2068E0
:1027C000C0684006F4D5002070BD000010B5024876
:1027D000FFF74EFA10BD0000880D0020704710B5BD
:1027E000FEF770FD10BD000010B59AB034216846A8
:1027F000FDF7DDFC142115A8FDF7D9FC20210DA85B
:10280000FDF7D5FC1C4801680324E402A143C2146F
:1028100089180160FEF7BCFD18480169A1430161F8
:102820000E200090FF200130029010200490022022
:102830000990400401210B900001059100240C90A7
:1028400003910A946846FEF779FF0F201590032044
:102850001690179418940121199415A8FEF75CFEA0
:1028600023200D90012000040E900F9410940DA8C9
:10287000FEF796FD1AB010BD0070004040100240F7
:1028800010480168821511430160C1680E4A114069
:10289000C16001680D4A1140016081684908490022
:1028A000816001680122920491430160C168FD22A8
:1028B00012049143C160002101610549C003886091
:1028C00070470000001002400C40FF88F6FFF6FE43
:1028D00000ED00E010B5818CC90707D001684A6897
:1028E00001235B049A43836A1A434A60818C8907F7
:1028F00007D501684A6801231B049A43C36A1A4337
:102900004A60818C490707D501684A6801239B0406
:102910009A43036B1A434A60818C090707D5016803
:102920004A680123DB039A43436B1A434A60818C54
:10293000C90607D50268916801231B039943836B7D
:1029400019439160818C890607D501688A68012343
:102950005B039A43C36B1A438A60818C490612D584
:1029600003685A6801210905046C8A4322435A60AE
:10297000026C8A4207D10268516803235B059943C0
:10298000436C19435160818C090607D501684A6878
:102990000123DB04806C9A4302434A6010BD0000AF
:1029A000F8B500260446C667FEF74CFC05462068CD
:1029B0000068124F000709D501212B460022490566
:1029C0002046009700F0A4F900280DD12068006887
:1029D00040070BD501212B46002289052046009790
:1029E00000F096F9002801D00320F8BD2020606790
:1029F000A067603426740020F8BD0000FFFFFF01CF
:102A000010B5806A0022014640314A834A82FFF7AE
:102A10004FFA10BD70B5846A606FA56F2168896830
:102A200000260906002906DA212804D1522006537F
:102A3000204600F047F820688068400606D5222D21
:102A400004D15A200653204600F02CF8E06F1021E4
:102A50000843E0672046FFF72BFA70BD10B501462A
:102A60000968806A0968890614D400225A210A522A
:102A700001680A68FF2301339A430A6001688A6883
:102A8000520852008A6001688A6840239A438A602B
:102A900020218167FFF744FC10BD10B5806AFFF765
:102AA00040FC10BD01680A68FF2321339A430A6085
:102AB00001688A68520852008A60202181670021DB
:102AC0000166704701680A68C0239A430A602021A2
:102AD00041677047F8B504462669A268E769324342
:102AE0006669102000253E43236832437B491E68F7
:102AF0007B4F3E4016431E60226853680326360310
:102B0000B343E668334353602368A2698B4201D024
:102B1000266A32439E680B273F02BE4316439E60DF
:102B2000704E2368704AB3420CD1D2689207920F5C
:102B300006D0012A3ED0022A3AD0032A26D124E028
:102B4000012023E0694EB3420AD1D2680C263240FC
:102B50002CD0042A2ED0082A2AD00C2A16D114E010
:102B6000634EB34222D0634EB3421FD08B420DD18D
:102B7000D66803229202164018D001229202B61A99
:102B800018D0B61A14D0964200D10820564A012611
:102B9000403A594FF6038B4236D100280CD0022818
:102BA0000DD0042812D008281FD11CE00020EDE72A
:102BB0000220EBE70420E9E7FEF764FD08E0106877
:102BC000C00601D5384605E04C4803E0FEF77AFD23
:102BD000002873D0626851005118814205D8110352
:102BE000814202D303E03046F4E7012566E0010E9E
:102BF00006025008002330185941FDF78FFA0321CF
:102C00000902411A3E4A55E0E169B14232D103005E
:102C100000F05DF909070A0D06250606062B0600D9
:102C2000E3E7FEF72FFD1CE0FEF73CFD19E010681E
:102C30006168C00602D54808324A01E0324A4808B5
:102C40008018FDF755FA80B20146304A103991429A
:102C5000CBD8511C01400007400F08432CE0FEF781
:102C600031FD616840004A08EAE7616801224808CE
:102C70001204E5E7030000F02AF909070A0D062609
:102C80000606062C0600B0E7FEF7FCFC1DE0FEF78A
:102C900009FD1AE010686168C00602D54808C0192D
:102CA00002E016484A081018FDF722FA80B20146E1
:102CB000164A1039914298D82168C86000202066D1
:102CC00060662846F8BDFEF7FDFC61684A0880187A
:102CD000EAE7616848088019E6E70000004800401C
:102CE000F369FFEF0038014040100240004400400B
:102CF000004C00400050004000093D000024F4005A
:102D0000FFFC0F0000127A000048E801EFFF00000E
:102D1000FFB581B017460E4604460A9D09E0681CBF
:102D200007D0FEF78FFA0499401AA8420CD8002D5C
:102D30000AD02068C1693046884318D00020B842C4
:102D4000EDD0002005B0F0BD20680168FF22A1325F
:102D50009143016020688168490849008160202012
:102D60006067A0670020603420740320EAE7012038
:102D7000E5E7000010B50348FFF7E2F8014800F06E
:102D80005FF810BDAC0D002010B50348FFF7D8F870
:102D9000014800F055F810BD2C0E00200A480949E2
:102DA000816000218181094A0261094A0260017142
:102DB000084A143082608181074A0261074A026032
:102DC000017170472C0100202C0B00209D3A000857
:102DD000AC0D00202C030020B94D00082C0E002063
:102DE00070B504460068134A0121904209D1E06E93
:102DF000006840684E02301A0004000C18D00E4DD6
:102E00000CE00E4A904213D1E06E00684068D61480
:102E1000301A0004000C0BD0074D14352971A8811D
:102E20002046FEF7EAFF32462046A968FFF71CFA63
:102E300070BD0000003801402C0B00200044004011
:102E400010B50168CA69D20603D510220A62FFF7DD
:102E5000C7FF10BD0FB410B504A9074B02AA039811
:102E600000F010F9044602A9002000F0A7FC20465B
:102E700010BC08BC04B01847BD37000837B514466D
:102E80000846064B6A46214600F0FCF804466946AF
:102E9000002000F093FC20463EBD0000BD37000836
:102EA0002021020C01D010211046020A01D0104648
:102EB0000839020901D01046091F820801D01046C6
:102EC000891E420801D0881E7047081A704730B426
:102ED0007446641E2578641CAB4200D21D46635DB7
:102EE0005B00E31830BC18470048704728000020FA
:102EF00002E008C8121F08C1002AFAD170477047C3
:102F0000002001E001C1121F002AFBD17047000020
:102F1000F0B51FB486B00998089A030D002102434A
:102F200014D05148514A18185043051411980128DB
:102F300010981AD0281A401C00264D4F4D49009673
:102F400001910490002812DA444211E01198012402
:102F500049A3012801D11098C1430698119A8460B1
:102F60000360C26041600BB0F0BD4042E4E704463C
:102F7000210500203F4A001C51410391029012E0BC
:102F8000E00707D032463B4601990098FDF76EFAFC
:102F90000191009032463B4610461946FDF766FA0D
:102FA00006460F466410002CEAD10498039B0028C3
:102FB000029A0999089806DAFDF758FA019B009AD7
:102FC000FDF754FA05E0FDF7B9FA019B009AFDF709
:102FD000B5FA04460E460022284BFDF747FB03D8FE
:102FE0000020C043014607E00022254B2046314621
:102FF000FDF78AF9FDF71AFB102409E0002C0ADB23
:103000000A220023FDF78AF8079B30321A55641E06
:1030100002460A43F2D11122641C079B121B1C19A1
:10302000119B012B03D0012308430ED10AE0084372
:1030300004D0112010900020119077E71098151AF5
:103040006D1E0BE01098824202DD00236D1C03E030
:10305000824201DA00236D1E002BEED006981199F2
:103060008260C16030C07EE701FCFFFF104D0000B0
:10307000000014400000F03F300000000000F0436A
:103080000000E03FFFB597B00646002518E225286E
:1030900077D100242746FD49049400E00443761CC0
:1030A00032780120203A90400842F7D130782A281F
:1030B0000ED00222307801463039092916D80499F9
:1030C0000A235943303940181443761C0490F1E721
:1030D000189802C804911890002904DA01204003CE
:1030E00004434842049002200443761C30782E2882
:1030F00014D1042004437078761C2A2809D118982A
:10310000761C80C8189009E00A214F43303FC71948
:10311000761C3078014630390929F5D930786C2889
:1031200010D006DC4C281AD068280ED06A2817D197
:1031300004E0742813D07A2812D110E00120400551
:1031400004430CE00121090501E0032109050C43BA
:103150007178814203D1012000052418761C761C69
:103160003078119066280BD013DC58287DD009DC0C
:1031700000287BD04528F6D04628F4D047281AD11D
:10318000A5E118E0632835D0642870D0652812D1F5
:103190009DE170286CD008DC6728F1D069287BD0CD
:1031A0006E280DD06F2806D1BAE073282ED075286E
:1031B00071D0782859D01A9A199990476D1C7EE1E0
:1031C0006002400F022809D003280DD00428189867
:1031D00001680DD00D60001D189070E11898EA1775
:1031E00001680D604A60F6E7189801680D80F2E703
:1031F0000D70F0E718986A4601781172001D18905A
:103200000020507202A80090012005E0189802C822
:10321000189000200091C04361070DD5002101E006
:103220000199491C0191B94212DA8142F8DB009AF6
:10323000515C0029F4D10BE0002101E00199491C07
:1032400001918142FADB019A0099895C0029F5D14C
:10325000019904981A9B471A21463846199A00F09A
:1032600097FA0199401945180BE04FE02CE113E063
:103270004EE0009800990078491C00911A9A19991B
:1032800090470198401E0190401CF2D121463846DB
:103290001A9B199A10E137E00A2000210090019151
:1032A0006002410F022907D0189A01CA1892C2176A
:1032B0009446032908D00AE01898C01DC108C90027
:1032C00005C91891944607E000B2C2179446042934
:1032D00002D140B2C1178C4600226146944506DAFD
:1032E0000A460021404291418C462D2102E02105F1
:1032F00004D52B216A461173012103E0E10701D0B7
:103300002021F7E7029155E00A200AE0102008E0AA
:10331000102000900021042004430191082703E0BD
:1033200008200021019100906002410F022907D07E
:10333000189A01CA189200229446032908D008E07E
:103340001898C01DC108C90005C91891944603E02A
:1033500080B2042900D1C0B200210291210729D5F1
:103360001199702906D0009A1021019B4A401A43F6
:1033700005D00EE040216A461173012108E0614644
:10338000014306D030216A4611731199517302210D
:103390000291009A0821019B4A401A430AD16146D2
:1033A000014301D1610705D530216A46117301211E
:1033B0007F1E02911199582904D035A10E910DA9B3
:1033C0000D910DE037A1F9E76146019B009AFCF7EA
:1033D000A5FE0E9B8C469B5C0D9A521E0D9213709F
:1033E00061460143F0D10D9805A9081A20300190DB
:1033F000600703D501200004844300E00127019801
:10340000874201DD381A00E0002001990090411840
:10341000029809180498401A0490E00306D4214643
:103420001A9B199A049800F0B3F94519002706E091
:1034300003A81A9AC05D199990476D1C7F1C0298C9
:103440008742F5DBE0030CD521461A9B199A0498B4
:1034500000F09EF9451904E01A9A30201999904716
:103460006D1C0099481E00900029F5DC08E00D98BD
:103470000D990078491C0D911A9A199990476D1C65
:103480000199481E01900029F1DC63E1092801003F
:1034900030313233343536373839616263646566CA
:1034A000000000003031323334353637383941428C
:1034B000434445460000000000F05AF94519761CC7
:1034C0003078002800D0E2E528461BB0F0BD600748
:1034D00000D406271898C01DC108C90048680A68AA
:1034E0000831C30FDB071891190001D09CA108E037
:1034F000210501D59BA104E0E10701D09AA100E0DC
:103500009AA1430011985B08109165280CD006DC45
:10351000452809D046281DD0472841D141E06628DA
:1035200018D067283CD13CE00021112F01DB11208D
:1035300000E0781C0191009008A911A8FFF7E8FCB1
:10354000139905910021119A15927F1C12980197E9
:10355000009150E00120C00703900120019008A9CC
:10356000009711A8FFF7D4FC139A14990592002232
:10357000119B009212981593059A0192002901D08F
:10358000104602E0791C40180190381A01D50198C4
:1035900004E04042401E0090781C0190C01B029045
:1035A00043E0012F00DA01270021112F01DD112056
:1035B00000E038460191009008A911A8FFF7A8FC87
:1035C00013990591119A0021129815920091019773
:1035D00021070CD40599B94201DB019900E0019162
:1035E000012904DD159A491E515C302906D0B842E4
:1035F00001DA011D05DA0121029115E00199491E48
:10360000EDE7002805DC0099411800910199091A9D
:1036100003E0019A411C914200DD01910099401A9A
:10362000401C02900120C0070390200706D4029995
:103630000198814202DB0020C043029000206946CD
:10364000C87707AF012103980337C907884224D000
:10365000022011902B201290039800280CDA40428F
:1036600003902D20129007E00A210398FCF740FDFB
:1036700030317F1E039039701199481E1190002936
:10368000F2DC03980028EFD1791E12980870307888
:10369000202108404530BF1E387006A8C01BC01D41
:1036A000039010980078002800D00120019941185B
:1036B0000298C0170918039809180498401A401E68
:1036C0000490E00306D421461A9B199A049800F04E
:1036D0005FF8451910980078002803D01A9A1999B4
:1036E00090476D1CE00324D521461A9B199A049833
:1036F00000F04EF845191CE00098002807DB0099FF
:103700000598884203DD1598405C199901E01999E4
:1037100030201A9A904700986D1C401C0090029827
:10372000401E0290002804D11A9A2E201999904721
:103730006D1C0199481E01900029DDDC05E03878F8
:103740001A9A7F1C199990476D1C0399481E039083
:103750000029F4DC21461A9B199A0498ACE6000073
:103760002D0000002B0000002000000000000000E1
:10377000F8B5044600251E461746880404D405E023
:1037800039462020B0476D1C641EF9D52846F8BD87
:10379000FFB50446002581B01E46C80301D5302779
:1037A00000E02027880404D505E038460399B04797
:1037B0006D1C641EF9D5284605B0F0BD0A68531C7F
:1037C0000B601070704770B5002317E0C45C2509CA
:1037D0002407240F0A2D02D25E00303501E05E007E
:1037E00037358D550A2C03D25D006D18303402E058
:1037F0005D006D1837345B1C6C709BB29342E5D34F
:1038000070BD000010B5052010210007FDF70AFD6E
:103810000C490128087809D0012806D10020087039
:10382000FEF720FF08A0FEF705FE10BD0028FCD122
:10383000012008700BA0FEF7FDFD1348FEF71AFBF0
:1038400010BD000016000020556E63686172676548
:103850002C6F70656E206465627567207561727487
:103860000A000000436861726765696E67206E6FC9
:1038700077202C636C6F73652064656275672075B3
:103880006172740A00000000AC0D002002494888F3
:10389000421C4A807047000010000020F8B50E4618
:1038A000012100251446002A0DD078222270627072
:1038B000A570E1700427E11901F068FC002804DA22
:1038C0000020C043F8BD2F46F5E73818002C19D06A
:1038D00031122154401C2654451CA070411EA01CCE
:1038E000FDF71EF90146000A6055681C21540D21A0
:1038F000A81C21540A21E81C2154401CE2D50120B7
:10390000C043F8BD2846F8BDFFB5F320002481B0C0
:1039100015460F46002A06D0792129706970AC70CF
:10392000EC70287105242B55641C012B07D05A4ECE
:10393000022B28D0032B57D0002005B0F0BD0198F2
:10394000FCF761FC2855641C0198FCF75CFC0246FE
:1039500028190199FCF712FC0198FCF754FC041992
:103960004D488038FCF74FFC28554B48641C803884
:10397000FCF749FC4849024628198039FCF7FEFB50
:103980004548803866E0B06C000E2855B16C601C6C
:10399000090C2954B16CA01C090A2954E01CB16C13
:1039A0002954B16D201D090E2954B16D601D090CFB
:1039B0002954B16DA01D090A2954E01DB16D295487
:1039C000B26D716D401C891A326D8A4200D2114667
:1039D0000A0E2A540A0C401C2A540A0A401C2A5473
:1039E000401C2954401C38E02B484030007F2855AB
:1039F000641C0198FCF707FC2855641C0198FCF72F
:103A000002FC024628190199FCF7B8FB0198FCF763
:103A1000FAFB0419B06C000E2855B06C641C000C45
:103A20002855B06C641C000A2855641CB06C2855DD
:103A30001948641C4E380646FCF7E5FB285530460D
:103A4000641CFCF7E0FB2B19024631461846FCF7D4
:103A500095FB3046FCF7D7FB0019002D19D0391221
:103A60002954401C2F54441C401E0112A970E870B8
:103A7000A11EA81CFDF754F80146000A2855601C39
:103A800029540D21A01C29540A21E01C2954201D71
:103A900053E70020C04350E7180C002010B506A1E2
:103AA000FCF790FB002805D006490920487006A0C5
:103AB000FEF7C0FC10BD000041545E44454255472E
:103AC0003D390000010000204445425547204F4B3E
:103AD0000A00000010B503A1FCF774FB002800D019
:103AE000012010BD4F4B0000054B00210A467832E3
:103AF000D21812784254491CC9B23229F6D3704701
:103B000000000808054B00210A46DC32D218127862
:103B10004254491CC9B23229F6D370470000080844
:103B2000054B00210A46AA32D21812784254491C89
:103B3000C9B23229F6D3704700000808054B0021AE
:103B40000A463E32D21812784254491CC9B21E2984
:103B5000F6D370470000080810B5084C0022134641
:103B60000A331B191B788354521CD2B2322AF6D363
:103B700002483C300088088010BD000000000808A2
:103B800010B50022054C06E0134664331B191B7860
:103B90008354521CD2B28A42F6D310BD00000808EA
:103BA00030B58DB0044634216846FCF700FB204652
:103BB000FCF729FB024621466846FCF717FB002468
:103BC0006D462046295D783000F0A2F8641CE4B20E
:103BD000322CF6D30DB030BD30B58DB00446342153
:103BE0006846FCF7E4FA2046FCF70DFB0246214646
:103BF0006846FCF7FBFA00246D462046295DDC3060
:103C000000F086F8641CE4B2322CF6D30DB030BD5F
:103C100030B58DB0044634216846FCF7C8FA20461A
:103C2000FCF7F1FA024621466846FCF7DFFA002469
:103C30006D462046295DAA3000F06AF8641CE4B2A3
:103C4000322CF6D30DB030BD30B589B00146684690
:103C5000FCF7E0FA00246D462046295D3E3000F076
:103C600057F8641CE4B21E2CF6D309B030BD000036
:103C700070B58EB00D46044634216846FCF797FABD
:103C80002046FCF7C0FAC2B2322A23D82146684641
:103C9000FCF7ACFA00246E462046315D0A3000F095
:103CA00037F8641CE4B2322CF6D33C2672B6FDF72A
:103CB000CFF80948002436182A4631460120FDF77E
:103CC0009DF8002803D0641CE4B2142CF4D3FDF753
:103CD0008BF862B60EB070BD0000080870B50D46D6
:103CE0000646002406E02046315D643000F010F8FE
:103CF000641CE4B2AC42F6D370BD000010B50349B9
:103D000048700146012000F003F810BD780C002037
:103D100070B50E46054672B6FDF79AF808480024BD
:103D20002D18324629460020FDF768F8002803D0F8
:103D3000641CE4B2142CF4D3FDF756F862B670BDDF
:103D4000000008087FB50C46054631210020090116
:103D50008C4229D82246294614A0FEF7A3FB002056
:103D6000039402950190012472B6FDF7F3F86946B9
:103D700001A8FDF787F8002801D00024E44300984B
:103D8000401C05D00124E443FDF7B8F862B606E014
:103D9000FDF7B4F862B6002C01DD0DA100E00EA124
:103DA0000FA0FEF77FFB204604B070BD666C617308
:103DB0006845617273653D3D3E416464723D307893
:103DC00025582C50616765436E743D25640A0000D8
:103DD00053756363657373004661696C000000008E
:103DE000666C61736845617273653D3D3E45617205
:103DF00073652025730A000070B5C009401C85B2A8
:103E00002A460D490DA0FEF74DFB0F4E0024294612
:103E10003046FFF797FF012809D0611C0BA0FEF781
:103E200041FB641CE4B2142CF1D3002070BD0EA041
:103E3000FEF700FB012070BDB463000825733D3D13
:103E40003E25640A00000000007800084561727396
:103E500065204661696C202C52652D656172736521
:103E60002025640A00000000456172736520636FBD
:103E70006D706C6574650A00F7B586B006980190A0
:103E80000146164600272CA0FEF70CFB72B6FDF784
:103E900061F8002528E0079844192046FCF7C3F98B
:103EA0000002E178000A090608430024009002207D
:103EB000009A0199FDF730F800280CD0641CA4B2D8
:103EC0007F1C082CF3D3FDF719F862B6394624A0FD
:103ED000FEF7E8FA22E00198ED1C001D0190A8B25F
:103EE000082CF0D2401C85B2B542D4D3FDF706F8B9
:103EF0000024069D17E0079807193846FCF793F948
:103F0000F9780002000A0906084304CDE41CA1B2B6
:103F1000824206D062B61CA0FEF78CFA002009B0DF
:103F2000F0BD491C8CB2B442E5D362B61DA0FEF7C9
:103F300081FA0120F3E70000466C617368577269EB
:103F40007465436F64653D3D3E416464723D307805
:103F5000253038582C53697A653D25640A000000E5
:103F6000577269746520636F64652054696D654F8D
:103F70007574204572726F722C6572726F72206355
:103F80006E743D25640A00004669726D7761726542
:103F900020646174612076616C6964206572726F5F
:103FA000720A00004669726D7761726520777269E6
:103FB0007474696E67204F4B0A00000010B500282A
:103FC00023D0124B0022001F196803E0814203D85E
:103FD0000A4649680029F9D1002A0AD01368841AD0
:103FE0009C4204D1006818181060104602E050602E
:103FF00000E01860002907D002680B1A934203D131
:104000000B68D21802604968416010BD2000002092
:1040100010B50346002003E01C5C944204D0401C11
:104020008842F9DB0020C04310BDF0B500256E1EAC
:1040300000280CD0002408E0075D974204D16D1CD5
:104040009D4201D120B2F0BD641C8C42F4DB3046AD
:10405000F0BD00000148406D70470000180C0020C2
:1040600010B501210520C9030007FDF7E0F8FFF7AF
:10407000C9FB10BDFDF72EF9FEF7B6FBFEF75CFAA3
:10408000FEF73EFAFEF7EEFAFEF708FBFEF7B2FA8D
:10409000FEF7C6FAFEF782FE00F01AF93849092049
:1040A000487038484078012808D037A0FEF7C2F998
:1040B0003A48FEF7A1F9002855D05CE038A23BA1B0
:1040C0003DA0FEF7EFF944A0FEF7B4F92D484030CB
:1040D000014602892A3949A0FEF7E4F9294B4CA090
:1040E000AE331A46323A11463239FEF7DBF900F0A8
:1040F000A3FA01F0A5FC4D480122816852024C4808
:10410000FEF7B2F84A48102401680C6200680168A2
:10411000214301604748E20181684748FEF7A4F85F
:10412000454801680C620068016821430160012272
:104130004249642001F0F8FB7D2000224049000143
:1041400001F0F2FB7D2001223E49C00001F0ECFBB2
:1041500001223D49C82001F0E7FB01223B49C8206C
:1041600001F0E2FB07E03AA0FEF764F90120FFF757
:10417000C5FDFDF7FFF801F041FC01F0EDFBFAE7AA
:1041800001000020780C0020426F6F746C6F616436
:10419000657220446F6E650A000000000078000818
:1041A00031363A32353A3131000000004D61792024
:1041B0003231203230323400426F6F747665727360
:1041C000696F6E3A4E353820436F6D706C696E655D
:1041D0003A25732025730A0052756E20426F6F7462
:1041E0006C6F616465722055706772616465205000
:1041F000726F63657373210A000000005365727665
:1042000065723A25730A506F72743A25640A000089
:1042100041504E3A25732C557365723A25732C50D4
:10422000617373776F72643A25730A002C0B002058
:10423000AC0D0020400B00202C0E00206140000837
:10424000554600080947000811510008C1550008EB
:104250004A756D7020746F20617070206661696CA2
:104260000A000000F0B50B30C108C900144F002649
:10427000144A0FE003688B420BD38B4205D95C1ABA
:104280004318456830C3083B00E04368136002C030
:1042900004E0021D10680028ECD13046002803D14C
:1042A0003868002801D00020F0BD064A064810609A
:1042B000064A121AD208D20044C001203860D7E75B
:1042C00024000020200000205C0F00205823002044
:1042D00010B511480078114C2B28207001D000F047
:1042E0001FF80F21A01CFFF74BFC0C494831084672
:1042F0003238FFF731FC09484A30FFF7F5FB074831
:104300007C30FFF70DFC0548AE30FFF7FBFB0248A1
:10431000401C0078607010BD00000808780C002078
:1043200010B510482B2101700020FFF7F1FC0F2180
:104330000DA0FFF7D3FC114911A0FFF799FC15A0C0
:10434000FFF72EFC15A0FFF763FC14A0FFF744FC59
:1043500014A0FFF779FC0020FFF7D0FC13A0FEF7B4
:1043600069F810BD780C00203838383838383838BB
:104370003737373737373737000000000F2700004F
:10438000616770732E626173656770732E636F6D02
:1043900000000000636D6E6574000000636172646C
:1043A00000000000626F6F740000000052657365CA
:1043B0007420454550524F4D0A000000F8B50024C6
:1043C000174605460E46002817D0002E15D0002FA0
:1043D00013DD0846FBF717FF3F1A0CE0285D317824
:1043E000884207D12819314600F00AF8002801D088
:1043F0002046F8BD641CA742F0DA0020C043F8BD97
:1044000070B5002406460D46002809D0002D07D0BF
:104410000846FBF7F8FE06E0315D2A5D914201D0C7
:10442000002070BD641C8442F6DB012070BDF8B52D
:10443000054617460E4600240846FBF7E4FE3F1AE1
:104440000CE0285D3178884207D128193146FFF702
:10445000D7FF002801D00120F8BD641CA742F0DA84
:104460000020F8BD30B50D460A4693B0044616A1AB
:10447000FFF7A4FF03B2002B23DBE81AE41881B294
:104480000D222046FFF7C4FD801FC5B2142D18D29F
:1044900014210DA8FBF78BFE00200DA904E02218C3
:1044A00092790A54401CC0B2A842F8D30A4608A127
:1044B0006846FEF7CFFC6846FDF7BCFF08490120BF
:1044C000887013B030BD00002B43494D493A0000BD
:1044D00047657420494D53493A25730A000000008E
:1044E000800B0020F0B50C460A46A7B0054624A173
:1044F000FFF764FF00281DDB2918201A00240D9106
:10450000694687B226460C7025460EE00D98405D40
:104510002C2811D00D280FD00A280DD06946085537
:10452000641C322C06DA6D1CADB2BD42EED31649C6
:104530000020487527B0F0BD684600780028F2D00A
:10454000002069460855761CF6B2044633466A4692
:104550000EA10EA8FEF77EFC0EA8FDF76BFF022E43
:10456000E1D16846FBF769FEC2B207480EA142716D
:104570000EA8FEF76FFC0EA8FDF75CFFD3E7000066
:104580002B435245473A0000800B00206E353843DC
:104590005245477061726173653D3D3E25732C63E2
:1045A0006E743D25640A00004352454720737461D0
:1045B00074653D25640A000030B50D460A4689B091
:1045C000044616A1FFF7FAFE002825DB2418281A56
:1045D00081B22C222046FFF71BFD801F05281BDC23
:1045E000002502460195A11D01A80295FBF7FEFDDD
:1045F00001A8FBF722FEC2B20A4C0BA1227103A84C
:10460000FEF728FC03A8FDF715FF2079801F192865
:1046100001D80120E070657509B030BD2B435351BE
:104620003A000000800B0020435351205374617402
:10463000653D25640A00000010B518210448FBF709
:10464000B6FD034816211830FBF7B1FD10BD000080
:10465000680B002010B50520012202210007FCF79D
:10466000EAFD0C4C012211032046FCF7E4FD012277
:1046700091032046FCF7DFFD07A0FDF7DBFE0022DB
:104680000C490D4801F050F9FFF7D6FF0B49002007
:10469000087010BD000400504F70656E206D6F757E
:1046A000646C6520706F77657220737570706C79BB
:1046B0000A000000154A0008DC0500000100002087
:1046C00010B50121002289030848FCF7B4FD08A0B9
:1046D000FDF7B0FE00220A49642001F025F9FFF73A
:1046E000ABFF08490020087010BD00000004005016
:1046F0005265736574204D6F64756C650A00000027
:10470000814A00080100002070B5B14800780028F7
:104710007ED0B04E002231697069491C5041316130
:10472000706130783446154618340300FEF7CFFB2D
:104730000E080F1A404B636B747B838A939C5BFE5D
:104740002078002813D025700120FDF7C3FF607882
:10475000002812D06570A0A1182001F001F80220F5
:10476000FDF7B8FFA078002811D0A5701DE000204B
:1047700030610146706101209FE00021022000F0BD
:10478000EFFFB26810200021F368801A29E0307A28
:10479000C00703D10021042000F0E2FFB068072227
:1047A000F1680023101A8B411DD20320FDF792FF00
:1047B000E078002818D0E57088A1062000F0D0FF2E
:1047C0000420FDF787FF6079012810D005280ED05E
:1047D00083A1062000F0C4FFB06828220021F368FE
:1047E000121A994176D3EAE000210520F2E76571BB
:1047F0000520FDF76FFFA079002840D0A5716574F2
:104800000620FDF767FFE079002854D0E57100E04D
:10481000DCE00720FDF75EFF207A002850D02572EB
:104820000820FDF757FF607A002854D00920FDF7D3
:1048300051FFA5746572A07A002856D0A5720A208F
:10484000FDF748FFE07A00285BD0E574E572A574B7
:104850000B20FDF73FFFE07B00286ED0E57365730A
:10486000E5740C20FDF736FF207B002879D02573F6
:10487000657300F045FC0D20FDF72CFF9FE058A16B
:10488000072000F06DFFB1681E23F2680020591A5E
:104890009041A8D2607C012809D052A1072000F0E5
:1048A0005FFF012060740020B060F06087E0FFF7D8
:1048B00007FF657483E00021082000F051FF7EE0CF
:1048C00000F05AFBB1680423F0680022591A8241B3
:1048D00060D374E05EE000F065FBB0680421F3682B
:1048E0000022081A9A4155D369E03EA10B2000F03E
:1048F00037FFB2680421F3680020891A984149D330
:104900005DE037A10B2000F02BFFB0681E22F3689A
:104910000021121A994152D20920FDF7DBFE31A184
:10492000072000F01DFFA07C401C01E046E004E0F1
:10493000C0B2A07403282DD841E01E220023F168E4
:10494000B068FBF7EBFB1A4339D126A1102000F029
:1049500007FFE07C401CC0B2E07403281AD22EE0AE
:10496000FFE71E220023F168B068FBF7D7FB1A436C
:1049700002D0607B012822D165730020B060F06016
:10498000207D401CC0B2207503280FD9FFF762FBC1
:10499000002802D0FFF794FE11E013A0FDF74AFDB6
:1049A0000020FFF7ABF9FCF7E5FC08E018480146EA
:1049B00002892A390020FDF795FE00E03570B168C4
:1049C000F068491C00225041B160F06070BD0000E9
:1049D00001000020680B0020302C31003200000064
:1049E0003F0000003100000055706772616465206F
:1049F0006669726D77617265206661696C2C737986
:104A00007374656D20726573746172740A000000BE
:104A1000B80C002010B50121002209030648FCF75C
:104A20000AFC06A0FDF706FD7D2000220949C00012
:104A300000F07AFF10BD0000000400505072657055
:104A400061726520746F20706F776572206F6E0AD7
:104A500000000000594A000810B503A0FDF7EAFC69
:104A600006490120087010BD506F776572206F6E87
:104A700020636F6D706C6574650A00000100002092
:104A800010B5012291030548FCF7D5FB04A0FDF702
:104A9000D1FC07490120087010BD0000000400503F
:104AA000526573657420436F6D706C6574650A00A0
:104AB00001000020F0B5FFB00E460A4682B0044661
:104AC0002DA1FFF77BFC01B2002942DB6418701AAC
:104AD00086B20021684601700A4608466F460DE01E
:104AE000235C2C2B38D00D2B36D00A2B34D07B54A2
:104AF000491C09B232292CDA401C80B2B042EFD3F3
:104B000002232C2231462046FFF78FFA064629461B
:104B10001CA0FDF7C7FCFF2D11D8A0192A46694635
:104B2000401CFEF750FE00206A00B8541AA0FDF7A2
:104B300081FC6846FDF77EFC1AA0FDF77BFC1A4855
:104B400000270775A0192946401C00F0D5FD16481E
:104B500047757FB002B0F0BD3B78002BCCD000236E
:104B6000521C7B54D2B21946022AC5D13846FBF7F3
:104B700064FB85B2C4E700002B54435052454356B2
:104B80003A00000054435020646174613D25642064
:104B900042797465730A000054435020526563766D
:104BA0003A0000000A000000800B0020F0B50C461F
:104BB0000A468FB0054630A1FFF700FC00281DDB38
:104BC0002918201A00240D91694687B226460C70D8
:104BD00025460EE00D98405D2C2811D00D280FD0F1
:104BE0000A280DD069460855641C322C06DA6D1C63
:104BF000ADB2BD42EED32349002048750FB0F0BDE1
:104C0000684600780028F2D0002069460855761CD6
:104C1000F6B2044632461CA0FDF744FC012E02D039
:104C2000022EE4D108E01FA16846FBF7CBFA00286A
:104C300002D01EA0FDF7FEFB6846FEF74BFF0028E2
:104C400004D01049012008731DA006E022A1684687
:104C5000FBF7B8FA002803D021A0FDF7EBFBC6E76D
:104C600026A16846FBF7AEFA0028C0D0054901200E
:104C7000087324A0F1E700002B54435053455455CA
:104C8000503A0000800B00206E3538435245477083
:104C900061726173653D3D3E25732C636E743D25E5
:104CA000640A00004552524F520000005443502005
:104CB000736F636B6574204572726F720A00000037
:104CC00054435020736F636B657420636F6E6E6521
:104CD0006374204F4B0A00004641494C000000001D
:104CE00054435020736F636B657420636F6E6E6501
:104CF0006374204661696C0A000000004552524FFF
:104D00005231000054435020736F636B6574206808
:104D10006164206275696C640A00000010B50A467F
:104D200088B004460AA1FFF749FB01B200290CDB59
:104D30006018007A09A13038C2B20748827168460B
:104D4000FEF788F86846FDF775FB08B010BD000057
:104D50002B43474154543A00800B002043474154B1
:104D6000543D25640A00000010B5FEF7B3FE00288C
:104D700002D002490120087210BD0000800B002003
:104D800070B50C460A46054607A1FFF717FB002839
:104D900006DA224605A12846FFF710FB002802DBB1
:104DA00004490120C87170BD4F4B00004552524F5D
:104DB00052000000800B0020F8B504460F4608465C
:104DC000FFF750FA05000FD03A462146FBF7D6F917
:104DD00041A0FDF72FFB01204002874208D239464F
:104DE0002846FDF74FFB06E03EA0FDF723FBF8BD8C
:104DF00044A0FDF71FFB4FA0FDF71CFB39462846DA
:104E0000FFF758FE39462846FFF7D0FE39462846B8
:104E100000F0E2F839462846FFF724FB484C00260C
:104E2000607D0300FEF753F80F54091154541B2002
:104E3000252A2F343954544254002846FEF74AFE9E
:104E4000002845D00120207041E03A463DA1284687
:104E5000FFF7EDFA00283BD00120607037E03946BB
:104E60002846FFF7A9FB33E039462846FFF73AFB0F
:104E70002EE039462846FFF751FF29E039462846FB
:104E8000FFF77EFF24E039462846FFF76DFF1FE05D
:104E90003946284600F0B2F81AE03946284600F0B4
:104EA000B9F83946284600F0C1F811E03A462949D8
:104EB0002846FFF7BCFA002806D13A4626A1284624
:104EC000FFF7B5FA002803D00C20FDF703FC667548
:104ED0002846FFF773F8F8BD2D2D2D3E3E3E2D2DB3
:104EE0002D0A00006E3538726573706F6E706172D6
:104EF0006173653D3D3E4D616C6C6F632045727220
:104F00006F720A005468652072656365697665642E
:104F1000206461746120697320746F6F206C6F6E00
:104F20006720746F20626520646973706C617965B5
:104F3000640A00002D2D2D3C3C3C2D2D2D0A000037
:104F4000800B00202B4350494E3A20524541445992
:104F500000000000AC4D00082B54435053454E4414
:104F60003A20534F434B4554204944204F50454E1F
:104F7000204641494C45440000B58BB0054A06A186
:104F80006846FDF767FF6946092000F0E9FB0BB0B2
:104F900000BD0000C20C0020312C224950222C22DE
:104FA0002573220000B5074B8BB01A46323A06A192
:104FB0006846FDF74FFF69460A2000F0D1FB0BB0B1
:104FC00000BD0000260D0020312C312C222573223B
:104FD0002C2225732200000010B504A1FBF7F2F883
:104FE000002802D004490120C87310BD2B5443503F
:104FF000434C4F53453A0000800B002010B5FEF79C
:1050000069FD002802D002490120487210BD00004D
:10501000800B002010B5FEF75DFD002802D002498C
:105020000120887210BD0000800B0020F0B50C46F6
:105030000A46A7B0054624A1FFF7C0F900281DDBEA
:105040002918201A00240D91694687B226460C7053
:1050500025460EE00D98405D2C2811D00D280FD06C
:105060000A280DD069460855641C322C06DA6D1CDE
:10507000ADB2BD42EED316490020487527B0F0BD51
:10508000684600780028F2D0002168460155761C59
:10509000F6B20C4633466A460EA10EA8FDF7DAFEBC
:1050A0000EA8FDF7C7F9012EE1D16846807A10A15C
:1050B0003038C2B20648C2720EA8FDF7CBFE0EA869
:1050C000FDF7B8F9D3E700002B584949433A0000EF
:1050D000800B00206E353843524547706172617312
:1050E000653D3D3E25732C636E743D25640A0000CA
:1050F000584949432073746174653D25640A000072
:1051000002480021017081807047000010000020DB
:10511000F8B5184E3468002C1FD0174DA079A76839
:1051200068757D23A288DB0014482168FDF7FAF832
:1051300020680178782909D0792907D0697D1D294F
:105140000CD0202902D0A188FDF79CF92068FEF739
:1051500035FF2046FEF732FF3760F8BD08A0FDF7A7
:1051600069F9A1882068FDF78DF907A0FDF762F9BC
:10517000ECE700000C000020800B00202C0E00202B
:105180005454533A000000000A000000F8B50D46E0
:1051900004000DD0002D0BD0FBF735F800280AD005
:1051A0001A4BC1070AD0C20F00211218571022E073
:1051B0000020C043F8BD0120C043F8BDC10F00224C
:1051C00009184F1009E05600A15D361976780901DB
:1051D000C918303E3143A954521C9742F3DC0FE00A
:1051E0004A0016197278B6781201D218303E32434E
:1051F0006E187270491C8F42F2DC217830392970A8
:10520000401CC10F08184010F8BD000000FDFFFF52
:10521000F3B50446407926460B36704D83B001281D
:1052200009D0022805D1A07901287FD06CA0FDF714
:1052300001F905B0F0BDA07901280CD06AA0FDF7F6
:10524000F9F80020FEF75AFD7D2001226A49C000CE
:1052500000F06AFBEDE7E01DFAF7E5FF00BA000A8F
:10526000A17A00020843A8643046FAF7DCFF00BACE
:10527000000AA17B000208436865E67B312E02D953
:1052800031465EA029E0554821461C38103132468F
:105290000190FAF7ABFF514900208039891960313C
:1052A00008711036A75D761C312F02D9394657A0F8
:1052B00013E04A48A11916303A460090FAF796FFD3
:1052C000464900208039C91980318875F019265C5B
:1052D000401C312E04D9314652A0FDF7E3F8A8E76F
:1052E00021183E4832464E380446FAF77FFF3B49C4
:1052F0000020803989192031887450A06A6DA96C0A
:10530000FDF7D0F8234656A0009A0199FDF7CAF898
:10531000032000F033F9A86D002803D000E005E079
:1053200057A084E7686DFEF767FD82E7E01DFAF796
:105330007AFF00BA070AA07A3F0207433046FAF71D
:1053400072FF00BA060AA07B360204990643A01C2D
:10535000891FFBF7E5FBA1198A7C4B7C11021943DD
:10536000AA6D49BABA4201D94CA034E0884231D181
:1053700051A0FDF75FF82146574C0F31B2B23819F2
:10538000FEF77AFD012806D0A86D011953A0FDF79C
:1053900089F8062019E0B91958A0A965FDF782F827
:1053A0005CA0A96DFDF77EF8A96D686D814205D1FD
:1053B0000A48012140300177052006E0814207D9E3
:1053C00059A0FDF737F80020A86500F0D7F830E7BE
:1053D0000320FAE763A0FDF72DF8F9E7180C002089
:1053E000CEB4D6AA0A0000004E6F207570646174B6
:1053F000652066696C650A00C1580008536E207408
:105400006F6F206C6F6E672025640A006D7976657A
:105410007273696F6E20746F6F206C6F6E672025DA
:10542000640A00006E657776657273696F6E20742A
:105430006F6F206C6F6E672025640A0046696C658B
:105440002025303858202C20546F74616C207369EB
:105450007A653D25642042797465730A0000000076
:105460004D7920534E3A25730A4D79205665723A8C
:1054700025730A4E6577205665723A25730A000037
:10548000557064617465206669726D77617265201C
:10549000636F6E74696E7574650A000052656365AA
:1054A000697665207468652073616D652066697230
:1054B0006D776172650A0000446174612076616CE9
:1054C00069646174696F6E204F4B2C5772697474F4
:1054D000696E672E2E2E0A000078000857726974D4
:1054E000696E67206669726D776172652065727298
:1054F0006F7220617420307825580A0043757272EB
:10550000656E742046696C652053697A653D256433
:105510000A00000046696C654F66667365743D302D
:105520007825580A00000000526563657669652099
:10553000636F6D706C657465202C62757420746F78
:1055400074616C2073697A6520697320646966668A
:105550006572656E742C7265747279206167616919
:105560006E0A0000446174612076616C6964617444
:10557000696F6E204661696C0A00000010B504492D
:10558000002208708A80014602A0FCF78BFF10BD44
:105590001000002070726F746F636F6C46736D53F0
:1055A000746174654368616E67653A6368616E67CC
:1055B0006520737461746520746F2025640A00008F
:1055C00038B5FDF7A5F80D2834D12F4C207803000D
:1055D000FDF77DFC08050B101C243147552D0021DB
:1055E000084600F029F901201FE0A08896281ED95E
:1055F00000201AE0A0885A21FAF77AFD002916D176
:1056000001206946087000F017F910E00220694691
:105610000870012000F010F9042006E01BA0FCF740
:1056200009FFA0885A2802D90320FFF7A7FFA08806
:10563000401CA08038BD032069460870012000F09E
:10564000FBF819A0FCF7F6FE0720FFF797FF0020F4
:10565000FEF754FB7D2001221B49C00000F064F9D5
:10566000E5E71AA0FCF7E6FE2148224A016D806DAD
:10567000C909491C89B28018FEF764FBD4E7A088E9
:105680005A28B5D8D3E7000010000020576169748C
:1056900074696E67206669726D77617265206461F6
:1056A00074612E2E2E0A0000446F776E6C6F616459
:1056B000206669726D7761726520636F6D706C65CD
:1056C0007465210A00000000C1580008577269740F
:1056D00074696E67206669726D77617265206572A4
:1056E000726F722C72657472792E2E2E0A00000071
:1056F000180C00200078000810B50278782A02D033
:10570000792A0DD00FE0417878290CD1C078012892
:1057100005D10220FFF732FF08A0FCF78BFE10BD79
:105720004278792A03D008A0FCF798FE10BD0279D0
:10573000F32AFBD1FFF76CFD10BD0000B5C7C2BC5A
:10574000B3C9B9A60A00000070726F746F636F6C02
:1057500052785061726173653A4572726F720A00D5
:10576000F0B5FFB0FFB083B004460E46242847D200
:10577000244F002533206843385CA04202D1002D1D
:1057800004DB0CE06D1CEDB2242DF3D36C461EA19E
:105790002046FDF75FFB2046FCF74CFE30E0002E74
:1057A00018D00846FAF72FFD7D21C900884227D876
:1057B00030783F2809D033204543EA19334618A1F1
:1057C0006846521CFDF746FB0CE033204543EA19BE
:1057D00015A103E033204543EA1915A16846521C80
:1057E000FDF738FB6D462846FAF70DFD81B22246DB
:1057F0002846FBF73BF801207FB07FB003B0F0BD37
:105800000020F9E7885C000873656E644E35384304
:105810006D643D3D3E4E6F20636D640A00000000E4
:1058200025733D25730D0A0025733F0D0A00000006
:1058300025730D0A0000000070B5FFB0FFB0A2B0E4
:105840001A4D0C46C0AE002802D0012811D107E045
:10585000FEF71CF801463246A81CFEF71FF807E0C9
:10586000FEF714F8014623783246A81CFEF74CF8E0
:105870000446A1B23046FCF751FF03216D460902F0
:105880002846FAF794FCA2B229463046FDF79BFF62
:1058900007A0FCF7CFFD2846FCF7CCFD07A0FCF7DE
:1058A000C9FD7FB07FB022B070BD0000780C002031
:1058B0005443502053656E643A0000000A00000013
:1058C00010B50C4C0CA02178FCF7ECFD2078401EA4
:1058D0000006000E20700CD10D48FCF78DFD00284D
:1058E00007D10CA0FCF7A6FD0120FEF707FAFBF795
:1058F00041FD10BD0000002073746172744A756D23
:1059000070546F417070202564202E2E2E0A0000E6
:10591000007800084A756D7020746F2061707020E7
:105920006661696C0A00000070B50D4609490024E3
:105930000B5D002B05D0641C102CF9DB0020C0434C
:1059400070BD01230B551346E1B22A46FAF7D6FF84
:1059500060B270BD540B0020F8B51F4E3468254668
:10596000FBF770FC371D38600EE0E068396888424C
:1059700008D8206980476078002808D06168E0680E
:105980004018E06025466469002CEED1F8BD30680F
:1059900084420ED1217811A0FCF784FD646930683F
:1059A000FEF70CFB316800200A78104988543460F7
:1059B000EAE7009422780D4900208854009C0CA04E
:1059C0002178FCF76FFD009C606968612C460098A7
:1059D000FEF7F4FAD6E700000400002044656C6589
:1059E000746520486561643A25640A00540B002000
:1059F00044656C6574653A25640A000070B50F4C07
:105A00000025207901280BD125712069002807D0B5
:105A1000A189A068FCF736FD2269A189A06890479A
:105A2000064814300179012906D105710269002A5E
:105A300002D081898068904770BD00002C0B002047
:105A400010B5E0210948FAF7B2FB0948FEF776F8ED
:105A500007490648FAF7DEFB044801218902803035
:105A60000165024903A0FCF71DFD10BD980B002045
:105A7000580D002043757272656E742056657273FE
:105A8000696F6E3A25730A000000891112239B3258
:105A90002446AD573665BF74488CC19D5AAFD3BEFE
:105AA0006CCAE5DB7EE9F7F88110080193331A220E
:105AB000A5562C47B7753E64C99C408DDBBF52AEDE
:105AC000EDDA64CBFFF976E802218B3010029913EE
:105AD0002667AF763444BD554AADC3BC588ED19FBE
